{"contracts/EncryptedBidContract.sol":{"EncryptedBidContract":{"abi":[{"anonymous":false,"inputs":[{"indexed":false,"internalType":"string","name":"sessionId","type":"string"},{"indexed":false,"internalType":"string","name":"bidderId","type":"string"}],"name":"BidSubmitted","type":"event"},{"inputs":[{"internalType":"string","name":"sessionId","type":"string"}],"name":"getAllBidderIds","outputs":[{"internalType":"string[]","name":"","type":"string[]"}],"stateMutability":"view","type":"function"},{"inputs":[{"internalType":"string","name":"sessionId","type":"string"},{"internalType":"string","name":"bidderId","type":"string"}],"name":"getBid","outputs":[{"components":[{"internalType":"string","name":"encryptedData","type":"string"},{"internalType":"string","name":"iv","type":"string"}],"internalType":"struct EncryptedBidContract.EncryptedBid","name":"","type":"tuple"}],"stateMutability":"view","type":"function"},{"inputs":[{"internalType":"string","name":"","type":"string"},{"internalType":"string","name":"","type":"string"}],"name":"sessionBids","outputs":[{"internalType":"string","name":"encryptedData","type":"string"},{"internalType":"string","name":"iv","type":"string"}],"stateMutability":"view","type":"function"},{"inputs":[{"internalType":"string","name":"sessionId","type":"string"},{"internalType":"string","name":"bidderId","type":"string"},{"internalType":"string","name":"encryptedData","type":"string"},{"internalType":"string","name":"iv","type":"string"}],"name":"submitBid","outputs":[],"stateMutability":"nonpayable","type":"function"}],"devdoc":{"kind":"dev","methods":{},"version":1},"evm":{"bytecode":{"linkReferences":{},"object":"6080806040523461001657610d0a908161001c8239f35b600080fdfe608080604052600436101561001357600080fd5b60003560e01c9081634f020ec814610855575080639da6888114610739578063af868dac1461013d5763b6584cd11461004b57600080fd5b346101385760407ffffffffffffffffffffffffffffffffffffffffffffffffffffffffffffffffc3601126101385767ffffffffffffffff6004358181116101385761009b903690600401610af1565b6024359182116101385760206100f1916100d4826100c0610126963690600401610af1565b9281604051938285809451938492016109c9565b8101600081520301902082604051948386809551938492016109c9565b820190815203019020610134610112600161010b84610b62565b9301610b62565b6040519384936040855260408501906109ec565b9083820360208501526109ec565b0390f35b600080fd5b346101385760807ffffffffffffffffffffffffffffffffffffffffffffffffffffffffffffffffc3601126101385760043567ffffffffffffffff81116101385761018c90369060040161099b565b9060243567ffffffffffffffff8111610138576101ad90369060040161099b565b929060443567ffffffffffffffff8111610138576101cf90369060040161099b565b949060643567ffffffffffffffff8111610138576101f190369060040161099b565b909161021b610215604051888a82376020818a810160008152030190208688610c26565b54610b0f565b1561056d575b9061023e6102479392604051996102378b610a2f565b3691610a8c565b88523691610a8c565b6020860190815261026d6040518587823760208187810160008152030190208385610c26565b955180519067ffffffffffffffff821161048f576102958261028f8a54610b0f565b8a610c3f565b602090601f83116001146104c9576102e39291600091836104be575b50507fffffffffffffffffffffffffffffffffffffffffffffffffffffffffffffffff8260011b9260031b1c19161790565b86555b600180960190519586519067ffffffffffffffff821161048f576103148261030e8554610b0f565b85610c3f565b602090601f83116001146103c25750816103b29594939261038a927f8ca29c64697f1118d070b0a2b93f2f864a0f71398ac22ddd7d39dea7938049459a6000926103b75750507fffffffffffffffffffffffffffffffffffffffffffffffffffffffffffffffff8260011b9260031b1c19161790565b90555b6103a4604051958695604087526040870191610c95565b918483036020860152610c95565b0390a1005b015190508a806102b1565b977fffffffffffffffffffffffffffffffffffffffffffffffffffffffffffffffe08316846000526020600020996000905b8282106104765750509860019284926103b2989796957f8ca29c64697f1118d070b0a2b93f2f864a0f71398ac22ddd7d39dea7938049459c1061043f575b505050811b01905561038d565b01517fffffffffffffffffffffffffffffffffffffffffffffffffffffffffffffffff60f88460031b161c19169055898080610432565b848401518c559a8b019a602094850194909101906103f4565b7f4e487b7100000000000000000000000000000000000000000000000000000000600052604160045260246000fd5b0151905089806102b1565b907fffffffffffffffffffffffffffffffffffffffffffffffffffffffffffffffe08316918960005260206000209260005b818110610555575090846001959493921061051e575b505050811b0186556102e6565b01517fffffffffffffffffffffffffffffffffffffffffffffffffffffffffffffffff60f88460031b161c19169055888080610511565b929360206001819287860151815501950193016104fb565b6040518688823760208188810160018152030190208054906801000000000000000082101561048f576001820180825582101561070a5760005260206000200167ffffffffffffffff851161048f576105d0856105ca8354610b0f565b83610c3f565b846000601f821160011461063f5791610627826102479796959361023e95600091610634575b507fffffffffffffffffffffffffffffffffffffffffffffffffffffffffffffffff8260011b9260031b1c19161790565b90555b9192935050610221565b90508a01358e6105f6565b60008381526020812092505b7fffffffffffffffffffffffffffffffffffffffffffffffffffffffffffffffe0881681106106f25750916102479594939161023e93887fffffffffffffffffffffffffffffffffffffffffffffffffffffffffffffffe08116106106ba575b5050600187811b01905561062a565b7fffffffffffffffffffffffffffffffffffffffffffffffffffffffffffffffff60f88a60031b161c19908a01351690558b806106ab565b9091602060018192858c01358155019301910161064b565b7f4e487b7100000000000000000000000000000000000000000000000000000000600052603260045260246000fd5b346101385760407ffffffffffffffffffffffffffffffffffffffffffffffffffffffffffffffffc3601126101385767ffffffffffffffff6004358181116101385761078990369060040161099b565b906024359283116101385760206107db926107ab61082495369060040161099b565b9290936060826040516107bd81610a2f565b82815201528260405193849283378101600081520301902091610c26565b6101346108016001604051936107f085610a2f565b6107f981610b62565b855201610b62565b6020830190815260405193849360208552516040602086015260608501906109ec565b90517fffffffffffffffffffffffffffffffffffffffffffffffffffffffffffffffe08483030160408501526109ec565b34610138576020807ffffffffffffffffffffffffffffffffffffffffffffffffffffffffffffffffc3601126101385767ffffffffffffffff600435818111610138576108a690369060040161099b565b809185378301928281600195600181520301902090815490811161048f578383604051926108d9828260051b0185610a4b565b8084528184018095600052826000206000915b8383106109725750505050604051928184019082855251809152604084019160408260051b86010195926000905b8382106109275786880387f35b909192939483806109618a7fffffffffffffffffffffffffffffffffffffffffffffffffffffffffffffffc08b869d0301865289516109ec565b99970195949391909101910161091a565b90858086819a989594610987859b999b610b62565b8152019201920192509694969593956108ec565b9181601f840112156101385782359167ffffffffffffffff8311610138576020838186019501011161013857565b60005b8381106109dc5750506000910152565b81810151838201526020016109cc565b907fffffffffffffffffffffffffffffffffffffffffffffffffffffffffffffffe0601f602093610a28815180928187528780880191016109c9565b0116010190565b6040810190811067ffffffffffffffff82111761048f57604052565b90601f7fffffffffffffffffffffffffffffffffffffffffffffffffffffffffffffffe0910116810190811067ffffffffffffffff82111761048f57604052565b92919267ffffffffffffffff821161048f5760405191610ad460207fffffffffffffffffffffffffffffffffffffffffffffffffffffffffffffffe0601f8401160184610a4b565b829481845281830111610138578281602093846000960137010152565b9080601f8301121561013857816020610b0c93359101610a8c565b90565b90600182811c92168015610b58575b6020831014610b2957565b7f4e487b7100000000000000000000000000000000000000000000000000000000600052602260045260246000fd5b91607f1691610b1e565b90604051918260008254610b7581610b0f565b90818452602094600191600181169081600014610be55750600114610ba6575b505050610ba492500383610a4b565b565b600090815285812095935091905b818310610bcd575050610ba49350820101388080610b95565b85548884018501529485019487945091830191610bb4565b915050610ba49593507fffffffffffffffffffffffffffffffffffffffffffffffffffffffffffffff0091501682840152151560051b820101388080610b95565b6020919283604051948593843782019081520301902090565b90601f8111610c4d57505050565b6000916000526020600020906020601f850160051c83019410610c8b575b601f0160051c01915b828110610c8057505050565b818155600101610c74565b9092508290610c6b565b601f82602094937fffffffffffffffffffffffffffffffffffffffffffffffffffffffffffffffe093818652868601376000858286010152011601019056fea26469706673582212202adeff3b719a00a9d0a36f8754532acfdb6538dbe6b75cd4639b7b0f9710e0c864736f6c63430008180033","opcodes":"PUSH1 0x80 DUP1 PUSH1 0x40 MSTORE CALLVALUE PUSH2 0x16 JUMPI PUSH2 0xD0A SWAP1 DUP2 PUSH2 0x1C DUP3 CODECOPY RETURN JUMPDEST PUSH1 0x0 DUP1 REVERT INVALID PUSH1 0x80 DUP1 PUSH1 0x40 MSTORE PUSH1 0x4 CALLDATASIZE LT ISZERO PUSH2 0x13 JUMPI PUSH1 0x0 DUP1 REVERT JUMPDEST PUSH1 0x0 CALLDATALOAD PUSH1 0xE0 SHR SWAP1 DUP2 PUSH4 0x4F020EC8 EQ PUSH2 0x855 JUMPI POP DUP1 PUSH4 0x9DA68881 EQ PUSH2 0x739 JUMPI DUP1 PUSH4 0xAF868DAC EQ PUSH2 0x13D JUMPI PUSH4 0xB6584CD1 EQ PUSH2 0x4B JUMPI PUSH1 0x0 DUP1 REVERT JUMPDEST CALLVALUE PUSH2 0x138 JUMPI PUSH1 0x40 PUSH32 0xFFFFFFFFFFFFFFFFFFFFFFFFFFFFFFFFFFFFFFFFFFFFFFFFFFFFFFFFFFFFFFFC CALLDATASIZE ADD SLT PUSH2 0x138 JUMPI PUSH8 0xFFFFFFFFFFFFFFFF PUSH1 0x4 CALLDATALOAD DUP2 DUP2 GT PUSH2 0x138 JUMPI PUSH2 0x9B SWAP1 CALLDATASIZE SWAP1 PUSH1 0x4 ADD PUSH2 0xAF1 JUMP JUMPDEST PUSH1 0x24 CALLDATALOAD SWAP2 DUP3 GT PUSH2 0x138 JUMPI PUSH1 0x20 PUSH2 0xF1 SWAP2 PUSH2 0xD4 DUP3 PUSH2 0xC0 PUSH2 0x126 SWAP7 CALLDATASIZE SWAP1 PUSH1 0x4 ADD PUSH2 0xAF1 JUMP JUMPDEST SWAP3 DUP2 PUSH1 0x40 MLOAD SWAP4 DUP3 DUP6 DUP1 SWAP5 MLOAD SWAP4 DUP5 SWAP3 ADD PUSH2 0x9C9 JUMP JUMPDEST DUP2 ADD PUSH1 0x0 DUP2 MSTORE SUB ADD SWAP1 KECCAK256 DUP3 PUSH1 0x40 MLOAD SWAP5 DUP4 DUP7 DUP1 SWAP6 MLOAD SWAP4 DUP5 SWAP3 ADD PUSH2 0x9C9 JUMP JUMPDEST DUP3 ADD SWAP1 DUP2 MSTORE SUB ADD SWAP1 KECCAK256 PUSH2 0x134 PUSH2 0x112 PUSH1 0x1 PUSH2 0x10B DUP5 PUSH2 0xB62 JUMP JUMPDEST SWAP4 ADD PUSH2 0xB62 JUMP JUMPDEST PUSH1 0x40 MLOAD SWAP4 DUP5 SWAP4 PUSH1 0x40 DUP6 MSTORE PUSH1 0x40 DUP6 ADD SWAP1 PUSH2 0x9EC JUMP JUMPDEST SWAP1 DUP4 DUP3 SUB PUSH1 0x20 DUP6 ADD MSTORE PUSH2 0x9EC JUMP JUMPDEST SUB SWAP1 RETURN JUMPDEST PUSH1 0x0 DUP1 REVERT JUMPDEST CALLVALUE PUSH2 0x138 JUMPI PUSH1 0x80 PUSH32 0xFFFFFFFFFFFFFFFFFFFFFFFFFFFFFFFFFFFFFFFFFFFFFFFFFFFFFFFFFFFFFFFC CALLDATASIZE ADD SLT PUSH2 0x138 JUMPI PUSH1 0x4 CALLDATALOAD PUSH8 0xFFFFFFFFFFFFFFFF DUP2 GT PUSH2 0x138 JUMPI PUSH2 0x18C SWAP1 CALLDATASIZE SWAP1 PUSH1 0x4 ADD PUSH2 0x99B JUMP JUMPDEST SWAP1 PUSH1 0x24 CALLDATALOAD PUSH8 0xFFFFFFFFFFFFFFFF DUP2 GT PUSH2 0x138 JUMPI PUSH2 0x1AD SWAP1 CALLDATASIZE SWAP1 PUSH1 0x4 ADD PUSH2 0x99B JUMP JUMPDEST SWAP3 SWAP1 PUSH1 0x44 CALLDATALOAD PUSH8 0xFFFFFFFFFFFFFFFF DUP2 GT PUSH2 0x138 JUMPI PUSH2 0x1CF SWAP1 CALLDATASIZE SWAP1 PUSH1 0x4 ADD PUSH2 0x99B JUMP JUMPDEST SWAP5 SWAP1 PUSH1 0x64 CALLDATALOAD PUSH8 0xFFFFFFFFFFFFFFFF DUP2 GT PUSH2 0x138 JUMPI PUSH2 0x1F1 SWAP1 CALLDATASIZE SWAP1 PUSH1 0x4 ADD PUSH2 0x99B JUMP JUMPDEST SWAP1 SWAP2 PUSH2 0x21B PUSH2 0x215 PUSH1 0x40 MLOAD DUP9 DUP11 DUP3 CALLDATACOPY PUSH1 0x20 DUP2 DUP11 DUP2 ADD PUSH1 0x0 DUP2 MSTORE SUB ADD SWAP1 KECCAK256 DUP7 DUP9 PUSH2 0xC26 JUMP JUMPDEST SLOAD PUSH2 0xB0F JUMP JUMPDEST ISZERO PUSH2 0x56D JUMPI JUMPDEST SWAP1 PUSH2 0x23E PUSH2 0x247 SWAP4 SWAP3 PUSH1 0x40 MLOAD SWAP10 PUSH2 0x237 DUP12 PUSH2 0xA2F JUMP JUMPDEST CALLDATASIZE SWAP2 PUSH2 0xA8C JUMP JUMPDEST DUP9 MSTORE CALLDATASIZE SWAP2 PUSH2 0xA8C JUMP JUMPDEST PUSH1 0x20 DUP7 ADD SWAP1 DUP2 MSTORE PUSH2 0x26D PUSH1 0x40 MLOAD DUP6 DUP8 DUP3 CALLDATACOPY PUSH1 0x20 DUP2 DUP8 DUP2 ADD PUSH1 0x0 DUP2 MSTORE SUB ADD SWAP1 KECCAK256 DUP4 DUP6 PUSH2 0xC26 JUMP JUMPDEST SWAP6 MLOAD DUP1 MLOAD SWAP1 PUSH8 0xFFFFFFFFFFFFFFFF DUP3 GT PUSH2 0x48F JUMPI PUSH2 0x295 DUP3 PUSH2 0x28F DUP11 SLOAD PUSH2 0xB0F JUMP JUMPDEST DUP11 PUSH2 0xC3F JUMP JUMPDEST PUSH1 0x20 SWAP1 PUSH1 0x1F DUP4 GT PUSH1 0x1 EQ PUSH2 0x4C9 JUMPI PUSH2 0x2E3 SWAP3 SWAP2 PUSH1 0x0 SWAP2 DUP4 PUSH2 0x4BE JUMPI JUMPDEST POP POP PUSH32 0xFFFFFFFFFFFFFFFFFFFFFFFFFFFFFFFFFFFFFFFFFFFFFFFFFFFFFFFFFFFFFFFF DUP3 PUSH1 0x1 SHL SWAP3 PUSH1 0x3 SHL SHR NOT AND OR SWAP1 JUMP JUMPDEST DUP7 SSTORE JUMPDEST PUSH1 0x1 DUP1 SWAP7 ADD SWAP1 MLOAD SWAP6 DUP7 MLOAD SWAP1 PUSH8 0xFFFFFFFFFFFFFFFF DUP3 GT PUSH2 0x48F JUMPI PUSH2 0x314 DUP3 PUSH2 0x30E DUP6 SLOAD PUSH2 0xB0F JUMP JUMPDEST DUP6 PUSH2 0xC3F JUMP JUMPDEST PUSH1 0x20 SWAP1 PUSH1 0x1F DUP4 GT PUSH1 0x1 EQ PUSH2 0x3C2 JUMPI POP DUP2 PUSH2 0x3B2 SWAP6 SWAP5 SWAP4 SWAP3 PUSH2 0x38A SWAP3 PUSH32 0x8CA29C64697F1118D070B0A2B93F2F864A0F71398AC22DDD7D39DEA793804945 SWAP11 PUSH1 0x0 SWAP3 PUSH2 0x3B7 JUMPI POP POP PUSH32 0xFFFFFFFFFFFFFFFFFFFFFFFFFFFFFFFFFFFFFFFFFFFFFFFFFFFFFFFFFFFFFFFF DUP3 PUSH1 0x1 SHL SWAP3 PUSH1 0x3 SHL SHR NOT AND OR SWAP1 JUMP JUMPDEST SWAP1 SSTORE JUMPDEST PUSH2 0x3A4 PUSH1 0x40 MLOAD SWAP6 DUP7 SWAP6 PUSH1 0x40 DUP8 MSTORE PUSH1 0x40 DUP8 ADD SWAP2 PUSH2 0xC95 JUMP JUMPDEST SWAP2 DUP5 DUP4 SUB PUSH1 0x20 DUP7 ADD MSTORE PUSH2 0xC95 JUMP JUMPDEST SUB SWAP1 LOG1 STOP JUMPDEST ADD MLOAD SWAP1 POP DUP11 DUP1 PUSH2 0x2B1 JUMP JUMPDEST SWAP8 PUSH32 0xFFFFFFFFFFFFFFFFFFFFFFFFFFFFFFFFFFFFFFFFFFFFFFFFFFFFFFFFFFFFFFE0 DUP4 AND DUP5 PUSH1 0x0 MSTORE PUSH1 0x20 PUSH1 0x0 KECCAK256 SWAP10 PUSH1 0x0 SWAP1 JUMPDEST DUP3 DUP3 LT PUSH2 0x476 JUMPI POP POP SWAP9 PUSH1 0x1 SWAP3 DUP5 SWAP3 PUSH2 0x3B2 SWAP9 SWAP8 SWAP7 SWAP6 PUSH32 0x8CA29C64697F1118D070B0A2B93F2F864A0F71398AC22DDD7D39DEA793804945 SWAP13 LT PUSH2 0x43F JUMPI JUMPDEST POP POP POP DUP2 SHL ADD SWAP1 SSTORE PUSH2 0x38D JUMP JUMPDEST ADD MLOAD PUSH32 0xFFFFFFFFFFFFFFFFFFFFFFFFFFFFFFFFFFFFFFFFFFFFFFFFFFFFFFFFFFFFFFFF PUSH1 0xF8 DUP5 PUSH1 0x3 SHL AND SHR NOT AND SWAP1 SSTORE DUP10 DUP1 DUP1 PUSH2 0x432 JUMP JUMPDEST DUP5 DUP5 ADD MLOAD DUP13 SSTORE SWAP11 DUP12 ADD SWAP11 PUSH1 0x20 SWAP5 DUP6 ADD SWAP5 SWAP1 SWAP2 ADD SWAP1 PUSH2 0x3F4 JUMP JUMPDEST PUSH32 0x4E487B7100000000000000000000000000000000000000000000000000000000 PUSH1 0x0 MSTORE PUSH1 0x41 PUSH1 0x4 MSTORE PUSH1 0x24 PUSH1 0x0 REVERT JUMPDEST ADD MLOAD SWAP1 POP DUP10 DUP1 PUSH2 0x2B1 JUMP JUMPDEST SWAP1 PUSH32 0xFFFFFFFFFFFFFFFFFFFFFFFFFFFFFFFFFFFFFFFFFFFFFFFFFFFFFFFFFFFFFFE0 DUP4 AND SWAP2 DUP10 PUSH1 0x0 MSTORE PUSH1 0x20 PUSH1 0x0 KECCAK256 SWAP3 PUSH1 0x0 JUMPDEST DUP2 DUP2 LT PUSH2 0x555 JUMPI POP SWAP1 DUP5 PUSH1 0x1 SWAP6 SWAP5 SWAP4 SWAP3 LT PUSH2 0x51E JUMPI JUMPDEST POP POP POP DUP2 SHL ADD DUP7 SSTORE PUSH2 0x2E6 JUMP JUMPDEST ADD MLOAD PUSH32 0xFFFFFFFFFFFFFFFFFFFFFFFFFFFFFFFFFFFFFFFFFFFFFFFFFFFFFFFFFFFFFFFF PUSH1 0xF8 DUP5 PUSH1 0x3 SHL AND SHR NOT AND SWAP1 SSTORE DUP9 DUP1 DUP1 PUSH2 0x511 JUMP JUMPDEST SWAP3 SWAP4 PUSH1 0x20 PUSH1 0x1 DUP2 SWAP3 DUP8 DUP7 ADD MLOAD DUP2 SSTORE ADD SWAP6 ADD SWAP4 ADD PUSH2 0x4FB JUMP JUMPDEST PUSH1 0x40 MLOAD DUP7 DUP9 DUP3 CALLDATACOPY PUSH1 0x20 DUP2 DUP9 DUP2 ADD PUSH1 0x1 DUP2 MSTORE SUB ADD SWAP1 KECCAK256 DUP1 SLOAD SWAP1 PUSH9 0x10000000000000000 DUP3 LT ISZERO PUSH2 0x48F JUMPI PUSH1 0x1 DUP3 ADD DUP1 DUP3 SSTORE DUP3 LT ISZERO PUSH2 0x70A JUMPI PUSH1 0x0 MSTORE PUSH1 0x20 PUSH1 0x0 KECCAK256 ADD PUSH8 0xFFFFFFFFFFFFFFFF DUP6 GT PUSH2 0x48F JUMPI PUSH2 0x5D0 DUP6 PUSH2 0x5CA DUP4 SLOAD PUSH2 0xB0F JUMP JUMPDEST DUP4 PUSH2 0xC3F JUMP JUMPDEST DUP5 PUSH1 0x0 PUSH1 0x1F DUP3 GT PUSH1 0x1 EQ PUSH2 0x63F JUMPI SWAP2 PUSH2 0x627 DUP3 PUSH2 0x247 SWAP8 SWAP7 SWAP6 SWAP4 PUSH2 0x23E SWAP6 PUSH1 0x0 SWAP2 PUSH2 0x634 JUMPI JUMPDEST POP PUSH32 0xFFFFFFFFFFFFFFFFFFFFFFFFFFFFFFFFFFFFFFFFFFFFFFFFFFFFFFFFFFFFFFFF DUP3 PUSH1 0x1 SHL SWAP3 PUSH1 0x3 SHL SHR NOT AND OR SWAP1 JUMP JUMPDEST SWAP1 SSTORE JUMPDEST SWAP2 SWAP3 SWAP4 POP POP PUSH2 0x221 JUMP JUMPDEST SWAP1 POP DUP11 ADD CALLDATALOAD DUP15 PUSH2 0x5F6 JUMP JUMPDEST PUSH1 0x0 DUP4 DUP2 MSTORE PUSH1 0x20 DUP2 KECCAK256 SWAP3 POP JUMPDEST PUSH32 0xFFFFFFFFFFFFFFFFFFFFFFFFFFFFFFFFFFFFFFFFFFFFFFFFFFFFFFFFFFFFFFE0 DUP9 AND DUP2 LT PUSH2 0x6F2 JUMPI POP SWAP2 PUSH2 0x247 SWAP6 SWAP5 SWAP4 SWAP2 PUSH2 0x23E SWAP4 DUP9 PUSH32 0xFFFFFFFFFFFFFFFFFFFFFFFFFFFFFFFFFFFFFFFFFFFFFFFFFFFFFFFFFFFFFFE0 DUP2 AND LT PUSH2 0x6BA JUMPI JUMPDEST POP POP PUSH1 0x1 DUP8 DUP2 SHL ADD SWAP1 SSTORE PUSH2 0x62A JUMP JUMPDEST PUSH32 0xFFFFFFFFFFFFFFFFFFFFFFFFFFFFFFFFFFFFFFFFFFFFFFFFFFFFFFFFFFFFFFFF PUSH1 0xF8 DUP11 PUSH1 0x3 SHL AND SHR NOT SWAP1 DUP11 ADD CALLDATALOAD AND SWAP1 SSTORE DUP12 DUP1 PUSH2 0x6AB JUMP JUMPDEST SWAP1 SWAP2 PUSH1 0x20 PUSH1 0x1 DUP2 SWAP3 DUP6 DUP13 ADD CALLDATALOAD DUP2 SSTORE ADD SWAP4 ADD SWAP2 ADD PUSH2 0x64B JUMP JUMPDEST PUSH32 0x4E487B7100000000000000000000000000000000000000000000000000000000 PUSH1 0x0 MSTORE PUSH1 0x32 PUSH1 0x4 MSTORE PUSH1 0x24 PUSH1 0x0 REVERT JUMPDEST CALLVALUE PUSH2 0x138 JUMPI PUSH1 0x40 PUSH32 0xFFFFFFFFFFFFFFFFFFFFFFFFFFFFFFFFFFFFFFFFFFFFFFFFFFFFFFFFFFFFFFFC CALLDATASIZE ADD SLT PUSH2 0x138 JUMPI PUSH8 0xFFFFFFFFFFFFFFFF PUSH1 0x4 CALLDATALOAD DUP2 DUP2 GT PUSH2 0x138 JUMPI PUSH2 0x789 SWAP1 CALLDATASIZE SWAP1 PUSH1 0x4 ADD PUSH2 0x99B JUMP JUMPDEST SWAP1 PUSH1 0x24 CALLDATALOAD SWAP3 DUP4 GT PUSH2 0x138 JUMPI PUSH1 0x20 PUSH2 0x7DB SWAP3 PUSH2 0x7AB PUSH2 0x824 SWAP6 CALLDATASIZE SWAP1 PUSH1 0x4 ADD PUSH2 0x99B JUMP JUMPDEST SWAP3 SWAP1 SWAP4 PUSH1 0x60 DUP3 PUSH1 0x40 MLOAD PUSH2 0x7BD DUP2 PUSH2 0xA2F JUMP JUMPDEST DUP3 DUP2 MSTORE ADD MSTORE DUP3 PUSH1 0x40 MLOAD SWAP4 DUP5 SWAP3 DUP4 CALLDATACOPY DUP2 ADD PUSH1 0x0 DUP2 MSTORE SUB ADD SWAP1 KECCAK256 SWAP2 PUSH2 0xC26 JUMP JUMPDEST PUSH2 0x134 PUSH2 0x801 PUSH1 0x1 PUSH1 0x40 MLOAD SWAP4 PUSH2 0x7F0 DUP6 PUSH2 0xA2F JUMP JUMPDEST PUSH2 0x7F9 DUP2 PUSH2 0xB62 JUMP JUMPDEST DUP6 MSTORE ADD PUSH2 0xB62 JUMP JUMPDEST PUSH1 0x20 DUP4 ADD SWAP1 DUP2 MSTORE PUSH1 0x40 MLOAD SWAP4 DUP5 SWAP4 PUSH1 0x20 DUP6 MSTORE MLOAD PUSH1 0x40 PUSH1 0x20 DUP7 ADD MSTORE PUSH1 0x60 DUP6 ADD SWAP1 PUSH2 0x9EC JUMP JUMPDEST SWAP1 MLOAD PUSH32 0xFFFFFFFFFFFFFFFFFFFFFFFFFFFFFFFFFFFFFFFFFFFFFFFFFFFFFFFFFFFFFFE0 DUP5 DUP4 SUB ADD PUSH1 0x40 DUP6 ADD MSTORE PUSH2 0x9EC JUMP JUMPDEST CALLVALUE PUSH2 0x138 JUMPI PUSH1 0x20 DUP1 PUSH32 0xFFFFFFFFFFFFFFFFFFFFFFFFFFFFFFFFFFFFFFFFFFFFFFFFFFFFFFFFFFFFFFFC CALLDATASIZE ADD SLT PUSH2 0x138 JUMPI PUSH8 0xFFFFFFFFFFFFFFFF PUSH1 0x4 CALLDATALOAD DUP2 DUP2 GT PUSH2 0x138 JUMPI PUSH2 0x8A6 SWAP1 CALLDATASIZE SWAP1 PUSH1 0x4 ADD PUSH2 0x99B JUMP JUMPDEST DUP1 SWAP2 DUP6 CALLDATACOPY DUP4 ADD SWAP3 DUP3 DUP2 PUSH1 0x1 SWAP6 PUSH1 0x1 DUP2 MSTORE SUB ADD SWAP1 KECCAK256 SWAP1 DUP2 SLOAD SWAP1 DUP2 GT PUSH2 0x48F JUMPI DUP4 DUP4 PUSH1 0x40 MLOAD SWAP3 PUSH2 0x8D9 DUP3 DUP3 PUSH1 0x5 SHL ADD DUP6 PUSH2 0xA4B JUMP JUMPDEST DUP1 DUP5 MSTORE DUP2 DUP5 ADD DUP1 SWAP6 PUSH1 0x0 MSTORE DUP3 PUSH1 0x0 KECCAK256 PUSH1 0x0 SWAP2 JUMPDEST DUP4 DUP4 LT PUSH2 0x972 JUMPI POP POP POP POP PUSH1 0x40 MLOAD SWAP3 DUP2 DUP5 ADD SWAP1 DUP3 DUP6 MSTORE MLOAD DUP1 SWAP2 MSTORE PUSH1 0x40 DUP5 ADD SWAP2 PUSH1 0x40 DUP3 PUSH1 0x5 SHL DUP7 ADD ADD SWAP6 SWAP3 PUSH1 0x0 SWAP1 JUMPDEST DUP4 DUP3 LT PUSH2 0x927 JUMPI DUP7 DUP9 SUB DUP8 RETURN JUMPDEST SWAP1 SWAP2 SWAP3 SWAP4 SWAP5 DUP4 DUP1 PUSH2 0x961 DUP11 PUSH32 0xFFFFFFFFFFFFFFFFFFFFFFFFFFFFFFFFFFFFFFFFFFFFFFFFFFFFFFFFFFFFFFC0 DUP12 DUP7 SWAP14 SUB ADD DUP7 MSTORE DUP10 MLOAD PUSH2 0x9EC JUMP JUMPDEST SWAP10 SWAP8 ADD SWAP6 SWAP5 SWAP4 SWAP2 SWAP1 SWAP2 ADD SWAP2 ADD PUSH2 0x91A JUMP JUMPDEST SWAP1 DUP6 DUP1 DUP7 DUP2 SWAP11 SWAP9 SWAP6 SWAP5 PUSH2 0x987 DUP6 SWAP12 SWAP10 SWAP12 PUSH2 0xB62 JUMP JUMPDEST DUP2 MSTORE ADD SWAP3 ADD SWAP3 ADD SWAP3 POP SWAP7 SWAP5 SWAP7 SWAP6 SWAP4 SWAP6 PUSH2 0x8EC JUMP JUMPDEST SWAP2 DUP2 PUSH1 0x1F DUP5 ADD SLT ISZERO PUSH2 0x138 JUMPI DUP3 CALLDATALOAD SWAP2 PUSH8 0xFFFFFFFFFFFFFFFF DUP4 GT PUSH2 0x138 JUMPI PUSH1 0x20 DUP4 DUP2 DUP7 ADD SWAP6 ADD ADD GT PUSH2 0x138 JUMPI JUMP JUMPDEST PUSH1 0x0 JUMPDEST DUP4 DUP2 LT PUSH2 0x9DC JUMPI POP POP PUSH1 0x0 SWAP2 ADD MSTORE JUMP JUMPDEST DUP2 DUP2 ADD MLOAD DUP4 DUP3 ADD MSTORE PUSH1 0x20 ADD PUSH2 0x9CC JUMP JUMPDEST SWAP1 PUSH32 0xFFFFFFFFFFFFFFFFFFFFFFFFFFFFFFFFFFFFFFFFFFFFFFFFFFFFFFFFFFFFFFE0 PUSH1 0x1F PUSH1 0x20 SWAP4 PUSH2 0xA28 DUP2 MLOAD DUP1 SWAP3 DUP2 DUP8 MSTORE DUP8 DUP1 DUP9 ADD SWAP2 ADD PUSH2 0x9C9 JUMP JUMPDEST ADD AND ADD ADD SWAP1 JUMP JUMPDEST PUSH1 0x40 DUP2 ADD SWAP1 DUP2 LT PUSH8 0xFFFFFFFFFFFFFFFF DUP3 GT OR PUSH2 0x48F JUMPI PUSH1 0x40 MSTORE JUMP JUMPDEST SWAP1 PUSH1 0x1F PUSH32 0xFFFFFFFFFFFFFFFFFFFFFFFFFFFFFFFFFFFFFFFFFFFFFFFFFFFFFFFFFFFFFFE0 SWAP2 ADD AND DUP2 ADD SWAP1 DUP2 LT PUSH8 0xFFFFFFFFFFFFFFFF DUP3 GT OR PUSH2 0x48F JUMPI PUSH1 0x40 MSTORE JUMP JUMPDEST SWAP3 SWAP2 SWAP3 PUSH8 0xFFFFFFFFFFFFFFFF DUP3 GT PUSH2 0x48F JUMPI PUSH1 0x40 MLOAD SWAP2 PUSH2 0xAD4 PUSH1 0x20 PUSH32 0xFFFFFFFFFFFFFFFFFFFFFFFFFFFFFFFFFFFFFFFFFFFFFFFFFFFFFFFFFFFFFFE0 PUSH1 0x1F DUP5 ADD AND ADD DUP5 PUSH2 0xA4B JUMP JUMPDEST DUP3 SWAP5 DUP2 DUP5 MSTORE DUP2 DUP4 ADD GT PUSH2 0x138 JUMPI DUP3 DUP2 PUSH1 0x20 SWAP4 DUP5 PUSH1 0x0 SWAP7 ADD CALLDATACOPY ADD ADD MSTORE JUMP JUMPDEST SWAP1 DUP1 PUSH1 0x1F DUP4 ADD SLT ISZERO PUSH2 0x138 JUMPI DUP2 PUSH1 0x20 PUSH2 0xB0C SWAP4 CALLDATALOAD SWAP2 ADD PUSH2 0xA8C JUMP JUMPDEST SWAP1 JUMP JUMPDEST SWAP1 PUSH1 0x1 DUP3 DUP2 SHR SWAP3 AND DUP1 ISZERO PUSH2 0xB58 JUMPI JUMPDEST PUSH1 0x20 DUP4 LT EQ PUSH2 0xB29 JUMPI JUMP JUMPDEST PUSH32 0x4E487B7100000000000000000000000000000000000000000000000000000000 PUSH1 0x0 MSTORE PUSH1 0x22 PUSH1 0x4 MSTORE PUSH1 0x24 PUSH1 0x0 REVERT JUMPDEST SWAP2 PUSH1 0x7F AND SWAP2 PUSH2 0xB1E JUMP JUMPDEST SWAP1 PUSH1 0x40 MLOAD SWAP2 DUP3 PUSH1 0x0 DUP3 SLOAD PUSH2 0xB75 DUP2 PUSH2 0xB0F JUMP JUMPDEST SWAP1 DUP2 DUP5 MSTORE PUSH1 0x20 SWAP5 PUSH1 0x1 SWAP2 PUSH1 0x1 DUP2 AND SWAP1 DUP2 PUSH1 0x0 EQ PUSH2 0xBE5 JUMPI POP PUSH1 0x1 EQ PUSH2 0xBA6 JUMPI JUMPDEST POP POP POP PUSH2 0xBA4 SWAP3 POP SUB DUP4 PUSH2 0xA4B JUMP JUMPDEST JUMP JUMPDEST PUSH1 0x0 SWAP1 DUP2 MSTORE DUP6 DUP2 KECCAK256 SWAP6 SWAP4 POP SWAP2 SWAP1 JUMPDEST DUP2 DUP4 LT PUSH2 0xBCD JUMPI POP POP PUSH2 0xBA4 SWAP4 POP DUP3 ADD ADD CODESIZE DUP1 DUP1 PUSH2 0xB95 JUMP JUMPDEST DUP6 SLOAD DUP9 DUP5 ADD DUP6 ADD MSTORE SWAP5 DUP6 ADD SWAP5 DUP8 SWAP5 POP SWAP2 DUP4 ADD SWAP2 PUSH2 0xBB4 JUMP JUMPDEST SWAP2 POP POP PUSH2 0xBA4 SWAP6 SWAP4 POP PUSH32 0xFFFFFFFFFFFFFFFFFFFFFFFFFFFFFFFFFFFFFFFFFFFFFFFFFFFFFFFFFFFFFF00 SWAP2 POP AND DUP3 DUP5 ADD MSTORE ISZERO ISZERO PUSH1 0x5 SHL DUP3 ADD ADD CODESIZE DUP1 DUP1 PUSH2 0xB95 JUMP JUMPDEST PUSH1 0x20 SWAP2 SWAP3 DUP4 PUSH1 0x40 MLOAD SWAP5 DUP6 SWAP4 DUP5 CALLDATACOPY DUP3 ADD SWAP1 DUP2 MSTORE SUB ADD SWAP1 KECCAK256 SWAP1 JUMP JUMPDEST SWAP1 PUSH1 0x1F DUP2 GT PUSH2 0xC4D JUMPI POP POP POP JUMP JUMPDEST PUSH1 0x0 SWAP2 PUSH1 0x0 MSTORE PUSH1 0x20 PUSH1 0x0 KECCAK256 SWAP1 PUSH1 0x20 PUSH1 0x1F DUP6 ADD PUSH1 0x5 SHR DUP4 ADD SWAP5 LT PUSH2 0xC8B JUMPI JUMPDEST PUSH1 0x1F ADD PUSH1 0x5 SHR ADD SWAP2 JUMPDEST DUP3 DUP2 LT PUSH2 0xC80 JUMPI POP POP POP JUMP JUMPDEST DUP2 DUP2 SSTORE PUSH1 0x1 ADD PUSH2 0xC74 JUMP JUMPDEST SWAP1 SWAP3 POP DUP3 SWAP1 PUSH2 0xC6B JUMP JUMPDEST PUSH1 0x1F DUP3 PUSH1 0x20 SWAP5 SWAP4 PUSH32 0xFFFFFFFFFFFFFFFFFFFFFFFFFFFFFFFFFFFFFFFFFFFFFFFFFFFFFFFFFFFFFFE0 SWAP4 DUP2 DUP7 MSTORE DUP7 DUP7 ADD CALLDATACOPY PUSH1 0x0 DUP6 DUP3 DUP7 ADD ADD MSTORE ADD AND ADD ADD SWAP1 JUMP INVALID LOG2 PUSH5 0x6970667358 0x22 SLT KECCAK256 0x2A 0xDE SELFDESTRUCT EXTCODESIZE PUSH18 0x9A00A9D0A36F8754532ACFDB6538DBE6B75C 0xD4 PUSH4 0x9B7B0F97 LT 0xE0 0xC8 PUSH5 0x736F6C6343 STOP ADDMOD XOR STOP CALLER "},"gasEstimates":{"creation":{"codeDepositCost":"667600","executionCost":"710","totalCost":"668310"},"external":{"getAllBidderIds(string)":"infinite","getBid(string,string)":"infinite","sessionBids(string,string)":"infinite","submitBid(string,string,string,string)":"infinite"}},"methodIdentifiers":{"getAllBidderIds(string)":"4f020ec8","getBid(string,string)":"9da68881","sessionBids(string,string)":"b6584cd1","submitBid(string,string,string,string)":"af868dac"}},"storageLayout":{"storage":[{"astId":13,"contract":"contracts/EncryptedBidContract.sol:EncryptedBidContract","label":"sessionBids","offset":0,"slot":"0","type":"t_mapping(t_string_memory_ptr,t_mapping(t_string_memory_ptr,t_struct(EncryptedBid)6_storage))"},{"astId":18,"contract":"contracts/EncryptedBidContract.sol:EncryptedBidContract","label":"sessionBidderIds","offset":0,"slot":"1","type":"t_mapping(t_string_memory_ptr,t_array(t_string_storage)dyn_storage)"}],"types":{"t_array(t_string_storage)dyn_storage":{"base":"t_string_storage","encoding":"dynamic_array","label":"string[]","numberOfBytes":"32"},"t_mapping(t_string_memory_ptr,t_array(t_string_storage)dyn_storage)":{"encoding":"mapping","key":"t_string_memory_ptr","label":"mapping(string => string[])","numberOfBytes":"32","value":"t_array(t_string_storage)dyn_storage"},"t_mapping(t_string_memory_ptr,t_mapping(t_string_memory_ptr,t_struct(EncryptedBid)6_storage))":{"encoding":"mapping","key":"t_string_memory_ptr","label":"mapping(string => mapping(string => struct EncryptedBidContract.EncryptedBid))","numberOfBytes":"32","value":"t_mapping(t_string_memory_ptr,t_struct(EncryptedBid)6_storage)"},"t_mapping(t_string_memory_ptr,t_struct(EncryptedBid)6_storage)":{"encoding":"mapping","key":"t_string_memory_ptr","label":"mapping(string => struct EncryptedBidContract.EncryptedBid)","numberOfBytes":"32","value":"t_struct(EncryptedBid)6_storage"},"t_string_memory_ptr":{"encoding":"bytes","label":"string","numberOfBytes":"32"},"t_string_storage":{"encoding":"bytes","label":"string","numberOfBytes":"32"},"t_struct(EncryptedBid)6_storage":{"encoding":"inplace","label":"struct EncryptedBidContract.EncryptedBid","members":[{"astId":3,"contract":"contracts/EncryptedBidContract.sol:EncryptedBidContract","label":"encryptedData","offset":0,"slot":"0","type":"t_string_storage"},{"astId":5,"contract":"contracts/EncryptedBidContract.sol:EncryptedBidContract","label":"iv","offset":0,"slot":"1","type":"t_string_storage"}],"numberOfBytes":"64"}}},"userdoc":{"kind":"user","methods":{"getAllBidderIds(string)":{"notice":"Get all bidderIds for a session"},"getBid(string,string)":{"notice":"Get bid for a session and bidder"},"submitBid(string,string,string,string)":{"notice":"Submit a bid for a given session"}},"version":1}}}}