{"contracts/EncryptedBidContract.sol":{"EncryptedBidContract":{"abi":[{"inputs":[],"name":"InvalidInitialization","type":"error"},{"inputs":[],"name":"NotInitializing","type":"error"},{"inputs":[{"internalType":"address","name":"owner","type":"address"}],"name":"OwnableInvalidOwner","type":"error"},{"inputs":[{"internalType":"address","name":"account","type":"address"}],"name":"OwnableUnauthorizedAccount","type":"error"},{"inputs":[],"name":"ReentrancyGuardReentrantCall","type":"error"},{"anonymous":false,"inputs":[{"indexed":false,"internalType":"string","name":"sessionId","type":"string"},{"indexed":false,"internalType":"string","name":"bidderId","type":"string"}],"name":"BidSubmitted","type":"event"},{"anonymous":false,"inputs":[{"indexed":false,"internalType":"uint64","name":"version","type":"uint64"}],"name":"Initialized","type":"event"},{"anonymous":false,"inputs":[{"indexed":true,"internalType":"address","name":"previousOwner","type":"address"},{"indexed":true,"internalType":"address","name":"newOwner","type":"address"}],"name":"OwnershipTransferred","type":"event"},{"anonymous":false,"inputs":[{"indexed":false,"internalType":"string","name":"sessionId","type":"string"},{"indexed":false,"internalType":"uint256","name":"duration","type":"uint256"}],"name":"SessionViewWindowSet","type":"event"},{"inputs":[{"internalType":"string","name":"","type":"string"},{"internalType":"string","name":"","type":"string"}],"name":"encryptedSessionBids","outputs":[{"internalType":"string","name":"encryptedData","type":"string"},{"internalType":"string","name":"iv","type":"string"},{"internalType":"uint256","name":"timestamp","type":"uint256"}],"stateMutability":"view","type":"function"},{"inputs":[{"internalType":"string","name":"sessionId","type":"string"}],"name":"getAllBidderIds","outputs":[{"internalType":"string[]","name":"","type":"string[]"}],"stateMutability":"view","type":"function"},{"inputs":[{"internalType":"string","name":"sessionId","type":"string"},{"internalType":"string","name":"bidderId","type":"string"}],"name":"getBid","outputs":[{"components":[{"internalType":"string","name":"encryptedData","type":"string"},{"internalType":"string","name":"iv","type":"string"},{"internalType":"uint256","name":"timestamp","type":"uint256"}],"internalType":"struct EncryptedBidContract.EncryptedBid","name":"","type":"tuple"}],"stateMutability":"view","type":"function"},{"inputs":[],"name":"initialize","outputs":[],"stateMutability":"nonpayable","type":"function"},{"inputs":[],"name":"owner","outputs":[{"internalType":"address","name":"","type":"address"}],"stateMutability":"view","type":"function"},{"inputs":[],"name":"renounceOwnership","outputs":[],"stateMutability":"nonpayable","type":"function"},{"inputs":[{"internalType":"string","name":"","type":"string"}],"name":"sessionViewWindows","outputs":[{"internalType":"uint256","name":"","type":"uint256"}],"stateMutability":"view","type":"function"},{"inputs":[{"internalType":"string","name":"sessionId","type":"string"},{"internalType":"uint256","name":"duration","type":"uint256"}],"name":"setSessionViewWindow","outputs":[],"stateMutability":"nonpayable","type":"function"},{"inputs":[{"internalType":"string","name":"sessionId","type":"string"},{"internalType":"string","name":"bidderId","type":"string"},{"internalType":"string","name":"encryptedData","type":"string"},{"internalType":"string","name":"iv","type":"string"}],"name":"submitBid","outputs":[],"stateMutability":"nonpayable","type":"function"},{"inputs":[{"internalType":"address","name":"newOwner","type":"address"}],"name":"transferOwnership","outputs":[],"stateMutability":"nonpayable","type":"function"}],"devdoc":{"errors":{"InvalidInitialization()":[{"details":"The contract is already initialized."}],"NotInitializing()":[{"details":"The contract is not initializing."}],"OwnableInvalidOwner(address)":[{"details":"The owner is not a valid owner account. (eg. `address(0)`)"}],"OwnableUnauthorizedAccount(address)":[{"details":"The caller account is not authorized to perform an operation."}],"ReentrancyGuardReentrantCall()":[{"details":"Unauthorized reentrant call."}]},"events":{"Initialized(uint64)":{"details":"Triggered when the contract has been initialized or reinitialized."}},"kind":"dev","methods":{"owner()":{"details":"Returns the address of the current owner."},"renounceOwnership()":{"details":"Leaves the contract without owner. It will not be possible to call `onlyOwner` functions. Can only be called by the current owner. NOTE: Renouncing ownership will leave the contract without an owner, thereby disabling any functionality that is only available to the owner."},"transferOwnership(address)":{"details":"Transfers ownership of the contract to a new account (`newOwner`). Can only be called by the current owner."}},"version":1},"evm":{"bytecode":{"linkReferences":{},"object":"608080604052346100165761169f908161001c8239f35b600080fdfe608080604052600436101561001357600080fd5b60003560e01c9081634f020ec81461105e57508063715018a614610fa05780638129fc1c14610cec578063851e69af14610bd15780638da5cb5b14610b605780639da68881146108a6578063af868dac14610269578063e5c2905e146101ee578063f198bb7c146100f45763f2fde38b1461008d57600080fd5b346100ef5760207ffffffffffffffffffffffffffffffffffffffffffffffffffffffffffffffffc3601126100ef5760043573ffffffffffffffffffffffffffffffffffffffff811681036100ef576100ed906100e86115a0565b6114dd565b005b600080fd5b346100ef5760407ffffffffffffffffffffffffffffffffffffffffffffffffffffffffffffffffc3601126100ef5767ffffffffffffffff6004358181116100ef576101449036906004016112fa565b6024359182116100ef57602061019a9161017d826101696101d69636906004016112fa565b9281604051938285809451938492016111d2565b8101600081520301902082604051948386809551938492016111d2565b8201908152030190206101ac8161136b565b906101e460026101be6001840161136b565b920154916040519485946060865260608601906111f5565b9084820360208601526111f5565b9060408301520390f35b346100ef5760207ffffffffffffffffffffffffffffffffffffffffffffffffffffffffffffffffc3601126100ef5760043567ffffffffffffffff81116100ef576102566020610243819336906004016112fa565b81604051938285809451938492016111d2565b8101600281520301902054604051908152f35b346100ef5760807ffffffffffffffffffffffffffffffffffffffffffffffffffffffffffffffffc3601126100ef5760043567ffffffffffffffff81116100ef576102b89036906004016111a4565b9060243567ffffffffffffffff81116100ef576102d99036906004016111a4565b929060443567ffffffffffffffff81116100ef576102fb9036906004016111a4565b949060643567ffffffffffffffff81116100ef5761031d9036906004016111a4565b90916103276115a0565b61034f610349604051888a82376020818a81016000815203019020868861142f565b54611318565b156106da575b9061037261037b93926040519961036b8b611238565b3691611295565b88523691611295565b602086019081524260408701526103a7604051858782376020818781016000815203019020838561142f565b90865180519067ffffffffffffffff82116105fc576103d0826103ca8654611318565b86611487565b602090601f83116001146106365761041e92916000918361062b575b50507fffffffffffffffffffffffffffffffffffffffffffffffffffffffffffffffff8260011b9260031b1c19161790565b82555b5195865167ffffffffffffffff81116105fc5761044e816104456001860154611318565b60018601611487565b6020601f8211600114610507576104f7959493926104c7836002946040947f8ca29c64697f1118d070b0a2b93f2f864a0f71398ac22ddd7d39dea7938049459d6000926104fc5750507fffffffffffffffffffffffffffffffffffffffffffffffffffffffffffffffff8260011b9260031b1c19161790565b60018501555b01519101556104e9604051958695604087526040870191611448565b918483036020860152611448565b0390a1005b015190508d806103ec565b6001840160005260206000209860005b7fffffffffffffffffffffffffffffffffffffffffffffffffffffffffffffffe0841681106105e45750926001837f8ca29c64697f1118d070b0a2b93f2f864a0f71398ac22ddd7d39dea7938049459b6040946104f79a999897837fffffffffffffffffffffffffffffffffffffffffffffffffffffffffffffffe060029916106105ad575b505050811b0160018501556104cd565b01517fffffffffffffffffffffffffffffffffffffffffffffffffffffffffffffffff60f88460031b161c191690558c808061059d565b828201518b556001909a019960209283019201610517565b7f4e487b7100000000000000000000000000000000000000000000000000000000600052604160045260246000fd5b015190508a806103ec565b907fffffffffffffffffffffffffffffffffffffffffffffffffffffffffffffffe08316918560005260206000209260005b8181106106c2575090846001959493921061068b575b505050811b018255610421565b01517fffffffffffffffffffffffffffffffffffffffffffffffffffffffffffffffff60f88460031b161c1916905589808061067e565b92936020600181928786015181550195019301610668565b604051868882376020818881016001815203019020805490680100000000000000008210156105fc57600182018082558210156108775760005260206000200167ffffffffffffffff85116105fc5761073d856107378354611318565b83611487565b846000601f82116001146107ac57916107948261037b97969593610372956000916107a1575b507fffffffffffffffffffffffffffffffffffffffffffffffffffffffffffffffff8260011b9260031b1c19161790565b90555b9192935050610355565b90508a01358e610763565b60008381526020812092505b7fffffffffffffffffffffffffffffffffffffffffffffffffffffffffffffffe08816811061085f57509161037b9594939161037293887fffffffffffffffffffffffffffffffffffffffffffffffffffffffffffffffe0811610610827575b5050600187811b019055610797565b7fffffffffffffffffffffffffffffffffffffffffffffffffffffffffffffffff60f88a60031b161c19908a01351690558b80610818565b9091602060018192858c0135815501930191016107b8565b7f4e487b7100000000000000000000000000000000000000000000000000000000600052603260045260246000fd5b346100ef5760407ffffffffffffffffffffffffffffffffffffffffffffffffffffffffffffffffc3601126100ef5767ffffffffffffffff6004358181116100ef576108f69036906004016111a4565b906024359283116100ef5761091261094e9336906004016111a4565b93906040519461092186611238565b6060865260006040602097606089820152015260405185858237868187810160008152030190209161142f565b6040519261095b84611238565b6109648261136b565b845260026109746001840161136b565b92868601938452015492604085019380855215610b0257859082604051938492833781016002815203019020548015610aa4578251908101809111610a75574211610a1757610a0c906109db606095604051968796828852519187015260808601906111f5565b90517fffffffffffffffffffffffffffffffffffffffffffffffffffffffffffffffe08583030160408601526111f5565b905160608301520390f35b606484604051907f08c379a00000000000000000000000000000000000000000000000000000000082526004820152600b60248201527f42696420657870697265640000000000000000000000000000000000000000006044820152fd5b7f4e487b7100000000000000000000000000000000000000000000000000000000600052601160045260246000fd5b606485604051907f08c379a00000000000000000000000000000000000000000000000000000000082526004820152601660248201527f53657373696f6e2077696e646f77206e6f7420736574000000000000000000006044820152fd5b606486604051907f08c379a00000000000000000000000000000000000000000000000000000000082526004820152601260248201527f42696420646f6573206e6f7420657869737400000000000000000000000000006044820152fd5b346100ef5760007ffffffffffffffffffffffffffffffffffffffffffffffffffffffffffffffffc3601126100ef57602073ffffffffffffffffffffffffffffffffffffffff7f9016d09d72d40fdae2fd8ceac6b6234c7706214fd39c1cd1e609a0528c1993005416604051908152f35b346100ef5760407ffffffffffffffffffffffffffffffffffffffffffffffffffffffffffffffffc3601126100ef5760043567ffffffffffffffff81116100ef57610c209036906004016111a4565b9060243591610c2d6115a0565b8215610c8e57827fea426717d80d84d12bd275c2d5c8dbe1a35b413bddba1584b3cbbda080f781779360405183858237602081858101600281520301902055610c83604051938493604085526040850191611448565b9060208301520390a1005b60646040517f08c379a000000000000000000000000000000000000000000000000000000000815260206004820152601960248201527f4475726174696f6e206d75737420626520706f736974697665000000000000006044820152fd5b346100ef5760007ffffffffffffffffffffffffffffffffffffffffffffffffffffffffffffffffc3601126100ef577ff0c57e16840df040f15088dc2f81fe391c3923bec73e23a9662efc9c229c6a0080549060ff8260401c161567ffffffffffffffff80841693841580610f99575b60018096149081610f8f575b159081610f86575b50610f0c577fffffffffffffffffffffffffffffffffffffffffffffffff0000000000000000908386838316178655610f51575b5083549060ff8260401c16159282168681159182610f49575b149081610f3f575b159081610f36575b50610f0c5781168517845581610ed7575b50610de7611610565b610def611610565b610df8336114dd565b610e00611610565b837f9b779b17422d0df92223018b32b4d1fa46e071723d6817e2486d003becc55f0055610e82575b610e2e57005b7fc7f505b2f371ae2175ee4913f4499e1f2633a7b5936321eed1cdaeb6115181d291817fffffffffffffffffffffffffffffffffffffffffffffff00ffffffffffffffff60209354169055604051908152a1005b7fffffffffffffffffffffffffffffffffffffffffffffff00ffffffffffffffff82541682557fc7f505b2f371ae2175ee4913f4499e1f2633a7b5936321eed1cdaeb6115181d26020604051858152a1610e28565b7fffffffffffffffffffffffffffffffffffffffffffffff000000000000000000166801000000000000000117835584610dde565b60046040517ff92ee8a9000000000000000000000000000000000000000000000000000000008152fd5b90501587610dcd565b303b159150610dc5565b859250610dbd565b7fffffffffffffffffffffffffffffffffffffffffffffff000000000000000000166801000000000000000117845585610da4565b90501586610d70565b303b159150610d68565b5082610d5c565b346100ef5760007ffffffffffffffffffffffffffffffffffffffffffffffffffffffffffffffffc3601126100ef57610fd76115a0565b600073ffffffffffffffffffffffffffffffffffffffff7f9016d09d72d40fdae2fd8ceac6b6234c7706214fd39c1cd1e609a0528c1993008054907fffffffffffffffffffffffff000000000000000000000000000000000000000082169055167f8be0079c531659141344cd1fd0a4f28419497f9722a3daafe3b4186f6b6457e08280a3005b346100ef576020807ffffffffffffffffffffffffffffffffffffffffffffffffffffffffffffffffc3601126100ef5767ffffffffffffffff6004358181116100ef576110af9036906004016111a4565b80918537830192828160019560018152030190209081549081116105fc578383604051926110e2828260051b0185611254565b8084528184018095600052826000206000915b83831061117b5750505050604051928184019082855251809152604084019160408260051b86010195926000905b8382106111305786880387f35b9091929394838061116a8a7fffffffffffffffffffffffffffffffffffffffffffffffffffffffffffffffc08b869d0301865289516111f5565b999701959493919091019101611123565b90858086819a989594611190859b999b61136b565b8152019201920192509694969593956110f5565b9181601f840112156100ef5782359167ffffffffffffffff83116100ef57602083818601950101116100ef57565b60005b8381106111e55750506000910152565b81810151838201526020016111d5565b907fffffffffffffffffffffffffffffffffffffffffffffffffffffffffffffffe0601f602093611231815180928187528780880191016111d2565b0116010190565b6060810190811067ffffffffffffffff8211176105fc57604052565b90601f7fffffffffffffffffffffffffffffffffffffffffffffffffffffffffffffffe0910116810190811067ffffffffffffffff8211176105fc57604052565b92919267ffffffffffffffff82116105fc57604051916112dd60207fffffffffffffffffffffffffffffffffffffffffffffffffffffffffffffffe0601f8401160184611254565b8294818452818301116100ef578281602093846000960137010152565b9080601f830112156100ef5781602061131593359101611295565b90565b90600182811c92168015611361575b602083101461133257565b7f4e487b7100000000000000000000000000000000000000000000000000000000600052602260045260246000fd5b91607f1691611327565b9060405191826000825461137e81611318565b908184526020946001916001811690816000146113ee57506001146113af575b5050506113ad92500383611254565b565b600090815285812095935091905b8183106113d65750506113ad935082010138808061139e565b855488840185015294850194879450918301916113bd565b9150506113ad9593507fffffffffffffffffffffffffffffffffffffffffffffffffffffffffffffff0091501682840152151560051b82010138808061139e565b6020919283604051948593843782019081520301902090565b601f82602094937fffffffffffffffffffffffffffffffffffffffffffffffffffffffffffffffe0938186528686013760008582860101520116010190565b90601f811161149557505050565b6000916000526020600020906020601f850160051c830194106114d3575b601f0160051c01915b8281106114c857505050565b8181556001016114bc565b90925082906114b3565b73ffffffffffffffffffffffffffffffffffffffff80911690811561156f577f9016d09d72d40fdae2fd8ceac6b6234c7706214fd39c1cd1e609a0528c199300805490837fffffffffffffffffffffffff00000000000000000000000000000000000000008316179055167f8be0079c531659141344cd1fd0a4f28419497f9722a3daafe3b4186f6b6457e0600080a3565b60246040517f1e4fbdf700000000000000000000000000000000000000000000000000000000815260006004820152fd5b73ffffffffffffffffffffffffffffffffffffffff7f9016d09d72d40fdae2fd8ceac6b6234c7706214fd39c1cd1e609a0528c199300541633036115e057565b60246040517f118cdaa7000000000000000000000000000000000000000000000000000000008152336004820152fd5b60ff7ff0c57e16840df040f15088dc2f81fe391c3923bec73e23a9662efc9c229c6a005460401c161561163f57565b60046040517fd7e6bcf8000000000000000000000000000000000000000000000000000000008152fdfea26469706673582212208a8451ee183acee9465b9499b6daef093926ac066d1e7bf5370950a5451bc1e964736f6c63430008180033","opcodes":"PUSH1 0x80 DUP1 PUSH1 0x40 MSTORE CALLVALUE PUSH2 0x16 JUMPI PUSH2 0x169F SWAP1 DUP2 PUSH2 0x1C DUP3 CODECOPY RETURN JUMPDEST PUSH1 0x0 DUP1 REVERT INVALID PUSH1 0x80 DUP1 PUSH1 0x40 MSTORE PUSH1 0x4 CALLDATASIZE LT ISZERO PUSH2 0x13 JUMPI PUSH1 0x0 DUP1 REVERT JUMPDEST PUSH1 0x0 CALLDATALOAD PUSH1 0xE0 SHR SWAP1 DUP2 PUSH4 0x4F020EC8 EQ PUSH2 0x105E JUMPI POP DUP1 PUSH4 0x715018A6 EQ PUSH2 0xFA0 JUMPI DUP1 PUSH4 0x8129FC1C EQ PUSH2 0xCEC JUMPI DUP1 PUSH4 0x851E69AF EQ PUSH2 0xBD1 JUMPI DUP1 PUSH4 0x8DA5CB5B EQ PUSH2 0xB60 JUMPI DUP1 PUSH4 0x9DA68881 EQ PUSH2 0x8A6 JUMPI DUP1 PUSH4 0xAF868DAC EQ PUSH2 0x269 JUMPI DUP1 PUSH4 0xE5C2905E EQ PUSH2 0x1EE JUMPI DUP1 PUSH4 0xF198BB7C EQ PUSH2 0xF4 JUMPI PUSH4 0xF2FDE38B EQ PUSH2 0x8D JUMPI PUSH1 0x0 DUP1 REVERT JUMPDEST CALLVALUE PUSH2 0xEF JUMPI PUSH1 0x20 PUSH32 0xFFFFFFFFFFFFFFFFFFFFFFFFFFFFFFFFFFFFFFFFFFFFFFFFFFFFFFFFFFFFFFFC CALLDATASIZE ADD SLT PUSH2 0xEF JUMPI PUSH1 0x4 CALLDATALOAD PUSH20 0xFFFFFFFFFFFFFFFFFFFFFFFFFFFFFFFFFFFFFFFF DUP2 AND DUP2 SUB PUSH2 0xEF JUMPI PUSH2 0xED SWAP1 PUSH2 0xE8 PUSH2 0x15A0 JUMP JUMPDEST PUSH2 0x14DD JUMP JUMPDEST STOP JUMPDEST PUSH1 0x0 DUP1 REVERT JUMPDEST CALLVALUE PUSH2 0xEF JUMPI PUSH1 0x40 PUSH32 0xFFFFFFFFFFFFFFFFFFFFFFFFFFFFFFFFFFFFFFFFFFFFFFFFFFFFFFFFFFFFFFFC CALLDATASIZE ADD SLT PUSH2 0xEF JUMPI PUSH8 0xFFFFFFFFFFFFFFFF PUSH1 0x4 CALLDATALOAD DUP2 DUP2 GT PUSH2 0xEF JUMPI PUSH2 0x144 SWAP1 CALLDATASIZE SWAP1 PUSH1 0x4 ADD PUSH2 0x12FA JUMP JUMPDEST PUSH1 0x24 CALLDATALOAD SWAP2 DUP3 GT PUSH2 0xEF JUMPI PUSH1 0x20 PUSH2 0x19A SWAP2 PUSH2 0x17D DUP3 PUSH2 0x169 PUSH2 0x1D6 SWAP7 CALLDATASIZE SWAP1 PUSH1 0x4 ADD PUSH2 0x12FA JUMP JUMPDEST SWAP3 DUP2 PUSH1 0x40 MLOAD SWAP4 DUP3 DUP6 DUP1 SWAP5 MLOAD SWAP4 DUP5 SWAP3 ADD PUSH2 0x11D2 JUMP JUMPDEST DUP2 ADD PUSH1 0x0 DUP2 MSTORE SUB ADD SWAP1 KECCAK256 DUP3 PUSH1 0x40 MLOAD SWAP5 DUP4 DUP7 DUP1 SWAP6 MLOAD SWAP4 DUP5 SWAP3 ADD PUSH2 0x11D2 JUMP JUMPDEST DUP3 ADD SWAP1 DUP2 MSTORE SUB ADD SWAP1 KECCAK256 PUSH2 0x1AC DUP2 PUSH2 0x136B JUMP JUMPDEST SWAP1 PUSH2 0x1E4 PUSH1 0x2 PUSH2 0x1BE PUSH1 0x1 DUP5 ADD PUSH2 0x136B JUMP JUMPDEST SWAP3 ADD SLOAD SWAP2 PUSH1 0x40 MLOAD SWAP5 DUP6 SWAP5 PUSH1 0x60 DUP7 MSTORE PUSH1 0x60 DUP7 ADD SWAP1 PUSH2 0x11F5 JUMP JUMPDEST SWAP1 DUP5 DUP3 SUB PUSH1 0x20 DUP7 ADD MSTORE PUSH2 0x11F5 JUMP JUMPDEST SWAP1 PUSH1 0x40 DUP4 ADD MSTORE SUB SWAP1 RETURN JUMPDEST CALLVALUE PUSH2 0xEF JUMPI PUSH1 0x20 PUSH32 0xFFFFFFFFFFFFFFFFFFFFFFFFFFFFFFFFFFFFFFFFFFFFFFFFFFFFFFFFFFFFFFFC CALLDATASIZE ADD SLT PUSH2 0xEF JUMPI PUSH1 0x4 CALLDATALOAD PUSH8 0xFFFFFFFFFFFFFFFF DUP2 GT PUSH2 0xEF JUMPI PUSH2 0x256 PUSH1 0x20 PUSH2 0x243 DUP2 SWAP4 CALLDATASIZE SWAP1 PUSH1 0x4 ADD PUSH2 0x12FA JUMP JUMPDEST DUP2 PUSH1 0x40 MLOAD SWAP4 DUP3 DUP6 DUP1 SWAP5 MLOAD SWAP4 DUP5 SWAP3 ADD PUSH2 0x11D2 JUMP JUMPDEST DUP2 ADD PUSH1 0x2 DUP2 MSTORE SUB ADD SWAP1 KECCAK256 SLOAD PUSH1 0x40 MLOAD SWAP1 DUP2 MSTORE RETURN JUMPDEST CALLVALUE PUSH2 0xEF JUMPI PUSH1 0x80 PUSH32 0xFFFFFFFFFFFFFFFFFFFFFFFFFFFFFFFFFFFFFFFFFFFFFFFFFFFFFFFFFFFFFFFC CALLDATASIZE ADD SLT PUSH2 0xEF JUMPI PUSH1 0x4 CALLDATALOAD PUSH8 0xFFFFFFFFFFFFFFFF DUP2 GT PUSH2 0xEF JUMPI PUSH2 0x2B8 SWAP1 CALLDATASIZE SWAP1 PUSH1 0x4 ADD PUSH2 0x11A4 JUMP JUMPDEST SWAP1 PUSH1 0x24 CALLDATALOAD PUSH8 0xFFFFFFFFFFFFFFFF DUP2 GT PUSH2 0xEF JUMPI PUSH2 0x2D9 SWAP1 CALLDATASIZE SWAP1 PUSH1 0x4 ADD PUSH2 0x11A4 JUMP JUMPDEST SWAP3 SWAP1 PUSH1 0x44 CALLDATALOAD PUSH8 0xFFFFFFFFFFFFFFFF DUP2 GT PUSH2 0xEF JUMPI PUSH2 0x2FB SWAP1 CALLDATASIZE SWAP1 PUSH1 0x4 ADD PUSH2 0x11A4 JUMP JUMPDEST SWAP5 SWAP1 PUSH1 0x64 CALLDATALOAD PUSH8 0xFFFFFFFFFFFFFFFF DUP2 GT PUSH2 0xEF JUMPI PUSH2 0x31D SWAP1 CALLDATASIZE SWAP1 PUSH1 0x4 ADD PUSH2 0x11A4 JUMP JUMPDEST SWAP1 SWAP2 PUSH2 0x327 PUSH2 0x15A0 JUMP JUMPDEST PUSH2 0x34F PUSH2 0x349 PUSH1 0x40 MLOAD DUP9 DUP11 DUP3 CALLDATACOPY PUSH1 0x20 DUP2 DUP11 DUP2 ADD PUSH1 0x0 DUP2 MSTORE SUB ADD SWAP1 KECCAK256 DUP7 DUP9 PUSH2 0x142F JUMP JUMPDEST SLOAD PUSH2 0x1318 JUMP JUMPDEST ISZERO PUSH2 0x6DA JUMPI JUMPDEST SWAP1 PUSH2 0x372 PUSH2 0x37B SWAP4 SWAP3 PUSH1 0x40 MLOAD SWAP10 PUSH2 0x36B DUP12 PUSH2 0x1238 JUMP JUMPDEST CALLDATASIZE SWAP2 PUSH2 0x1295 JUMP JUMPDEST DUP9 MSTORE CALLDATASIZE SWAP2 PUSH2 0x1295 JUMP JUMPDEST PUSH1 0x20 DUP7 ADD SWAP1 DUP2 MSTORE TIMESTAMP PUSH1 0x40 DUP8 ADD MSTORE PUSH2 0x3A7 PUSH1 0x40 MLOAD DUP6 DUP8 DUP3 CALLDATACOPY PUSH1 0x20 DUP2 DUP8 DUP2 ADD PUSH1 0x0 DUP2 MSTORE SUB ADD SWAP1 KECCAK256 DUP4 DUP6 PUSH2 0x142F JUMP JUMPDEST SWAP1 DUP7 MLOAD DUP1 MLOAD SWAP1 PUSH8 0xFFFFFFFFFFFFFFFF DUP3 GT PUSH2 0x5FC JUMPI PUSH2 0x3D0 DUP3 PUSH2 0x3CA DUP7 SLOAD PUSH2 0x1318 JUMP JUMPDEST DUP7 PUSH2 0x1487 JUMP JUMPDEST PUSH1 0x20 SWAP1 PUSH1 0x1F DUP4 GT PUSH1 0x1 EQ PUSH2 0x636 JUMPI PUSH2 0x41E SWAP3 SWAP2 PUSH1 0x0 SWAP2 DUP4 PUSH2 0x62B JUMPI JUMPDEST POP POP PUSH32 0xFFFFFFFFFFFFFFFFFFFFFFFFFFFFFFFFFFFFFFFFFFFFFFFFFFFFFFFFFFFFFFFF DUP3 PUSH1 0x1 SHL SWAP3 PUSH1 0x3 SHL SHR NOT AND OR SWAP1 JUMP JUMPDEST DUP3 SSTORE JUMPDEST MLOAD SWAP6 DUP7 MLOAD PUSH8 0xFFFFFFFFFFFFFFFF DUP2 GT PUSH2 0x5FC JUMPI PUSH2 0x44E DUP2 PUSH2 0x445 PUSH1 0x1 DUP7 ADD SLOAD PUSH2 0x1318 JUMP JUMPDEST PUSH1 0x1 DUP7 ADD PUSH2 0x1487 JUMP JUMPDEST PUSH1 0x20 PUSH1 0x1F DUP3 GT PUSH1 0x1 EQ PUSH2 0x507 JUMPI PUSH2 0x4F7 SWAP6 SWAP5 SWAP4 SWAP3 PUSH2 0x4C7 DUP4 PUSH1 0x2 SWAP5 PUSH1 0x40 SWAP5 PUSH32 0x8CA29C64697F1118D070B0A2B93F2F864A0F71398AC22DDD7D39DEA793804945 SWAP14 PUSH1 0x0 SWAP3 PUSH2 0x4FC JUMPI POP POP PUSH32 0xFFFFFFFFFFFFFFFFFFFFFFFFFFFFFFFFFFFFFFFFFFFFFFFFFFFFFFFFFFFFFFFF DUP3 PUSH1 0x1 SHL SWAP3 PUSH1 0x3 SHL SHR NOT AND OR SWAP1 JUMP JUMPDEST PUSH1 0x1 DUP6 ADD SSTORE JUMPDEST ADD MLOAD SWAP2 ADD SSTORE PUSH2 0x4E9 PUSH1 0x40 MLOAD SWAP6 DUP7 SWAP6 PUSH1 0x40 DUP8 MSTORE PUSH1 0x40 DUP8 ADD SWAP2 PUSH2 0x1448 JUMP JUMPDEST SWAP2 DUP5 DUP4 SUB PUSH1 0x20 DUP7 ADD MSTORE PUSH2 0x1448 JUMP JUMPDEST SUB SWAP1 LOG1 STOP JUMPDEST ADD MLOAD SWAP1 POP DUP14 DUP1 PUSH2 0x3EC JUMP JUMPDEST PUSH1 0x1 DUP5 ADD PUSH1 0x0 MSTORE PUSH1 0x20 PUSH1 0x0 KECCAK256 SWAP9 PUSH1 0x0 JUMPDEST PUSH32 0xFFFFFFFFFFFFFFFFFFFFFFFFFFFFFFFFFFFFFFFFFFFFFFFFFFFFFFFFFFFFFFE0 DUP5 AND DUP2 LT PUSH2 0x5E4 JUMPI POP SWAP3 PUSH1 0x1 DUP4 PUSH32 0x8CA29C64697F1118D070B0A2B93F2F864A0F71398AC22DDD7D39DEA793804945 SWAP12 PUSH1 0x40 SWAP5 PUSH2 0x4F7 SWAP11 SWAP10 SWAP9 SWAP8 DUP4 PUSH32 0xFFFFFFFFFFFFFFFFFFFFFFFFFFFFFFFFFFFFFFFFFFFFFFFFFFFFFFFFFFFFFFE0 PUSH1 0x2 SWAP10 AND LT PUSH2 0x5AD JUMPI JUMPDEST POP POP POP DUP2 SHL ADD PUSH1 0x1 DUP6 ADD SSTORE PUSH2 0x4CD JUMP JUMPDEST ADD MLOAD PUSH32 0xFFFFFFFFFFFFFFFFFFFFFFFFFFFFFFFFFFFFFFFFFFFFFFFFFFFFFFFFFFFFFFFF PUSH1 0xF8 DUP5 PUSH1 0x3 SHL AND SHR NOT AND SWAP1 SSTORE DUP13 DUP1 DUP1 PUSH2 0x59D JUMP JUMPDEST DUP3 DUP3 ADD MLOAD DUP12 SSTORE PUSH1 0x1 SWAP1 SWAP11 ADD SWAP10 PUSH1 0x20 SWAP3 DUP4 ADD SWAP3 ADD PUSH2 0x517 JUMP JUMPDEST PUSH32 0x4E487B7100000000000000000000000000000000000000000000000000000000 PUSH1 0x0 MSTORE PUSH1 0x41 PUSH1 0x4 MSTORE PUSH1 0x24 PUSH1 0x0 REVERT JUMPDEST ADD MLOAD SWAP1 POP DUP11 DUP1 PUSH2 0x3EC JUMP JUMPDEST SWAP1 PUSH32 0xFFFFFFFFFFFFFFFFFFFFFFFFFFFFFFFFFFFFFFFFFFFFFFFFFFFFFFFFFFFFFFE0 DUP4 AND SWAP2 DUP6 PUSH1 0x0 MSTORE PUSH1 0x20 PUSH1 0x0 KECCAK256 SWAP3 PUSH1 0x0 JUMPDEST DUP2 DUP2 LT PUSH2 0x6C2 JUMPI POP SWAP1 DUP5 PUSH1 0x1 SWAP6 SWAP5 SWAP4 SWAP3 LT PUSH2 0x68B JUMPI JUMPDEST POP POP POP DUP2 SHL ADD DUP3 SSTORE PUSH2 0x421 JUMP JUMPDEST ADD MLOAD PUSH32 0xFFFFFFFFFFFFFFFFFFFFFFFFFFFFFFFFFFFFFFFFFFFFFFFFFFFFFFFFFFFFFFFF PUSH1 0xF8 DUP5 PUSH1 0x3 SHL AND SHR NOT AND SWAP1 SSTORE DUP10 DUP1 DUP1 PUSH2 0x67E JUMP JUMPDEST SWAP3 SWAP4 PUSH1 0x20 PUSH1 0x1 DUP2 SWAP3 DUP8 DUP7 ADD MLOAD DUP2 SSTORE ADD SWAP6 ADD SWAP4 ADD PUSH2 0x668 JUMP JUMPDEST PUSH1 0x40 MLOAD DUP7 DUP9 DUP3 CALLDATACOPY PUSH1 0x20 DUP2 DUP9 DUP2 ADD PUSH1 0x1 DUP2 MSTORE SUB ADD SWAP1 KECCAK256 DUP1 SLOAD SWAP1 PUSH9 0x10000000000000000 DUP3 LT ISZERO PUSH2 0x5FC JUMPI PUSH1 0x1 DUP3 ADD DUP1 DUP3 SSTORE DUP3 LT ISZERO PUSH2 0x877 JUMPI PUSH1 0x0 MSTORE PUSH1 0x20 PUSH1 0x0 KECCAK256 ADD PUSH8 0xFFFFFFFFFFFFFFFF DUP6 GT PUSH2 0x5FC JUMPI PUSH2 0x73D DUP6 PUSH2 0x737 DUP4 SLOAD PUSH2 0x1318 JUMP JUMPDEST DUP4 PUSH2 0x1487 JUMP JUMPDEST DUP5 PUSH1 0x0 PUSH1 0x1F DUP3 GT PUSH1 0x1 EQ PUSH2 0x7AC JUMPI SWAP2 PUSH2 0x794 DUP3 PUSH2 0x37B SWAP8 SWAP7 SWAP6 SWAP4 PUSH2 0x372 SWAP6 PUSH1 0x0 SWAP2 PUSH2 0x7A1 JUMPI JUMPDEST POP PUSH32 0xFFFFFFFFFFFFFFFFFFFFFFFFFFFFFFFFFFFFFFFFFFFFFFFFFFFFFFFFFFFFFFFF DUP3 PUSH1 0x1 SHL SWAP3 PUSH1 0x3 SHL SHR NOT AND OR SWAP1 JUMP JUMPDEST SWAP1 SSTORE JUMPDEST SWAP2 SWAP3 SWAP4 POP POP PUSH2 0x355 JUMP JUMPDEST SWAP1 POP DUP11 ADD CALLDATALOAD DUP15 PUSH2 0x763 JUMP JUMPDEST PUSH1 0x0 DUP4 DUP2 MSTORE PUSH1 0x20 DUP2 KECCAK256 SWAP3 POP JUMPDEST PUSH32 0xFFFFFFFFFFFFFFFFFFFFFFFFFFFFFFFFFFFFFFFFFFFFFFFFFFFFFFFFFFFFFFE0 DUP9 AND DUP2 LT PUSH2 0x85F JUMPI POP SWAP2 PUSH2 0x37B SWAP6 SWAP5 SWAP4 SWAP2 PUSH2 0x372 SWAP4 DUP9 PUSH32 0xFFFFFFFFFFFFFFFFFFFFFFFFFFFFFFFFFFFFFFFFFFFFFFFFFFFFFFFFFFFFFFE0 DUP2 AND LT PUSH2 0x827 JUMPI JUMPDEST POP POP PUSH1 0x1 DUP8 DUP2 SHL ADD SWAP1 SSTORE PUSH2 0x797 JUMP JUMPDEST PUSH32 0xFFFFFFFFFFFFFFFFFFFFFFFFFFFFFFFFFFFFFFFFFFFFFFFFFFFFFFFFFFFFFFFF PUSH1 0xF8 DUP11 PUSH1 0x3 SHL AND SHR NOT SWAP1 DUP11 ADD CALLDATALOAD AND SWAP1 SSTORE DUP12 DUP1 PUSH2 0x818 JUMP JUMPDEST SWAP1 SWAP2 PUSH1 0x20 PUSH1 0x1 DUP2 SWAP3 DUP6 DUP13 ADD CALLDATALOAD DUP2 SSTORE ADD SWAP4 ADD SWAP2 ADD PUSH2 0x7B8 JUMP JUMPDEST PUSH32 0x4E487B7100000000000000000000000000000000000000000000000000000000 PUSH1 0x0 MSTORE PUSH1 0x32 PUSH1 0x4 MSTORE PUSH1 0x24 PUSH1 0x0 REVERT JUMPDEST CALLVALUE PUSH2 0xEF JUMPI PUSH1 0x40 PUSH32 0xFFFFFFFFFFFFFFFFFFFFFFFFFFFFFFFFFFFFFFFFFFFFFFFFFFFFFFFFFFFFFFFC CALLDATASIZE ADD SLT PUSH2 0xEF JUMPI PUSH8 0xFFFFFFFFFFFFFFFF PUSH1 0x4 CALLDATALOAD DUP2 DUP2 GT PUSH2 0xEF JUMPI PUSH2 0x8F6 SWAP1 CALLDATASIZE SWAP1 PUSH1 0x4 ADD PUSH2 0x11A4 JUMP JUMPDEST SWAP1 PUSH1 0x24 CALLDATALOAD SWAP3 DUP4 GT PUSH2 0xEF JUMPI PUSH2 0x912 PUSH2 0x94E SWAP4 CALLDATASIZE SWAP1 PUSH1 0x4 ADD PUSH2 0x11A4 JUMP JUMPDEST SWAP4 SWAP1 PUSH1 0x40 MLOAD SWAP5 PUSH2 0x921 DUP7 PUSH2 0x1238 JUMP JUMPDEST PUSH1 0x60 DUP7 MSTORE PUSH1 0x0 PUSH1 0x40 PUSH1 0x20 SWAP8 PUSH1 0x60 DUP10 DUP3 ADD MSTORE ADD MSTORE PUSH1 0x40 MLOAD DUP6 DUP6 DUP3 CALLDATACOPY DUP7 DUP2 DUP8 DUP2 ADD PUSH1 0x0 DUP2 MSTORE SUB ADD SWAP1 KECCAK256 SWAP2 PUSH2 0x142F JUMP JUMPDEST PUSH1 0x40 MLOAD SWAP3 PUSH2 0x95B DUP5 PUSH2 0x1238 JUMP JUMPDEST PUSH2 0x964 DUP3 PUSH2 0x136B JUMP JUMPDEST DUP5 MSTORE PUSH1 0x2 PUSH2 0x974 PUSH1 0x1 DUP5 ADD PUSH2 0x136B JUMP JUMPDEST SWAP3 DUP7 DUP7 ADD SWAP4 DUP5 MSTORE ADD SLOAD SWAP3 PUSH1 0x40 DUP6 ADD SWAP4 DUP1 DUP6 MSTORE ISZERO PUSH2 0xB02 JUMPI DUP6 SWAP1 DUP3 PUSH1 0x40 MLOAD SWAP4 DUP5 SWAP3 DUP4 CALLDATACOPY DUP2 ADD PUSH1 0x2 DUP2 MSTORE SUB ADD SWAP1 KECCAK256 SLOAD DUP1 ISZERO PUSH2 0xAA4 JUMPI DUP3 MLOAD SWAP1 DUP2 ADD DUP1 SWAP2 GT PUSH2 0xA75 JUMPI TIMESTAMP GT PUSH2 0xA17 JUMPI PUSH2 0xA0C SWAP1 PUSH2 0x9DB PUSH1 0x60 SWAP6 PUSH1 0x40 MLOAD SWAP7 DUP8 SWAP7 DUP3 DUP9 MSTORE MLOAD SWAP2 DUP8 ADD MSTORE PUSH1 0x80 DUP7 ADD SWAP1 PUSH2 0x11F5 JUMP JUMPDEST SWAP1 MLOAD PUSH32 0xFFFFFFFFFFFFFFFFFFFFFFFFFFFFFFFFFFFFFFFFFFFFFFFFFFFFFFFFFFFFFFE0 DUP6 DUP4 SUB ADD PUSH1 0x40 DUP7 ADD MSTORE PUSH2 0x11F5 JUMP JUMPDEST SWAP1 MLOAD PUSH1 0x60 DUP4 ADD MSTORE SUB SWAP1 RETURN JUMPDEST PUSH1 0x64 DUP5 PUSH1 0x40 MLOAD SWAP1 PUSH32 0x8C379A000000000000000000000000000000000000000000000000000000000 DUP3 MSTORE PUSH1 0x4 DUP3 ADD MSTORE PUSH1 0xB PUSH1 0x24 DUP3 ADD MSTORE PUSH32 0x4269642065787069726564000000000000000000000000000000000000000000 PUSH1 0x44 DUP3 ADD MSTORE REVERT JUMPDEST PUSH32 0x4E487B7100000000000000000000000000000000000000000000000000000000 PUSH1 0x0 MSTORE PUSH1 0x11 PUSH1 0x4 MSTORE PUSH1 0x24 PUSH1 0x0 REVERT JUMPDEST PUSH1 0x64 DUP6 PUSH1 0x40 MLOAD SWAP1 PUSH32 0x8C379A000000000000000000000000000000000000000000000000000000000 DUP3 MSTORE PUSH1 0x4 DUP3 ADD MSTORE PUSH1 0x16 PUSH1 0x24 DUP3 ADD MSTORE PUSH32 0x53657373696F6E2077696E646F77206E6F742073657400000000000000000000 PUSH1 0x44 DUP3 ADD MSTORE REVERT JUMPDEST PUSH1 0x64 DUP7 PUSH1 0x40 MLOAD SWAP1 PUSH32 0x8C379A000000000000000000000000000000000000000000000000000000000 DUP3 MSTORE PUSH1 0x4 DUP3 ADD MSTORE PUSH1 0x12 PUSH1 0x24 DUP3 ADD MSTORE PUSH32 0x42696420646F6573206E6F742065786973740000000000000000000000000000 PUSH1 0x44 DUP3 ADD MSTORE REVERT JUMPDEST CALLVALUE PUSH2 0xEF JUMPI PUSH1 0x0 PUSH32 0xFFFFFFFFFFFFFFFFFFFFFFFFFFFFFFFFFFFFFFFFFFFFFFFFFFFFFFFFFFFFFFFC CALLDATASIZE ADD SLT PUSH2 0xEF JUMPI PUSH1 0x20 PUSH20 0xFFFFFFFFFFFFFFFFFFFFFFFFFFFFFFFFFFFFFFFF PUSH32 0x9016D09D72D40FDAE2FD8CEAC6B6234C7706214FD39C1CD1E609A0528C199300 SLOAD AND PUSH1 0x40 MLOAD SWAP1 DUP2 MSTORE RETURN JUMPDEST CALLVALUE PUSH2 0xEF JUMPI PUSH1 0x40 PUSH32 0xFFFFFFFFFFFFFFFFFFFFFFFFFFFFFFFFFFFFFFFFFFFFFFFFFFFFFFFFFFFFFFFC CALLDATASIZE ADD SLT PUSH2 0xEF JUMPI PUSH1 0x4 CALLDATALOAD PUSH8 0xFFFFFFFFFFFFFFFF DUP2 GT PUSH2 0xEF JUMPI PUSH2 0xC20 SWAP1 CALLDATASIZE SWAP1 PUSH1 0x4 ADD PUSH2 0x11A4 JUMP JUMPDEST SWAP1 PUSH1 0x24 CALLDATALOAD SWAP2 PUSH2 0xC2D PUSH2 0x15A0 JUMP JUMPDEST DUP3 ISZERO PUSH2 0xC8E JUMPI DUP3 PUSH32 0xEA426717D80D84D12BD275C2D5C8DBE1A35B413BDDBA1584B3CBBDA080F78177 SWAP4 PUSH1 0x40 MLOAD DUP4 DUP6 DUP3 CALLDATACOPY PUSH1 0x20 DUP2 DUP6 DUP2 ADD PUSH1 0x2 DUP2 MSTORE SUB ADD SWAP1 KECCAK256 SSTORE PUSH2 0xC83 PUSH1 0x40 MLOAD SWAP4 DUP5 SWAP4 PUSH1 0x40 DUP6 MSTORE PUSH1 0x40 DUP6 ADD SWAP2 PUSH2 0x1448 JUMP JUMPDEST SWAP1 PUSH1 0x20 DUP4 ADD MSTORE SUB SWAP1 LOG1 STOP JUMPDEST PUSH1 0x64 PUSH1 0x40 MLOAD PUSH32 0x8C379A000000000000000000000000000000000000000000000000000000000 DUP2 MSTORE PUSH1 0x20 PUSH1 0x4 DUP3 ADD MSTORE PUSH1 0x19 PUSH1 0x24 DUP3 ADD MSTORE PUSH32 0x4475726174696F6E206D75737420626520706F73697469766500000000000000 PUSH1 0x44 DUP3 ADD MSTORE REVERT JUMPDEST CALLVALUE PUSH2 0xEF JUMPI PUSH1 0x0 PUSH32 0xFFFFFFFFFFFFFFFFFFFFFFFFFFFFFFFFFFFFFFFFFFFFFFFFFFFFFFFFFFFFFFFC CALLDATASIZE ADD SLT PUSH2 0xEF JUMPI PUSH32 0xF0C57E16840DF040F15088DC2F81FE391C3923BEC73E23A9662EFC9C229C6A00 DUP1 SLOAD SWAP1 PUSH1 0xFF DUP3 PUSH1 0x40 SHR AND ISZERO PUSH8 0xFFFFFFFFFFFFFFFF DUP1 DUP5 AND SWAP4 DUP5 ISZERO DUP1 PUSH2 0xF99 JUMPI JUMPDEST PUSH1 0x1 DUP1 SWAP7 EQ SWAP1 DUP2 PUSH2 0xF8F JUMPI JUMPDEST ISZERO SWAP1 DUP2 PUSH2 0xF86 JUMPI JUMPDEST POP PUSH2 0xF0C JUMPI PUSH32 0xFFFFFFFFFFFFFFFFFFFFFFFFFFFFFFFFFFFFFFFFFFFFFFFF0000000000000000 SWAP1 DUP4 DUP7 DUP4 DUP4 AND OR DUP7 SSTORE PUSH2 0xF51 JUMPI JUMPDEST POP DUP4 SLOAD SWAP1 PUSH1 0xFF DUP3 PUSH1 0x40 SHR AND ISZERO SWAP3 DUP3 AND DUP7 DUP2 ISZERO SWAP2 DUP3 PUSH2 0xF49 JUMPI JUMPDEST EQ SWAP1 DUP2 PUSH2 0xF3F JUMPI JUMPDEST ISZERO SWAP1 DUP2 PUSH2 0xF36 JUMPI JUMPDEST POP PUSH2 0xF0C JUMPI DUP2 AND DUP6 OR DUP5 SSTORE DUP2 PUSH2 0xED7 JUMPI JUMPDEST POP PUSH2 0xDE7 PUSH2 0x1610 JUMP JUMPDEST PUSH2 0xDEF PUSH2 0x1610 JUMP JUMPDEST PUSH2 0xDF8 CALLER PUSH2 0x14DD JUMP JUMPDEST PUSH2 0xE00 PUSH2 0x1610 JUMP JUMPDEST DUP4 PUSH32 0x9B779B17422D0DF92223018B32B4D1FA46E071723D6817E2486D003BECC55F00 SSTORE PUSH2 0xE82 JUMPI JUMPDEST PUSH2 0xE2E JUMPI STOP JUMPDEST PUSH32 0xC7F505B2F371AE2175EE4913F4499E1F2633A7B5936321EED1CDAEB6115181D2 SWAP2 DUP2 PUSH32 0xFFFFFFFFFFFFFFFFFFFFFFFFFFFFFFFFFFFFFFFFFFFFFF00FFFFFFFFFFFFFFFF PUSH1 0x20 SWAP4 SLOAD AND SWAP1 SSTORE PUSH1 0x40 MLOAD SWAP1 DUP2 MSTORE LOG1 STOP JUMPDEST PUSH32 0xFFFFFFFFFFFFFFFFFFFFFFFFFFFFFFFFFFFFFFFFFFFFFF00FFFFFFFFFFFFFFFF DUP3 SLOAD AND DUP3 SSTORE PUSH32 0xC7F505B2F371AE2175EE4913F4499E1F2633A7B5936321EED1CDAEB6115181D2 PUSH1 0x20 PUSH1 0x40 MLOAD DUP6 DUP2 MSTORE LOG1 PUSH2 0xE28 JUMP JUMPDEST PUSH32 0xFFFFFFFFFFFFFFFFFFFFFFFFFFFFFFFFFFFFFFFFFFFFFF000000000000000000 AND PUSH9 0x10000000000000001 OR DUP4 SSTORE DUP5 PUSH2 0xDDE JUMP JUMPDEST PUSH1 0x4 PUSH1 0x40 MLOAD PUSH32 0xF92EE8A900000000000000000000000000000000000000000000000000000000 DUP2 MSTORE REVERT JUMPDEST SWAP1 POP ISZERO DUP8 PUSH2 0xDCD JUMP JUMPDEST ADDRESS EXTCODESIZE ISZERO SWAP2 POP PUSH2 0xDC5 JUMP JUMPDEST DUP6 SWAP3 POP PUSH2 0xDBD JUMP JUMPDEST PUSH32 0xFFFFFFFFFFFFFFFFFFFFFFFFFFFFFFFFFFFFFFFFFFFFFF000000000000000000 AND PUSH9 0x10000000000000001 OR DUP5 SSTORE DUP6 PUSH2 0xDA4 JUMP JUMPDEST SWAP1 POP ISZERO DUP7 PUSH2 0xD70 JUMP JUMPDEST ADDRESS EXTCODESIZE ISZERO SWAP2 POP PUSH2 0xD68 JUMP JUMPDEST POP DUP3 PUSH2 0xD5C JUMP JUMPDEST CALLVALUE PUSH2 0xEF JUMPI PUSH1 0x0 PUSH32 0xFFFFFFFFFFFFFFFFFFFFFFFFFFFFFFFFFFFFFFFFFFFFFFFFFFFFFFFFFFFFFFFC CALLDATASIZE ADD SLT PUSH2 0xEF JUMPI PUSH2 0xFD7 PUSH2 0x15A0 JUMP JUMPDEST PUSH1 0x0 PUSH20 0xFFFFFFFFFFFFFFFFFFFFFFFFFFFFFFFFFFFFFFFF PUSH32 0x9016D09D72D40FDAE2FD8CEAC6B6234C7706214FD39C1CD1E609A0528C199300 DUP1 SLOAD SWAP1 PUSH32 0xFFFFFFFFFFFFFFFFFFFFFFFF0000000000000000000000000000000000000000 DUP3 AND SWAP1 SSTORE AND PUSH32 0x8BE0079C531659141344CD1FD0A4F28419497F9722A3DAAFE3B4186F6B6457E0 DUP3 DUP1 LOG3 STOP JUMPDEST CALLVALUE PUSH2 0xEF JUMPI PUSH1 0x20 DUP1 PUSH32 0xFFFFFFFFFFFFFFFFFFFFFFFFFFFFFFFFFFFFFFFFFFFFFFFFFFFFFFFFFFFFFFFC CALLDATASIZE ADD SLT PUSH2 0xEF JUMPI PUSH8 0xFFFFFFFFFFFFFFFF PUSH1 0x4 CALLDATALOAD DUP2 DUP2 GT PUSH2 0xEF JUMPI PUSH2 0x10AF SWAP1 CALLDATASIZE SWAP1 PUSH1 0x4 ADD PUSH2 0x11A4 JUMP JUMPDEST DUP1 SWAP2 DUP6 CALLDATACOPY DUP4 ADD SWAP3 DUP3 DUP2 PUSH1 0x1 SWAP6 PUSH1 0x1 DUP2 MSTORE SUB ADD SWAP1 KECCAK256 SWAP1 DUP2 SLOAD SWAP1 DUP2 GT PUSH2 0x5FC JUMPI DUP4 DUP4 PUSH1 0x40 MLOAD SWAP3 PUSH2 0x10E2 DUP3 DUP3 PUSH1 0x5 SHL ADD DUP6 PUSH2 0x1254 JUMP JUMPDEST DUP1 DUP5 MSTORE DUP2 DUP5 ADD DUP1 SWAP6 PUSH1 0x0 MSTORE DUP3 PUSH1 0x0 KECCAK256 PUSH1 0x0 SWAP2 JUMPDEST DUP4 DUP4 LT PUSH2 0x117B JUMPI POP POP POP POP PUSH1 0x40 MLOAD SWAP3 DUP2 DUP5 ADD SWAP1 DUP3 DUP6 MSTORE MLOAD DUP1 SWAP2 MSTORE PUSH1 0x40 DUP5 ADD SWAP2 PUSH1 0x40 DUP3 PUSH1 0x5 SHL DUP7 ADD ADD SWAP6 SWAP3 PUSH1 0x0 SWAP1 JUMPDEST DUP4 DUP3 LT PUSH2 0x1130 JUMPI DUP7 DUP9 SUB DUP8 RETURN JUMPDEST SWAP1 SWAP2 SWAP3 SWAP4 SWAP5 DUP4 DUP1 PUSH2 0x116A DUP11 PUSH32 0xFFFFFFFFFFFFFFFFFFFFFFFFFFFFFFFFFFFFFFFFFFFFFFFFFFFFFFFFFFFFFFC0 DUP12 DUP7 SWAP14 SUB ADD DUP7 MSTORE DUP10 MLOAD PUSH2 0x11F5 JUMP JUMPDEST SWAP10 SWAP8 ADD SWAP6 SWAP5 SWAP4 SWAP2 SWAP1 SWAP2 ADD SWAP2 ADD PUSH2 0x1123 JUMP JUMPDEST SWAP1 DUP6 DUP1 DUP7 DUP2 SWAP11 SWAP9 SWAP6 SWAP5 PUSH2 0x1190 DUP6 SWAP12 SWAP10 SWAP12 PUSH2 0x136B JUMP JUMPDEST DUP2 MSTORE ADD SWAP3 ADD SWAP3 ADD SWAP3 POP SWAP7 SWAP5 SWAP7 SWAP6 SWAP4 SWAP6 PUSH2 0x10F5 JUMP JUMPDEST SWAP2 DUP2 PUSH1 0x1F DUP5 ADD SLT ISZERO PUSH2 0xEF JUMPI DUP3 CALLDATALOAD SWAP2 PUSH8 0xFFFFFFFFFFFFFFFF DUP4 GT PUSH2 0xEF JUMPI PUSH1 0x20 DUP4 DUP2 DUP7 ADD SWAP6 ADD ADD GT PUSH2 0xEF JUMPI JUMP JUMPDEST PUSH1 0x0 JUMPDEST DUP4 DUP2 LT PUSH2 0x11E5 JUMPI POP POP PUSH1 0x0 SWAP2 ADD MSTORE JUMP JUMPDEST DUP2 DUP2 ADD MLOAD DUP4 DUP3 ADD MSTORE PUSH1 0x20 ADD PUSH2 0x11D5 JUMP JUMPDEST SWAP1 PUSH32 0xFFFFFFFFFFFFFFFFFFFFFFFFFFFFFFFFFFFFFFFFFFFFFFFFFFFFFFFFFFFFFFE0 PUSH1 0x1F PUSH1 0x20 SWAP4 PUSH2 0x1231 DUP2 MLOAD DUP1 SWAP3 DUP2 DUP8 MSTORE DUP8 DUP1 DUP9 ADD SWAP2 ADD PUSH2 0x11D2 JUMP JUMPDEST ADD AND ADD ADD SWAP1 JUMP JUMPDEST PUSH1 0x60 DUP2 ADD SWAP1 DUP2 LT PUSH8 0xFFFFFFFFFFFFFFFF DUP3 GT OR PUSH2 0x5FC JUMPI PUSH1 0x40 MSTORE JUMP JUMPDEST SWAP1 PUSH1 0x1F PUSH32 0xFFFFFFFFFFFFFFFFFFFFFFFFFFFFFFFFFFFFFFFFFFFFFFFFFFFFFFFFFFFFFFE0 SWAP2 ADD AND DUP2 ADD SWAP1 DUP2 LT PUSH8 0xFFFFFFFFFFFFFFFF DUP3 GT OR PUSH2 0x5FC JUMPI PUSH1 0x40 MSTORE JUMP JUMPDEST SWAP3 SWAP2 SWAP3 PUSH8 0xFFFFFFFFFFFFFFFF DUP3 GT PUSH2 0x5FC JUMPI PUSH1 0x40 MLOAD SWAP2 PUSH2 0x12DD PUSH1 0x20 PUSH32 0xFFFFFFFFFFFFFFFFFFFFFFFFFFFFFFFFFFFFFFFFFFFFFFFFFFFFFFFFFFFFFFE0 PUSH1 0x1F DUP5 ADD AND ADD DUP5 PUSH2 0x1254 JUMP JUMPDEST DUP3 SWAP5 DUP2 DUP5 MSTORE DUP2 DUP4 ADD GT PUSH2 0xEF JUMPI DUP3 DUP2 PUSH1 0x20 SWAP4 DUP5 PUSH1 0x0 SWAP7 ADD CALLDATACOPY ADD ADD MSTORE JUMP JUMPDEST SWAP1 DUP1 PUSH1 0x1F DUP4 ADD SLT ISZERO PUSH2 0xEF JUMPI DUP2 PUSH1 0x20 PUSH2 0x1315 SWAP4 CALLDATALOAD SWAP2 ADD PUSH2 0x1295 JUMP JUMPDEST SWAP1 JUMP JUMPDEST SWAP1 PUSH1 0x1 DUP3 DUP2 SHR SWAP3 AND DUP1 ISZERO PUSH2 0x1361 JUMPI JUMPDEST PUSH1 0x20 DUP4 LT EQ PUSH2 0x1332 JUMPI JUMP JUMPDEST PUSH32 0x4E487B7100000000000000000000000000000000000000000000000000000000 PUSH1 0x0 MSTORE PUSH1 0x22 PUSH1 0x4 MSTORE PUSH1 0x24 PUSH1 0x0 REVERT JUMPDEST SWAP2 PUSH1 0x7F AND SWAP2 PUSH2 0x1327 JUMP JUMPDEST SWAP1 PUSH1 0x40 MLOAD SWAP2 DUP3 PUSH1 0x0 DUP3 SLOAD PUSH2 0x137E DUP2 PUSH2 0x1318 JUMP JUMPDEST SWAP1 DUP2 DUP5 MSTORE PUSH1 0x20 SWAP5 PUSH1 0x1 SWAP2 PUSH1 0x1 DUP2 AND SWAP1 DUP2 PUSH1 0x0 EQ PUSH2 0x13EE JUMPI POP PUSH1 0x1 EQ PUSH2 0x13AF JUMPI JUMPDEST POP POP POP PUSH2 0x13AD SWAP3 POP SUB DUP4 PUSH2 0x1254 JUMP JUMPDEST JUMP JUMPDEST PUSH1 0x0 SWAP1 DUP2 MSTORE DUP6 DUP2 KECCAK256 SWAP6 SWAP4 POP SWAP2 SWAP1 JUMPDEST DUP2 DUP4 LT PUSH2 0x13D6 JUMPI POP POP PUSH2 0x13AD SWAP4 POP DUP3 ADD ADD CODESIZE DUP1 DUP1 PUSH2 0x139E JUMP JUMPDEST DUP6 SLOAD DUP9 DUP5 ADD DUP6 ADD MSTORE SWAP5 DUP6 ADD SWAP5 DUP8 SWAP5 POP SWAP2 DUP4 ADD SWAP2 PUSH2 0x13BD JUMP JUMPDEST SWAP2 POP POP PUSH2 0x13AD SWAP6 SWAP4 POP PUSH32 0xFFFFFFFFFFFFFFFFFFFFFFFFFFFFFFFFFFFFFFFFFFFFFFFFFFFFFFFFFFFFFF00 SWAP2 POP AND DUP3 DUP5 ADD MSTORE ISZERO ISZERO PUSH1 0x5 SHL DUP3 ADD ADD CODESIZE DUP1 DUP1 PUSH2 0x139E JUMP JUMPDEST PUSH1 0x20 SWAP2 SWAP3 DUP4 PUSH1 0x40 MLOAD SWAP5 DUP6 SWAP4 DUP5 CALLDATACOPY DUP3 ADD SWAP1 DUP2 MSTORE SUB ADD SWAP1 KECCAK256 SWAP1 JUMP JUMPDEST PUSH1 0x1F DUP3 PUSH1 0x20 SWAP5 SWAP4 PUSH32 0xFFFFFFFFFFFFFFFFFFFFFFFFFFFFFFFFFFFFFFFFFFFFFFFFFFFFFFFFFFFFFFE0 SWAP4 DUP2 DUP7 MSTORE DUP7 DUP7 ADD CALLDATACOPY PUSH1 0x0 DUP6 DUP3 DUP7 ADD ADD MSTORE ADD AND ADD ADD SWAP1 JUMP JUMPDEST SWAP1 PUSH1 0x1F DUP2 GT PUSH2 0x1495 JUMPI POP POP POP JUMP JUMPDEST PUSH1 0x0 SWAP2 PUSH1 0x0 MSTORE PUSH1 0x20 PUSH1 0x0 KECCAK256 SWAP1 PUSH1 0x20 PUSH1 0x1F DUP6 ADD PUSH1 0x5 SHR DUP4 ADD SWAP5 LT PUSH2 0x14D3 JUMPI JUMPDEST PUSH1 0x1F ADD PUSH1 0x5 SHR ADD SWAP2 JUMPDEST DUP3 DUP2 LT PUSH2 0x14C8 JUMPI POP POP POP JUMP JUMPDEST DUP2 DUP2 SSTORE PUSH1 0x1 ADD PUSH2 0x14BC JUMP JUMPDEST SWAP1 SWAP3 POP DUP3 SWAP1 PUSH2 0x14B3 JUMP JUMPDEST PUSH20 0xFFFFFFFFFFFFFFFFFFFFFFFFFFFFFFFFFFFFFFFF DUP1 SWAP2 AND SWAP1 DUP2 ISZERO PUSH2 0x156F JUMPI PUSH32 0x9016D09D72D40FDAE2FD8CEAC6B6234C7706214FD39C1CD1E609A0528C199300 DUP1 SLOAD SWAP1 DUP4 PUSH32 0xFFFFFFFFFFFFFFFFFFFFFFFF0000000000000000000000000000000000000000 DUP4 AND OR SWAP1 SSTORE AND PUSH32 0x8BE0079C531659141344CD1FD0A4F28419497F9722A3DAAFE3B4186F6B6457E0 PUSH1 0x0 DUP1 LOG3 JUMP JUMPDEST PUSH1 0x24 PUSH1 0x40 MLOAD PUSH32 0x1E4FBDF700000000000000000000000000000000000000000000000000000000 DUP2 MSTORE PUSH1 0x0 PUSH1 0x4 DUP3 ADD MSTORE REVERT JUMPDEST PUSH20 0xFFFFFFFFFFFFFFFFFFFFFFFFFFFFFFFFFFFFFFFF PUSH32 0x9016D09D72D40FDAE2FD8CEAC6B6234C7706214FD39C1CD1E609A0528C199300 SLOAD AND CALLER SUB PUSH2 0x15E0 JUMPI JUMP JUMPDEST PUSH1 0x24 PUSH1 0x40 MLOAD PUSH32 0x118CDAA700000000000000000000000000000000000000000000000000000000 DUP2 MSTORE CALLER PUSH1 0x4 DUP3 ADD MSTORE REVERT JUMPDEST PUSH1 0xFF PUSH32 0xF0C57E16840DF040F15088DC2F81FE391C3923BEC73E23A9662EFC9C229C6A00 SLOAD PUSH1 0x40 SHR AND ISZERO PUSH2 0x163F JUMPI JUMP JUMPDEST PUSH1 0x4 PUSH1 0x40 MLOAD PUSH32 0xD7E6BCF800000000000000000000000000000000000000000000000000000000 DUP2 MSTORE REVERT INVALID LOG2 PUSH5 0x6970667358 0x22 SLT KECCAK256 DUP11 DUP5 MLOAD 0xEE XOR GASPRICE 0xCE 0xE9 CHAINID JUMPDEST SWAP5 SWAP10 0xB6 0xDA 0xEF MULMOD CODECOPY 0x26 0xAC MOD PUSH14 0x1E7BF5370950A5451BC1E964736F PUSH13 0x63430008180033000000000000 "},"gasEstimates":{"creation":{"codeDepositCost":"1158200","executionCost":"1209","totalCost":"1159409"},"external":{"encryptedSessionBids(string,string)":"infinite","getAllBidderIds(string)":"infinite","getBid(string,string)":"infinite","initialize()":"infinite","owner()":"2349","renounceOwnership()":"28040","sessionViewWindows(string)":"infinite","setSessionViewWindow(string,uint256)":"infinite","submitBid(string,string,string,string)":"infinite","transferOwnership(address)":"28308"},"internal":{"__RewardManager_init()":"infinite"}},"methodIdentifiers":{"encryptedSessionBids(string,string)":"f198bb7c","getAllBidderIds(string)":"4f020ec8","getBid(string,string)":"9da68881","initialize()":"8129fc1c","owner()":"8da5cb5b","renounceOwnership()":"715018a6","sessionViewWindows(string)":"e5c2905e","setSessionViewWindow(string,uint256)":"851e69af","submitBid(string,string,string,string)":"af868dac","transferOwnership(address)":"f2fde38b"}},"storageLayout":{"storage":[{"astId":659,"contract":"contracts/EncryptedBidContract.sol:EncryptedBidContract","label":"encryptedSessionBids","offset":0,"slot":"0","type":"t_mapping(t_string_memory_ptr,t_mapping(t_string_memory_ptr,t_struct(EncryptedBid)652_storage))"},{"astId":664,"contract":"contracts/EncryptedBidContract.sol:EncryptedBidContract","label":"sessionBidderIds","offset":0,"slot":"1","type":"t_mapping(t_string_memory_ptr,t_array(t_string_storage)dyn_storage)"},{"astId":668,"contract":"contracts/EncryptedBidContract.sol:EncryptedBidContract","label":"sessionViewWindows","offset":0,"slot":"2","type":"t_mapping(t_string_memory_ptr,t_uint256)"}],"types":{"t_array(t_string_storage)dyn_storage":{"base":"t_string_storage","encoding":"dynamic_array","label":"string[]","numberOfBytes":"32"},"t_mapping(t_string_memory_ptr,t_array(t_string_storage)dyn_storage)":{"encoding":"mapping","key":"t_string_memory_ptr","label":"mapping(string => string[])","numberOfBytes":"32","value":"t_array(t_string_storage)dyn_storage"},"t_mapping(t_string_memory_ptr,t_mapping(t_string_memory_ptr,t_struct(EncryptedBid)652_storage))":{"encoding":"mapping","key":"t_string_memory_ptr","label":"mapping(string => mapping(string => struct EncryptedBidContract.EncryptedBid))","numberOfBytes":"32","value":"t_mapping(t_string_memory_ptr,t_struct(EncryptedBid)652_storage)"},"t_mapping(t_string_memory_ptr,t_struct(EncryptedBid)652_storage)":{"encoding":"mapping","key":"t_string_memory_ptr","label":"mapping(string => struct EncryptedBidContract.EncryptedBid)","numberOfBytes":"32","value":"t_struct(EncryptedBid)652_storage"},"t_mapping(t_string_memory_ptr,t_uint256)":{"encoding":"mapping","key":"t_string_memory_ptr","label":"mapping(string => uint256)","numberOfBytes":"32","value":"t_uint256"},"t_string_memory_ptr":{"encoding":"bytes","label":"string","numberOfBytes":"32"},"t_string_storage":{"encoding":"bytes","label":"string","numberOfBytes":"32"},"t_struct(EncryptedBid)652_storage":{"encoding":"inplace","label":"struct EncryptedBidContract.EncryptedBid","members":[{"astId":647,"contract":"contracts/EncryptedBidContract.sol:EncryptedBidContract","label":"encryptedData","offset":0,"slot":"0","type":"t_string_storage"},{"astId":649,"contract":"contracts/EncryptedBidContract.sol:EncryptedBidContract","label":"iv","offset":0,"slot":"1","type":"t_string_storage"},{"astId":651,"contract":"contracts/EncryptedBidContract.sol:EncryptedBidContract","label":"timestamp","offset":0,"slot":"2","type":"t_uint256"}],"numberOfBytes":"96"},"t_uint256":{"encoding":"inplace","label":"uint256","numberOfBytes":"32"}}},"userdoc":{"kind":"user","methods":{"getAllBidderIds(string)":{"notice":"Get all bidderIds for a session"},"getBid(string,string)":{"notice":"Get a bid for a session & bidder (if within session's view window)"},"setSessionViewWindow(string,uint256)":{"notice":"Set the viewing window for a specific session"},"submitBid(string,string,string,string)":{"notice":"Submit a bid for a session"}},"version":1}}}}