{"contracts/EncryptedBidContract.sol":{"EncryptedBidContract":{"abi":[{"inputs":[],"name":"InvalidInitialization","type":"error"},{"inputs":[],"name":"NotInitializing","type":"error"},{"inputs":[{"internalType":"address","name":"owner","type":"address"}],"name":"OwnableInvalidOwner","type":"error"},{"inputs":[{"internalType":"address","name":"account","type":"address"}],"name":"OwnableUnauthorizedAccount","type":"error"},{"inputs":[],"name":"ReentrancyGuardReentrantCall","type":"error"},{"anonymous":false,"inputs":[{"indexed":false,"internalType":"string","name":"sessionId","type":"string"},{"indexed":false,"internalType":"string","name":"bidderId","type":"string"}],"name":"BidSubmitted","type":"event"},{"anonymous":false,"inputs":[{"indexed":false,"internalType":"uint64","name":"version","type":"uint64"}],"name":"Initialized","type":"event"},{"anonymous":false,"inputs":[{"indexed":true,"internalType":"address","name":"previousOwner","type":"address"},{"indexed":true,"internalType":"address","name":"newOwner","type":"address"}],"name":"OwnershipTransferred","type":"event"},{"anonymous":false,"inputs":[{"indexed":false,"internalType":"string","name":"sessionId","type":"string"},{"indexed":false,"internalType":"uint256","name":"duration","type":"uint256"}],"name":"SessionViewWindowSet","type":"event"},{"inputs":[{"internalType":"string","name":"","type":"string"},{"internalType":"string","name":"","type":"string"}],"name":"encryptedSessionBids","outputs":[{"internalType":"string","name":"encryptedData","type":"string"},{"internalType":"string","name":"iv","type":"string"},{"internalType":"uint256","name":"timestamp","type":"uint256"}],"stateMutability":"view","type":"function"},{"inputs":[{"internalType":"string","name":"sessionId","type":"string"}],"name":"getAllBidderIds","outputs":[{"internalType":"string[]","name":"","type":"string[]"}],"stateMutability":"view","type":"function"},{"inputs":[{"internalType":"string","name":"sessionId","type":"string"},{"internalType":"string","name":"bidderId","type":"string"}],"name":"getBid","outputs":[{"components":[{"internalType":"string","name":"encryptedData","type":"string"},{"internalType":"string","name":"iv","type":"string"},{"internalType":"uint256","name":"timestamp","type":"uint256"}],"internalType":"struct EncryptedBidContract.EncryptedBid","name":"","type":"tuple"}],"stateMutability":"view","type":"function"},{"inputs":[],"name":"initialize","outputs":[],"stateMutability":"nonpayable","type":"function"},{"inputs":[{"internalType":"string","name":"sessionId","type":"string"}],"name":"isSessionActive","outputs":[{"internalType":"bool","name":"","type":"bool"}],"stateMutability":"view","type":"function"},{"inputs":[],"name":"owner","outputs":[{"internalType":"address","name":"","type":"address"}],"stateMutability":"view","type":"function"},{"inputs":[],"name":"renounceOwnership","outputs":[],"stateMutability":"nonpayable","type":"function"},{"inputs":[{"internalType":"string","name":"","type":"string"}],"name":"sessions","outputs":[{"internalType":"uint256","name":"viewWindow","type":"uint256"},{"internalType":"uint256","name":"startTime","type":"uint256"}],"stateMutability":"view","type":"function"},{"inputs":[{"internalType":"string","name":"sessionId","type":"string"},{"internalType":"uint256","name":"duration","type":"uint256"}],"name":"setSessionViewWindow","outputs":[],"stateMutability":"nonpayable","type":"function"},{"inputs":[{"internalType":"string","name":"sessionId","type":"string"},{"internalType":"string","name":"bidderId","type":"string"},{"internalType":"string","name":"encryptedData","type":"string"},{"internalType":"string","name":"iv","type":"string"}],"name":"submitBid","outputs":[],"stateMutability":"nonpayable","type":"function"},{"inputs":[{"internalType":"address","name":"newOwner","type":"address"}],"name":"transferOwnership","outputs":[],"stateMutability":"nonpayable","type":"function"}],"devdoc":{"errors":{"InvalidInitialization()":[{"details":"The contract is already initialized."}],"NotInitializing()":[{"details":"The contract is not initializing."}],"OwnableInvalidOwner(address)":[{"details":"The owner is not a valid owner account. (eg. `address(0)`)"}],"OwnableUnauthorizedAccount(address)":[{"details":"The caller account is not authorized to perform an operation."}],"ReentrancyGuardReentrantCall()":[{"details":"Unauthorized reentrant call."}]},"events":{"Initialized(uint64)":{"details":"Triggered when the contract has been initialized or reinitialized."}},"kind":"dev","methods":{"owner()":{"details":"Returns the address of the current owner."},"renounceOwnership()":{"details":"Leaves the contract without owner. It will not be possible to call `onlyOwner` functions. Can only be called by the current owner. NOTE: Renouncing ownership will leave the contract without an owner, thereby disabling any functionality that is only available to the owner."},"transferOwnership(address)":{"details":"Transfers ownership of the contract to a new account (`newOwner`). Can only be called by the current owner."}},"version":1},"evm":{"bytecode":{"linkReferences":{},"object":"60808060405234610016576118c0908161001c8239f35b600080fdfe608080604052600436101561001357600080fd5b60003560e01c9081634f020ec814611232575080634f4ba348146111ad578063715018a6146110ef5780638129fc1c14610e3b578063851e69af14610d025780638da5cb5b14610c915780639c80298014610be45780639da688811461093d578063af868dac146101f9578063f198bb7c146100ff5763f2fde38b1461009857600080fd5b346100fa5760207ffffffffffffffffffffffffffffffffffffffffffffffffffffffffffffffffc3601126100fa5760043573ffffffffffffffffffffffffffffffffffffffff811681036100fa576100f8906100f36117c1565b6116fe565b005b600080fd5b346100fa5760407ffffffffffffffffffffffffffffffffffffffffffffffffffffffffffffffffc3601126100fa5767ffffffffffffffff6004358181116100fa5761014f9036906004016114df565b6024359182116100fa5760206101a591610188826101746101e19636906004016114df565b92816040519382858094519384920161139b565b81016001815203019020826040519483868095519384920161139b565b8201908152030190206101b781611550565b906101ef60026101c960018401611550565b920154916040519485946060865260608601906113be565b9084820360208601526113be565b9060408301520390f35b346100fa5760807ffffffffffffffffffffffffffffffffffffffffffffffffffffffffffffffffc3601126100fa5760043567ffffffffffffffff81116100fa5761024890369060040161136d565b9060243567ffffffffffffffff81116100fa5761026990369060040161136d565b929060443567ffffffffffffffff81116100fa5761028b90369060040161136d565b949060643567ffffffffffffffff81116100fa576102ad90369060040161136d565b90916102b76117c1565b6040518688823760208188810160008152030190206040516102d881611401565b600182549283835201549160208201928352156108df576102fc915190519061166c565b42116108815761032a610324604051888a82376020818a810160018152030190208688611614565b546114fd565b156106b5575b9061034d6103569392604051996103468b61141d565b369161147a565b8852369161147a565b602086019081524260408701526103826040518587823760208187810160018152030190208385611614565b90865180519067ffffffffffffffff82116105d7576103ab826103a586546114fd565b866116a8565b602090601f8311600114610611576103f9929160009183610606575b50507fffffffffffffffffffffffffffffffffffffffffffffffffffffffffffffffff8260011b9260031b1c19161790565b82555b5195865167ffffffffffffffff81116105d7576104298161042060018601546114fd565b600186016116a8565b6020601f82116001146104e2576104d2959493926104a2836002946040947f8ca29c64697f1118d070b0a2b93f2f864a0f71398ac22ddd7d39dea7938049459d6000926104d75750507fffffffffffffffffffffffffffffffffffffffffffffffffffffffffffffffff8260011b9260031b1c19161790565b60018501555b01519101556104c460405195869560408752604087019161162d565b91848303602086015261162d565b0390a1005b015190508d806103c7565b6001840160005260206000209860005b7fffffffffffffffffffffffffffffffffffffffffffffffffffffffffffffffe0841681106105bf5750926001837f8ca29c64697f1118d070b0a2b93f2f864a0f71398ac22ddd7d39dea7938049459b6040946104d29a999897837fffffffffffffffffffffffffffffffffffffffffffffffffffffffffffffffe06002991610610588575b505050811b0160018501556104a8565b01517fffffffffffffffffffffffffffffffffffffffffffffffffffffffffffffffff60f88460031b161c191690558c8080610578565b828201518b556001909a0199602092830192016104f2565b7f4e487b7100000000000000000000000000000000000000000000000000000000600052604160045260246000fd5b015190508a806103c7565b907fffffffffffffffffffffffffffffffffffffffffffffffffffffffffffffffe08316918560005260206000209260005b81811061069d5750908460019594939210610666575b505050811b0182556103fc565b01517fffffffffffffffffffffffffffffffffffffffffffffffffffffffffffffffff60f88460031b161c19169055898080610659565b92936020600181928786015181550195019301610643565b604051868882376020818881016002815203019020805490680100000000000000008210156105d757600182018082558210156108525760005260206000200167ffffffffffffffff85116105d7576107188561071283546114fd565b836116a8565b846000601f8211600114610787579161076f826103569796959361034d9560009161077c575b507fffffffffffffffffffffffffffffffffffffffffffffffffffffffffffffffff8260011b9260031b1c19161790565b90555b9192935050610330565b90508a01358e61073e565b60008381526020812092505b7fffffffffffffffffffffffffffffffffffffffffffffffffffffffffffffffe08816811061083a5750916103569594939161034d93887fffffffffffffffffffffffffffffffffffffffffffffffffffffffffffffffe0811610610802575b5050600187811b019055610772565b7fffffffffffffffffffffffffffffffffffffffffffffffffffffffffffffffff60f88a60031b161c19908a01351690558b806107f3565b9091602060018192858c013581550193019101610793565b7f4e487b7100000000000000000000000000000000000000000000000000000000600052603260045260246000fd5b60646040517f08c379a000000000000000000000000000000000000000000000000000000000815260206004820152600f60248201527f53657373696f6e206578706972656400000000000000000000000000000000006044820152fd5b60646040517f08c379a000000000000000000000000000000000000000000000000000000000815260206004820152601760248201527f53657373696f6e206e6f7420696e697469616c697a65640000000000000000006044820152fd5b346100fa5760407ffffffffffffffffffffffffffffffffffffffffffffffffffffffffffffffffc3601126100fa5767ffffffffffffffff6004358181116100fa5761098d90369060040161136d565b906024359283116100fa576109a96109e593369060040161136d565b9390604051946109b88661141d565b60608652600060406020976060898201520152604051858582378681878101600181520301902091611614565b604051926109f28461141d565b6109fb82611550565b84526002610a0b60018401611550565b92868601938452015492604085019380855215610b865785908260405193849283378101600081520301902060405190610a4482611401565b600181549182845201549086830191825215610b2857519051610a669161166c565b4211610aca57610abf90610a8e606095604051968796828852519187015260808601906113be565b90517fffffffffffffffffffffffffffffffffffffffffffffffffffffffffffffffe08583030160408601526113be565b905160608301520390f35b606484604051907f08c379a00000000000000000000000000000000000000000000000000000000082526004820152600b60248201527f42696420657870697265640000000000000000000000000000000000000000006044820152fd5b606486604051907f08c379a00000000000000000000000000000000000000000000000000000000082526004820152600f60248201527f53657373696f6e206e6f742073657400000000000000000000000000000000006044820152fd5b606486604051907f08c379a00000000000000000000000000000000000000000000000000000000082526004820152601260248201527f42696420646f6573206e6f7420657869737400000000000000000000000000006044820152fd5b346100fa5760207ffffffffffffffffffffffffffffffffffffffffffffffffffffffffffffffffc3601126100fa5760043567ffffffffffffffff81116100fa57602080610c378193369060040161136d565b919082604051938492833781016000815203019020604051610c5881611401565b6001825492838352015492839101528015159182610c7d575b50506040519015158152f35b610c87925061166c565b4211158280610c71565b346100fa5760007ffffffffffffffffffffffffffffffffffffffffffffffffffffffffffffffffc3601126100fa57602073ffffffffffffffffffffffffffffffffffffffff7f9016d09d72d40fdae2fd8ceac6b6234c7706214fd39c1cd1e609a0528c1993005416604051908152f35b346100fa5760407ffffffffffffffffffffffffffffffffffffffffffffffffffffffffffffffffc3601126100fa5760043567ffffffffffffffff81116100fa57610d5190369060040161136d565b9060243591610d5e6117c1565b8215610ddd577fea426717d80d84d12bd275c2d5c8dbe1a35b413bddba1584b3cbbda080f7817792604051610d9281611401565b8181526001602082014281526040518587823760208187810160008152030190209251835551910155610dd260405193849360408552604085019161162d565b9060208301520390a1005b60646040517f08c379a000000000000000000000000000000000000000000000000000000000815260206004820152601960248201527f4475726174696f6e206d75737420626520706f736974697665000000000000006044820152fd5b346100fa5760007ffffffffffffffffffffffffffffffffffffffffffffffffffffffffffffffffc3601126100fa577ff0c57e16840df040f15088dc2f81fe391c3923bec73e23a9662efc9c229c6a0080549060ff8260401c161567ffffffffffffffff808416938415806110e8575b600180961490816110de575b1590816110d5575b5061105b577fffffffffffffffffffffffffffffffffffffffffffffffff00000000000000009083868383161786556110a0575b5083549060ff8260401c16159282168681159182611098575b14908161108e575b159081611085575b5061105b5781168517845581611026575b50610f36611831565b610f3e611831565b610f47336116fe565b610f4f611831565b837f9b779b17422d0df92223018b32b4d1fa46e071723d6817e2486d003becc55f0055610fd1575b610f7d57005b7fc7f505b2f371ae2175ee4913f4499e1f2633a7b5936321eed1cdaeb6115181d291817fffffffffffffffffffffffffffffffffffffffffffffff00ffffffffffffffff60209354169055604051908152a1005b7fffffffffffffffffffffffffffffffffffffffffffffff00ffffffffffffffff82541682557fc7f505b2f371ae2175ee4913f4499e1f2633a7b5936321eed1cdaeb6115181d26020604051858152a1610f77565b7fffffffffffffffffffffffffffffffffffffffffffffff000000000000000000166801000000000000000117835584610f2d565b60046040517ff92ee8a9000000000000000000000000000000000000000000000000000000008152fd5b90501587610f1c565b303b159150610f14565b859250610f0c565b7fffffffffffffffffffffffffffffffffffffffffffffff000000000000000000166801000000000000000117845585610ef3565b90501586610ebf565b303b159150610eb7565b5082610eab565b346100fa5760007ffffffffffffffffffffffffffffffffffffffffffffffffffffffffffffffffc3601126100fa576111266117c1565b600073ffffffffffffffffffffffffffffffffffffffff7f9016d09d72d40fdae2fd8ceac6b6234c7706214fd39c1cd1e609a0528c1993008054907fffffffffffffffffffffffff000000000000000000000000000000000000000082169055167f8be0079c531659141344cd1fd0a4f28419497f9722a3daafe3b4186f6b6457e08280a3005b346100fa5760207ffffffffffffffffffffffffffffffffffffffffffffffffffffffffffffffffc3601126100fa5760043567ffffffffffffffff81116100fa57611215602061120360409336906004016114df565b8184519382858094519384920161139b565b810160008152030190206001815491015482519182526020820152f35b346100fa57602090817ffffffffffffffffffffffffffffffffffffffffffffffffffffffffffffffffc3601126100fa5767ffffffffffffffff906004358281116100fa57816112878592369060040161136d565b809183378101600281520301902080549182116105d7578290604051926112b3838260051b0185611439565b8084528284018092600052836000206000915b83831061134b5750505050604051918083019381845251809452604083019360408160051b85010192916000955b8287106113015785850386f35b90919293828061133b837fffffffffffffffffffffffffffffffffffffffffffffffffffffffffffffffc08a6001960301865288516113be565b96019201960195929190926112f4565b600186819261135c859a999a611550565b8152019201920191909594956112c6565b9181601f840112156100fa5782359167ffffffffffffffff83116100fa57602083818601950101116100fa57565b60005b8381106113ae5750506000910152565b818101518382015260200161139e565b907fffffffffffffffffffffffffffffffffffffffffffffffffffffffffffffffe0601f6020936113fa8151809281875287808801910161139b565b0116010190565b6040810190811067ffffffffffffffff8211176105d757604052565b6060810190811067ffffffffffffffff8211176105d757604052565b90601f7fffffffffffffffffffffffffffffffffffffffffffffffffffffffffffffffe0910116810190811067ffffffffffffffff8211176105d757604052565b92919267ffffffffffffffff82116105d757604051916114c260207fffffffffffffffffffffffffffffffffffffffffffffffffffffffffffffffe0601f8401160184611439565b8294818452818301116100fa578281602093846000960137010152565b9080601f830112156100fa578160206114fa9335910161147a565b90565b90600182811c92168015611546575b602083101461151757565b7f4e487b7100000000000000000000000000000000000000000000000000000000600052602260045260246000fd5b91607f169161150c565b90604051918260008254611563816114fd565b908184526020946001916001811690816000146115d35750600114611594575b50505061159292500383611439565b565b600090815285812095935091905b8183106115bb5750506115929350820101388080611583565b855488840185015294850194879450918301916115a2565b9150506115929593507fffffffffffffffffffffffffffffffffffffffffffffffffffffffffffffff0091501682840152151560051b820101388080611583565b6020919283604051948593843782019081520301902090565b601f82602094937fffffffffffffffffffffffffffffffffffffffffffffffffffffffffffffffe0938186528686013760008582860101520116010190565b9190820180921161167957565b7f4e487b7100000000000000000000000000000000000000000000000000000000600052601160045260246000fd5b90601f81116116b657505050565b6000916000526020600020906020601f850160051c830194106116f4575b601f0160051c01915b8281106116e957505050565b8181556001016116dd565b90925082906116d4565b73ffffffffffffffffffffffffffffffffffffffff809116908115611790577f9016d09d72d40fdae2fd8ceac6b6234c7706214fd39c1cd1e609a0528c199300805490837fffffffffffffffffffffffff00000000000000000000000000000000000000008316179055167f8be0079c531659141344cd1fd0a4f28419497f9722a3daafe3b4186f6b6457e0600080a3565b60246040517f1e4fbdf700000000000000000000000000000000000000000000000000000000815260006004820152fd5b73ffffffffffffffffffffffffffffffffffffffff7f9016d09d72d40fdae2fd8ceac6b6234c7706214fd39c1cd1e609a0528c1993005416330361180157565b60246040517f118cdaa7000000000000000000000000000000000000000000000000000000008152336004820152fd5b60ff7ff0c57e16840df040f15088dc2f81fe391c3923bec73e23a9662efc9c229c6a005460401c161561186057565b60046040517fd7e6bcf8000000000000000000000000000000000000000000000000000000008152fdfea264697066735822122026a3d0063217796b315e26240eb1c9b97db7200376ecd4038931fc3790cd041664736f6c63430008180033","opcodes":"PUSH1 0x80 DUP1 PUSH1 0x40 MSTORE CALLVALUE PUSH2 0x16 JUMPI PUSH2 0x18C0 SWAP1 DUP2 PUSH2 0x1C DUP3 CODECOPY RETURN JUMPDEST PUSH1 0x0 DUP1 REVERT INVALID PUSH1 0x80 DUP1 PUSH1 0x40 MSTORE PUSH1 0x4 CALLDATASIZE LT ISZERO PUSH2 0x13 JUMPI PUSH1 0x0 DUP1 REVERT JUMPDEST PUSH1 0x0 CALLDATALOAD PUSH1 0xE0 SHR SWAP1 DUP2 PUSH4 0x4F020EC8 EQ PUSH2 0x1232 JUMPI POP DUP1 PUSH4 0x4F4BA348 EQ PUSH2 0x11AD JUMPI DUP1 PUSH4 0x715018A6 EQ PUSH2 0x10EF JUMPI DUP1 PUSH4 0x8129FC1C EQ PUSH2 0xE3B JUMPI DUP1 PUSH4 0x851E69AF EQ PUSH2 0xD02 JUMPI DUP1 PUSH4 0x8DA5CB5B EQ PUSH2 0xC91 JUMPI DUP1 PUSH4 0x9C802980 EQ PUSH2 0xBE4 JUMPI DUP1 PUSH4 0x9DA68881 EQ PUSH2 0x93D JUMPI DUP1 PUSH4 0xAF868DAC EQ PUSH2 0x1F9 JUMPI DUP1 PUSH4 0xF198BB7C EQ PUSH2 0xFF JUMPI PUSH4 0xF2FDE38B EQ PUSH2 0x98 JUMPI PUSH1 0x0 DUP1 REVERT JUMPDEST CALLVALUE PUSH2 0xFA JUMPI PUSH1 0x20 PUSH32 0xFFFFFFFFFFFFFFFFFFFFFFFFFFFFFFFFFFFFFFFFFFFFFFFFFFFFFFFFFFFFFFFC CALLDATASIZE ADD SLT PUSH2 0xFA JUMPI PUSH1 0x4 CALLDATALOAD PUSH20 0xFFFFFFFFFFFFFFFFFFFFFFFFFFFFFFFFFFFFFFFF DUP2 AND DUP2 SUB PUSH2 0xFA JUMPI PUSH2 0xF8 SWAP1 PUSH2 0xF3 PUSH2 0x17C1 JUMP JUMPDEST PUSH2 0x16FE JUMP JUMPDEST STOP JUMPDEST PUSH1 0x0 DUP1 REVERT JUMPDEST CALLVALUE PUSH2 0xFA JUMPI PUSH1 0x40 PUSH32 0xFFFFFFFFFFFFFFFFFFFFFFFFFFFFFFFFFFFFFFFFFFFFFFFFFFFFFFFFFFFFFFFC CALLDATASIZE ADD SLT PUSH2 0xFA JUMPI PUSH8 0xFFFFFFFFFFFFFFFF PUSH1 0x4 CALLDATALOAD DUP2 DUP2 GT PUSH2 0xFA JUMPI PUSH2 0x14F SWAP1 CALLDATASIZE SWAP1 PUSH1 0x4 ADD PUSH2 0x14DF JUMP JUMPDEST PUSH1 0x24 CALLDATALOAD SWAP2 DUP3 GT PUSH2 0xFA JUMPI PUSH1 0x20 PUSH2 0x1A5 SWAP2 PUSH2 0x188 DUP3 PUSH2 0x174 PUSH2 0x1E1 SWAP7 CALLDATASIZE SWAP1 PUSH1 0x4 ADD PUSH2 0x14DF JUMP JUMPDEST SWAP3 DUP2 PUSH1 0x40 MLOAD SWAP4 DUP3 DUP6 DUP1 SWAP5 MLOAD SWAP4 DUP5 SWAP3 ADD PUSH2 0x139B JUMP JUMPDEST DUP2 ADD PUSH1 0x1 DUP2 MSTORE SUB ADD SWAP1 KECCAK256 DUP3 PUSH1 0x40 MLOAD SWAP5 DUP4 DUP7 DUP1 SWAP6 MLOAD SWAP4 DUP5 SWAP3 ADD PUSH2 0x139B JUMP JUMPDEST DUP3 ADD SWAP1 DUP2 MSTORE SUB ADD SWAP1 KECCAK256 PUSH2 0x1B7 DUP2 PUSH2 0x1550 JUMP JUMPDEST SWAP1 PUSH2 0x1EF PUSH1 0x2 PUSH2 0x1C9 PUSH1 0x1 DUP5 ADD PUSH2 0x1550 JUMP JUMPDEST SWAP3 ADD SLOAD SWAP2 PUSH1 0x40 MLOAD SWAP5 DUP6 SWAP5 PUSH1 0x60 DUP7 MSTORE PUSH1 0x60 DUP7 ADD SWAP1 PUSH2 0x13BE JUMP JUMPDEST SWAP1 DUP5 DUP3 SUB PUSH1 0x20 DUP7 ADD MSTORE PUSH2 0x13BE JUMP JUMPDEST SWAP1 PUSH1 0x40 DUP4 ADD MSTORE SUB SWAP1 RETURN JUMPDEST CALLVALUE PUSH2 0xFA JUMPI PUSH1 0x80 PUSH32 0xFFFFFFFFFFFFFFFFFFFFFFFFFFFFFFFFFFFFFFFFFFFFFFFFFFFFFFFFFFFFFFFC CALLDATASIZE ADD SLT PUSH2 0xFA JUMPI PUSH1 0x4 CALLDATALOAD PUSH8 0xFFFFFFFFFFFFFFFF DUP2 GT PUSH2 0xFA JUMPI PUSH2 0x248 SWAP1 CALLDATASIZE SWAP1 PUSH1 0x4 ADD PUSH2 0x136D JUMP JUMPDEST SWAP1 PUSH1 0x24 CALLDATALOAD PUSH8 0xFFFFFFFFFFFFFFFF DUP2 GT PUSH2 0xFA JUMPI PUSH2 0x269 SWAP1 CALLDATASIZE SWAP1 PUSH1 0x4 ADD PUSH2 0x136D JUMP JUMPDEST SWAP3 SWAP1 PUSH1 0x44 CALLDATALOAD PUSH8 0xFFFFFFFFFFFFFFFF DUP2 GT PUSH2 0xFA JUMPI PUSH2 0x28B SWAP1 CALLDATASIZE SWAP1 PUSH1 0x4 ADD PUSH2 0x136D JUMP JUMPDEST SWAP5 SWAP1 PUSH1 0x64 CALLDATALOAD PUSH8 0xFFFFFFFFFFFFFFFF DUP2 GT PUSH2 0xFA JUMPI PUSH2 0x2AD SWAP1 CALLDATASIZE SWAP1 PUSH1 0x4 ADD PUSH2 0x136D JUMP JUMPDEST SWAP1 SWAP2 PUSH2 0x2B7 PUSH2 0x17C1 JUMP JUMPDEST PUSH1 0x40 MLOAD DUP7 DUP9 DUP3 CALLDATACOPY PUSH1 0x20 DUP2 DUP9 DUP2 ADD PUSH1 0x0 DUP2 MSTORE SUB ADD SWAP1 KECCAK256 PUSH1 0x40 MLOAD PUSH2 0x2D8 DUP2 PUSH2 0x1401 JUMP JUMPDEST PUSH1 0x1 DUP3 SLOAD SWAP3 DUP4 DUP4 MSTORE ADD SLOAD SWAP2 PUSH1 0x20 DUP3 ADD SWAP3 DUP4 MSTORE ISZERO PUSH2 0x8DF JUMPI PUSH2 0x2FC SWAP2 MLOAD SWAP1 MLOAD SWAP1 PUSH2 0x166C JUMP JUMPDEST TIMESTAMP GT PUSH2 0x881 JUMPI PUSH2 0x32A PUSH2 0x324 PUSH1 0x40 MLOAD DUP9 DUP11 DUP3 CALLDATACOPY PUSH1 0x20 DUP2 DUP11 DUP2 ADD PUSH1 0x1 DUP2 MSTORE SUB ADD SWAP1 KECCAK256 DUP7 DUP9 PUSH2 0x1614 JUMP JUMPDEST SLOAD PUSH2 0x14FD JUMP JUMPDEST ISZERO PUSH2 0x6B5 JUMPI JUMPDEST SWAP1 PUSH2 0x34D PUSH2 0x356 SWAP4 SWAP3 PUSH1 0x40 MLOAD SWAP10 PUSH2 0x346 DUP12 PUSH2 0x141D JUMP JUMPDEST CALLDATASIZE SWAP2 PUSH2 0x147A JUMP JUMPDEST DUP9 MSTORE CALLDATASIZE SWAP2 PUSH2 0x147A JUMP JUMPDEST PUSH1 0x20 DUP7 ADD SWAP1 DUP2 MSTORE TIMESTAMP PUSH1 0x40 DUP8 ADD MSTORE PUSH2 0x382 PUSH1 0x40 MLOAD DUP6 DUP8 DUP3 CALLDATACOPY PUSH1 0x20 DUP2 DUP8 DUP2 ADD PUSH1 0x1 DUP2 MSTORE SUB ADD SWAP1 KECCAK256 DUP4 DUP6 PUSH2 0x1614 JUMP JUMPDEST SWAP1 DUP7 MLOAD DUP1 MLOAD SWAP1 PUSH8 0xFFFFFFFFFFFFFFFF DUP3 GT PUSH2 0x5D7 JUMPI PUSH2 0x3AB DUP3 PUSH2 0x3A5 DUP7 SLOAD PUSH2 0x14FD JUMP JUMPDEST DUP7 PUSH2 0x16A8 JUMP JUMPDEST PUSH1 0x20 SWAP1 PUSH1 0x1F DUP4 GT PUSH1 0x1 EQ PUSH2 0x611 JUMPI PUSH2 0x3F9 SWAP3 SWAP2 PUSH1 0x0 SWAP2 DUP4 PUSH2 0x606 JUMPI JUMPDEST POP POP PUSH32 0xFFFFFFFFFFFFFFFFFFFFFFFFFFFFFFFFFFFFFFFFFFFFFFFFFFFFFFFFFFFFFFFF DUP3 PUSH1 0x1 SHL SWAP3 PUSH1 0x3 SHL SHR NOT AND OR SWAP1 JUMP JUMPDEST DUP3 SSTORE JUMPDEST MLOAD SWAP6 DUP7 MLOAD PUSH8 0xFFFFFFFFFFFFFFFF DUP2 GT PUSH2 0x5D7 JUMPI PUSH2 0x429 DUP2 PUSH2 0x420 PUSH1 0x1 DUP7 ADD SLOAD PUSH2 0x14FD JUMP JUMPDEST PUSH1 0x1 DUP7 ADD PUSH2 0x16A8 JUMP JUMPDEST PUSH1 0x20 PUSH1 0x1F DUP3 GT PUSH1 0x1 EQ PUSH2 0x4E2 JUMPI PUSH2 0x4D2 SWAP6 SWAP5 SWAP4 SWAP3 PUSH2 0x4A2 DUP4 PUSH1 0x2 SWAP5 PUSH1 0x40 SWAP5 PUSH32 0x8CA29C64697F1118D070B0A2B93F2F864A0F71398AC22DDD7D39DEA793804945 SWAP14 PUSH1 0x0 SWAP3 PUSH2 0x4D7 JUMPI POP POP PUSH32 0xFFFFFFFFFFFFFFFFFFFFFFFFFFFFFFFFFFFFFFFFFFFFFFFFFFFFFFFFFFFFFFFF DUP3 PUSH1 0x1 SHL SWAP3 PUSH1 0x3 SHL SHR NOT AND OR SWAP1 JUMP JUMPDEST PUSH1 0x1 DUP6 ADD SSTORE JUMPDEST ADD MLOAD SWAP2 ADD SSTORE PUSH2 0x4C4 PUSH1 0x40 MLOAD SWAP6 DUP7 SWAP6 PUSH1 0x40 DUP8 MSTORE PUSH1 0x40 DUP8 ADD SWAP2 PUSH2 0x162D JUMP JUMPDEST SWAP2 DUP5 DUP4 SUB PUSH1 0x20 DUP7 ADD MSTORE PUSH2 0x162D JUMP JUMPDEST SUB SWAP1 LOG1 STOP JUMPDEST ADD MLOAD SWAP1 POP DUP14 DUP1 PUSH2 0x3C7 JUMP JUMPDEST PUSH1 0x1 DUP5 ADD PUSH1 0x0 MSTORE PUSH1 0x20 PUSH1 0x0 KECCAK256 SWAP9 PUSH1 0x0 JUMPDEST PUSH32 0xFFFFFFFFFFFFFFFFFFFFFFFFFFFFFFFFFFFFFFFFFFFFFFFFFFFFFFFFFFFFFFE0 DUP5 AND DUP2 LT PUSH2 0x5BF JUMPI POP SWAP3 PUSH1 0x1 DUP4 PUSH32 0x8CA29C64697F1118D070B0A2B93F2F864A0F71398AC22DDD7D39DEA793804945 SWAP12 PUSH1 0x40 SWAP5 PUSH2 0x4D2 SWAP11 SWAP10 SWAP9 SWAP8 DUP4 PUSH32 0xFFFFFFFFFFFFFFFFFFFFFFFFFFFFFFFFFFFFFFFFFFFFFFFFFFFFFFFFFFFFFFE0 PUSH1 0x2 SWAP10 AND LT PUSH2 0x588 JUMPI JUMPDEST POP POP POP DUP2 SHL ADD PUSH1 0x1 DUP6 ADD SSTORE PUSH2 0x4A8 JUMP JUMPDEST ADD MLOAD PUSH32 0xFFFFFFFFFFFFFFFFFFFFFFFFFFFFFFFFFFFFFFFFFFFFFFFFFFFFFFFFFFFFFFFF PUSH1 0xF8 DUP5 PUSH1 0x3 SHL AND SHR NOT AND SWAP1 SSTORE DUP13 DUP1 DUP1 PUSH2 0x578 JUMP JUMPDEST DUP3 DUP3 ADD MLOAD DUP12 SSTORE PUSH1 0x1 SWAP1 SWAP11 ADD SWAP10 PUSH1 0x20 SWAP3 DUP4 ADD SWAP3 ADD PUSH2 0x4F2 JUMP JUMPDEST PUSH32 0x4E487B7100000000000000000000000000000000000000000000000000000000 PUSH1 0x0 MSTORE PUSH1 0x41 PUSH1 0x4 MSTORE PUSH1 0x24 PUSH1 0x0 REVERT JUMPDEST ADD MLOAD SWAP1 POP DUP11 DUP1 PUSH2 0x3C7 JUMP JUMPDEST SWAP1 PUSH32 0xFFFFFFFFFFFFFFFFFFFFFFFFFFFFFFFFFFFFFFFFFFFFFFFFFFFFFFFFFFFFFFE0 DUP4 AND SWAP2 DUP6 PUSH1 0x0 MSTORE PUSH1 0x20 PUSH1 0x0 KECCAK256 SWAP3 PUSH1 0x0 JUMPDEST DUP2 DUP2 LT PUSH2 0x69D JUMPI POP SWAP1 DUP5 PUSH1 0x1 SWAP6 SWAP5 SWAP4 SWAP3 LT PUSH2 0x666 JUMPI JUMPDEST POP POP POP DUP2 SHL ADD DUP3 SSTORE PUSH2 0x3FC JUMP JUMPDEST ADD MLOAD PUSH32 0xFFFFFFFFFFFFFFFFFFFFFFFFFFFFFFFFFFFFFFFFFFFFFFFFFFFFFFFFFFFFFFFF PUSH1 0xF8 DUP5 PUSH1 0x3 SHL AND SHR NOT AND SWAP1 SSTORE DUP10 DUP1 DUP1 PUSH2 0x659 JUMP JUMPDEST SWAP3 SWAP4 PUSH1 0x20 PUSH1 0x1 DUP2 SWAP3 DUP8 DUP7 ADD MLOAD DUP2 SSTORE ADD SWAP6 ADD SWAP4 ADD PUSH2 0x643 JUMP JUMPDEST PUSH1 0x40 MLOAD DUP7 DUP9 DUP3 CALLDATACOPY PUSH1 0x20 DUP2 DUP9 DUP2 ADD PUSH1 0x2 DUP2 MSTORE SUB ADD SWAP1 KECCAK256 DUP1 SLOAD SWAP1 PUSH9 0x10000000000000000 DUP3 LT ISZERO PUSH2 0x5D7 JUMPI PUSH1 0x1 DUP3 ADD DUP1 DUP3 SSTORE DUP3 LT ISZERO PUSH2 0x852 JUMPI PUSH1 0x0 MSTORE PUSH1 0x20 PUSH1 0x0 KECCAK256 ADD PUSH8 0xFFFFFFFFFFFFFFFF DUP6 GT PUSH2 0x5D7 JUMPI PUSH2 0x718 DUP6 PUSH2 0x712 DUP4 SLOAD PUSH2 0x14FD JUMP JUMPDEST DUP4 PUSH2 0x16A8 JUMP JUMPDEST DUP5 PUSH1 0x0 PUSH1 0x1F DUP3 GT PUSH1 0x1 EQ PUSH2 0x787 JUMPI SWAP2 PUSH2 0x76F DUP3 PUSH2 0x356 SWAP8 SWAP7 SWAP6 SWAP4 PUSH2 0x34D SWAP6 PUSH1 0x0 SWAP2 PUSH2 0x77C JUMPI JUMPDEST POP PUSH32 0xFFFFFFFFFFFFFFFFFFFFFFFFFFFFFFFFFFFFFFFFFFFFFFFFFFFFFFFFFFFFFFFF DUP3 PUSH1 0x1 SHL SWAP3 PUSH1 0x3 SHL SHR NOT AND OR SWAP1 JUMP JUMPDEST SWAP1 SSTORE JUMPDEST SWAP2 SWAP3 SWAP4 POP POP PUSH2 0x330 JUMP JUMPDEST SWAP1 POP DUP11 ADD CALLDATALOAD DUP15 PUSH2 0x73E JUMP JUMPDEST PUSH1 0x0 DUP4 DUP2 MSTORE PUSH1 0x20 DUP2 KECCAK256 SWAP3 POP JUMPDEST PUSH32 0xFFFFFFFFFFFFFFFFFFFFFFFFFFFFFFFFFFFFFFFFFFFFFFFFFFFFFFFFFFFFFFE0 DUP9 AND DUP2 LT PUSH2 0x83A JUMPI POP SWAP2 PUSH2 0x356 SWAP6 SWAP5 SWAP4 SWAP2 PUSH2 0x34D SWAP4 DUP9 PUSH32 0xFFFFFFFFFFFFFFFFFFFFFFFFFFFFFFFFFFFFFFFFFFFFFFFFFFFFFFFFFFFFFFE0 DUP2 AND LT PUSH2 0x802 JUMPI JUMPDEST POP POP PUSH1 0x1 DUP8 DUP2 SHL ADD SWAP1 SSTORE PUSH2 0x772 JUMP JUMPDEST PUSH32 0xFFFFFFFFFFFFFFFFFFFFFFFFFFFFFFFFFFFFFFFFFFFFFFFFFFFFFFFFFFFFFFFF PUSH1 0xF8 DUP11 PUSH1 0x3 SHL AND SHR NOT SWAP1 DUP11 ADD CALLDATALOAD AND SWAP1 SSTORE DUP12 DUP1 PUSH2 0x7F3 JUMP JUMPDEST SWAP1 SWAP2 PUSH1 0x20 PUSH1 0x1 DUP2 SWAP3 DUP6 DUP13 ADD CALLDATALOAD DUP2 SSTORE ADD SWAP4 ADD SWAP2 ADD PUSH2 0x793 JUMP JUMPDEST PUSH32 0x4E487B7100000000000000000000000000000000000000000000000000000000 PUSH1 0x0 MSTORE PUSH1 0x32 PUSH1 0x4 MSTORE PUSH1 0x24 PUSH1 0x0 REVERT JUMPDEST PUSH1 0x64 PUSH1 0x40 MLOAD PUSH32 0x8C379A000000000000000000000000000000000000000000000000000000000 DUP2 MSTORE PUSH1 0x20 PUSH1 0x4 DUP3 ADD MSTORE PUSH1 0xF PUSH1 0x24 DUP3 ADD MSTORE PUSH32 0x53657373696F6E20657870697265640000000000000000000000000000000000 PUSH1 0x44 DUP3 ADD MSTORE REVERT JUMPDEST PUSH1 0x64 PUSH1 0x40 MLOAD PUSH32 0x8C379A000000000000000000000000000000000000000000000000000000000 DUP2 MSTORE PUSH1 0x20 PUSH1 0x4 DUP3 ADD MSTORE PUSH1 0x17 PUSH1 0x24 DUP3 ADD MSTORE PUSH32 0x53657373696F6E206E6F7420696E697469616C697A6564000000000000000000 PUSH1 0x44 DUP3 ADD MSTORE REVERT JUMPDEST CALLVALUE PUSH2 0xFA JUMPI PUSH1 0x40 PUSH32 0xFFFFFFFFFFFFFFFFFFFFFFFFFFFFFFFFFFFFFFFFFFFFFFFFFFFFFFFFFFFFFFFC CALLDATASIZE ADD SLT PUSH2 0xFA JUMPI PUSH8 0xFFFFFFFFFFFFFFFF PUSH1 0x4 CALLDATALOAD DUP2 DUP2 GT PUSH2 0xFA JUMPI PUSH2 0x98D SWAP1 CALLDATASIZE SWAP1 PUSH1 0x4 ADD PUSH2 0x136D JUMP JUMPDEST SWAP1 PUSH1 0x24 CALLDATALOAD SWAP3 DUP4 GT PUSH2 0xFA JUMPI PUSH2 0x9A9 PUSH2 0x9E5 SWAP4 CALLDATASIZE SWAP1 PUSH1 0x4 ADD PUSH2 0x136D JUMP JUMPDEST SWAP4 SWAP1 PUSH1 0x40 MLOAD SWAP5 PUSH2 0x9B8 DUP7 PUSH2 0x141D JUMP JUMPDEST PUSH1 0x60 DUP7 MSTORE PUSH1 0x0 PUSH1 0x40 PUSH1 0x20 SWAP8 PUSH1 0x60 DUP10 DUP3 ADD MSTORE ADD MSTORE PUSH1 0x40 MLOAD DUP6 DUP6 DUP3 CALLDATACOPY DUP7 DUP2 DUP8 DUP2 ADD PUSH1 0x1 DUP2 MSTORE SUB ADD SWAP1 KECCAK256 SWAP2 PUSH2 0x1614 JUMP JUMPDEST PUSH1 0x40 MLOAD SWAP3 PUSH2 0x9F2 DUP5 PUSH2 0x141D JUMP JUMPDEST PUSH2 0x9FB DUP3 PUSH2 0x1550 JUMP JUMPDEST DUP5 MSTORE PUSH1 0x2 PUSH2 0xA0B PUSH1 0x1 DUP5 ADD PUSH2 0x1550 JUMP JUMPDEST SWAP3 DUP7 DUP7 ADD SWAP4 DUP5 MSTORE ADD SLOAD SWAP3 PUSH1 0x40 DUP6 ADD SWAP4 DUP1 DUP6 MSTORE ISZERO PUSH2 0xB86 JUMPI DUP6 SWAP1 DUP3 PUSH1 0x40 MLOAD SWAP4 DUP5 SWAP3 DUP4 CALLDATACOPY DUP2 ADD PUSH1 0x0 DUP2 MSTORE SUB ADD SWAP1 KECCAK256 PUSH1 0x40 MLOAD SWAP1 PUSH2 0xA44 DUP3 PUSH2 0x1401 JUMP JUMPDEST PUSH1 0x1 DUP2 SLOAD SWAP2 DUP3 DUP5 MSTORE ADD SLOAD SWAP1 DUP7 DUP4 ADD SWAP2 DUP3 MSTORE ISZERO PUSH2 0xB28 JUMPI MLOAD SWAP1 MLOAD PUSH2 0xA66 SWAP2 PUSH2 0x166C JUMP JUMPDEST TIMESTAMP GT PUSH2 0xACA JUMPI PUSH2 0xABF SWAP1 PUSH2 0xA8E PUSH1 0x60 SWAP6 PUSH1 0x40 MLOAD SWAP7 DUP8 SWAP7 DUP3 DUP9 MSTORE MLOAD SWAP2 DUP8 ADD MSTORE PUSH1 0x80 DUP7 ADD SWAP1 PUSH2 0x13BE JUMP JUMPDEST SWAP1 MLOAD PUSH32 0xFFFFFFFFFFFFFFFFFFFFFFFFFFFFFFFFFFFFFFFFFFFFFFFFFFFFFFFFFFFFFFE0 DUP6 DUP4 SUB ADD PUSH1 0x40 DUP7 ADD MSTORE PUSH2 0x13BE JUMP JUMPDEST SWAP1 MLOAD PUSH1 0x60 DUP4 ADD MSTORE SUB SWAP1 RETURN JUMPDEST PUSH1 0x64 DUP5 PUSH1 0x40 MLOAD SWAP1 PUSH32 0x8C379A000000000000000000000000000000000000000000000000000000000 DUP3 MSTORE PUSH1 0x4 DUP3 ADD MSTORE PUSH1 0xB PUSH1 0x24 DUP3 ADD MSTORE PUSH32 0x4269642065787069726564000000000000000000000000000000000000000000 PUSH1 0x44 DUP3 ADD MSTORE REVERT JUMPDEST PUSH1 0x64 DUP7 PUSH1 0x40 MLOAD SWAP1 PUSH32 0x8C379A000000000000000000000000000000000000000000000000000000000 DUP3 MSTORE PUSH1 0x4 DUP3 ADD MSTORE PUSH1 0xF PUSH1 0x24 DUP3 ADD MSTORE PUSH32 0x53657373696F6E206E6F74207365740000000000000000000000000000000000 PUSH1 0x44 DUP3 ADD MSTORE REVERT JUMPDEST PUSH1 0x64 DUP7 PUSH1 0x40 MLOAD SWAP1 PUSH32 0x8C379A000000000000000000000000000000000000000000000000000000000 DUP3 MSTORE PUSH1 0x4 DUP3 ADD MSTORE PUSH1 0x12 PUSH1 0x24 DUP3 ADD MSTORE PUSH32 0x42696420646F6573206E6F742065786973740000000000000000000000000000 PUSH1 0x44 DUP3 ADD MSTORE REVERT JUMPDEST CALLVALUE PUSH2 0xFA JUMPI PUSH1 0x20 PUSH32 0xFFFFFFFFFFFFFFFFFFFFFFFFFFFFFFFFFFFFFFFFFFFFFFFFFFFFFFFFFFFFFFFC CALLDATASIZE ADD SLT PUSH2 0xFA JUMPI PUSH1 0x4 CALLDATALOAD PUSH8 0xFFFFFFFFFFFFFFFF DUP2 GT PUSH2 0xFA JUMPI PUSH1 0x20 DUP1 PUSH2 0xC37 DUP2 SWAP4 CALLDATASIZE SWAP1 PUSH1 0x4 ADD PUSH2 0x136D JUMP JUMPDEST SWAP2 SWAP1 DUP3 PUSH1 0x40 MLOAD SWAP4 DUP5 SWAP3 DUP4 CALLDATACOPY DUP2 ADD PUSH1 0x0 DUP2 MSTORE SUB ADD SWAP1 KECCAK256 PUSH1 0x40 MLOAD PUSH2 0xC58 DUP2 PUSH2 0x1401 JUMP JUMPDEST PUSH1 0x1 DUP3 SLOAD SWAP3 DUP4 DUP4 MSTORE ADD SLOAD SWAP3 DUP4 SWAP2 ADD MSTORE DUP1 ISZERO ISZERO SWAP2 DUP3 PUSH2 0xC7D JUMPI JUMPDEST POP POP PUSH1 0x40 MLOAD SWAP1 ISZERO ISZERO DUP2 MSTORE RETURN JUMPDEST PUSH2 0xC87 SWAP3 POP PUSH2 0x166C JUMP JUMPDEST TIMESTAMP GT ISZERO DUP3 DUP1 PUSH2 0xC71 JUMP JUMPDEST CALLVALUE PUSH2 0xFA JUMPI PUSH1 0x0 PUSH32 0xFFFFFFFFFFFFFFFFFFFFFFFFFFFFFFFFFFFFFFFFFFFFFFFFFFFFFFFFFFFFFFFC CALLDATASIZE ADD SLT PUSH2 0xFA JUMPI PUSH1 0x20 PUSH20 0xFFFFFFFFFFFFFFFFFFFFFFFFFFFFFFFFFFFFFFFF PUSH32 0x9016D09D72D40FDAE2FD8CEAC6B6234C7706214FD39C1CD1E609A0528C199300 SLOAD AND PUSH1 0x40 MLOAD SWAP1 DUP2 MSTORE RETURN JUMPDEST CALLVALUE PUSH2 0xFA JUMPI PUSH1 0x40 PUSH32 0xFFFFFFFFFFFFFFFFFFFFFFFFFFFFFFFFFFFFFFFFFFFFFFFFFFFFFFFFFFFFFFFC CALLDATASIZE ADD SLT PUSH2 0xFA JUMPI PUSH1 0x4 CALLDATALOAD PUSH8 0xFFFFFFFFFFFFFFFF DUP2 GT PUSH2 0xFA JUMPI PUSH2 0xD51 SWAP1 CALLDATASIZE SWAP1 PUSH1 0x4 ADD PUSH2 0x136D JUMP JUMPDEST SWAP1 PUSH1 0x24 CALLDATALOAD SWAP2 PUSH2 0xD5E PUSH2 0x17C1 JUMP JUMPDEST DUP3 ISZERO PUSH2 0xDDD JUMPI PUSH32 0xEA426717D80D84D12BD275C2D5C8DBE1A35B413BDDBA1584B3CBBDA080F78177 SWAP3 PUSH1 0x40 MLOAD PUSH2 0xD92 DUP2 PUSH2 0x1401 JUMP JUMPDEST DUP2 DUP2 MSTORE PUSH1 0x1 PUSH1 0x20 DUP3 ADD TIMESTAMP DUP2 MSTORE PUSH1 0x40 MLOAD DUP6 DUP8 DUP3 CALLDATACOPY PUSH1 0x20 DUP2 DUP8 DUP2 ADD PUSH1 0x0 DUP2 MSTORE SUB ADD SWAP1 KECCAK256 SWAP3 MLOAD DUP4 SSTORE MLOAD SWAP2 ADD SSTORE PUSH2 0xDD2 PUSH1 0x40 MLOAD SWAP4 DUP5 SWAP4 PUSH1 0x40 DUP6 MSTORE PUSH1 0x40 DUP6 ADD SWAP2 PUSH2 0x162D JUMP JUMPDEST SWAP1 PUSH1 0x20 DUP4 ADD MSTORE SUB SWAP1 LOG1 STOP JUMPDEST PUSH1 0x64 PUSH1 0x40 MLOAD PUSH32 0x8C379A000000000000000000000000000000000000000000000000000000000 DUP2 MSTORE PUSH1 0x20 PUSH1 0x4 DUP3 ADD MSTORE PUSH1 0x19 PUSH1 0x24 DUP3 ADD MSTORE PUSH32 0x4475726174696F6E206D75737420626520706F73697469766500000000000000 PUSH1 0x44 DUP3 ADD MSTORE REVERT JUMPDEST CALLVALUE PUSH2 0xFA JUMPI PUSH1 0x0 PUSH32 0xFFFFFFFFFFFFFFFFFFFFFFFFFFFFFFFFFFFFFFFFFFFFFFFFFFFFFFFFFFFFFFFC CALLDATASIZE ADD SLT PUSH2 0xFA JUMPI PUSH32 0xF0C57E16840DF040F15088DC2F81FE391C3923BEC73E23A9662EFC9C229C6A00 DUP1 SLOAD SWAP1 PUSH1 0xFF DUP3 PUSH1 0x40 SHR AND ISZERO PUSH8 0xFFFFFFFFFFFFFFFF DUP1 DUP5 AND SWAP4 DUP5 ISZERO DUP1 PUSH2 0x10E8 JUMPI JUMPDEST PUSH1 0x1 DUP1 SWAP7 EQ SWAP1 DUP2 PUSH2 0x10DE JUMPI JUMPDEST ISZERO SWAP1 DUP2 PUSH2 0x10D5 JUMPI JUMPDEST POP PUSH2 0x105B JUMPI PUSH32 0xFFFFFFFFFFFFFFFFFFFFFFFFFFFFFFFFFFFFFFFFFFFFFFFF0000000000000000 SWAP1 DUP4 DUP7 DUP4 DUP4 AND OR DUP7 SSTORE PUSH2 0x10A0 JUMPI JUMPDEST POP DUP4 SLOAD SWAP1 PUSH1 0xFF DUP3 PUSH1 0x40 SHR AND ISZERO SWAP3 DUP3 AND DUP7 DUP2 ISZERO SWAP2 DUP3 PUSH2 0x1098 JUMPI JUMPDEST EQ SWAP1 DUP2 PUSH2 0x108E JUMPI JUMPDEST ISZERO SWAP1 DUP2 PUSH2 0x1085 JUMPI JUMPDEST POP PUSH2 0x105B JUMPI DUP2 AND DUP6 OR DUP5 SSTORE DUP2 PUSH2 0x1026 JUMPI JUMPDEST POP PUSH2 0xF36 PUSH2 0x1831 JUMP JUMPDEST PUSH2 0xF3E PUSH2 0x1831 JUMP JUMPDEST PUSH2 0xF47 CALLER PUSH2 0x16FE JUMP JUMPDEST PUSH2 0xF4F PUSH2 0x1831 JUMP JUMPDEST DUP4 PUSH32 0x9B779B17422D0DF92223018B32B4D1FA46E071723D6817E2486D003BECC55F00 SSTORE PUSH2 0xFD1 JUMPI JUMPDEST PUSH2 0xF7D JUMPI STOP JUMPDEST PUSH32 0xC7F505B2F371AE2175EE4913F4499E1F2633A7B5936321EED1CDAEB6115181D2 SWAP2 DUP2 PUSH32 0xFFFFFFFFFFFFFFFFFFFFFFFFFFFFFFFFFFFFFFFFFFFFFF00FFFFFFFFFFFFFFFF PUSH1 0x20 SWAP4 SLOAD AND SWAP1 SSTORE PUSH1 0x40 MLOAD SWAP1 DUP2 MSTORE LOG1 STOP JUMPDEST PUSH32 0xFFFFFFFFFFFFFFFFFFFFFFFFFFFFFFFFFFFFFFFFFFFFFF00FFFFFFFFFFFFFFFF DUP3 SLOAD AND DUP3 SSTORE PUSH32 0xC7F505B2F371AE2175EE4913F4499E1F2633A7B5936321EED1CDAEB6115181D2 PUSH1 0x20 PUSH1 0x40 MLOAD DUP6 DUP2 MSTORE LOG1 PUSH2 0xF77 JUMP JUMPDEST PUSH32 0xFFFFFFFFFFFFFFFFFFFFFFFFFFFFFFFFFFFFFFFFFFFFFF000000000000000000 AND PUSH9 0x10000000000000001 OR DUP4 SSTORE DUP5 PUSH2 0xF2D JUMP JUMPDEST PUSH1 0x4 PUSH1 0x40 MLOAD PUSH32 0xF92EE8A900000000000000000000000000000000000000000000000000000000 DUP2 MSTORE REVERT JUMPDEST SWAP1 POP ISZERO DUP8 PUSH2 0xF1C JUMP JUMPDEST ADDRESS EXTCODESIZE ISZERO SWAP2 POP PUSH2 0xF14 JUMP JUMPDEST DUP6 SWAP3 POP PUSH2 0xF0C JUMP JUMPDEST PUSH32 0xFFFFFFFFFFFFFFFFFFFFFFFFFFFFFFFFFFFFFFFFFFFFFF000000000000000000 AND PUSH9 0x10000000000000001 OR DUP5 SSTORE DUP6 PUSH2 0xEF3 JUMP JUMPDEST SWAP1 POP ISZERO DUP7 PUSH2 0xEBF JUMP JUMPDEST ADDRESS EXTCODESIZE ISZERO SWAP2 POP PUSH2 0xEB7 JUMP JUMPDEST POP DUP3 PUSH2 0xEAB JUMP JUMPDEST CALLVALUE PUSH2 0xFA JUMPI PUSH1 0x0 PUSH32 0xFFFFFFFFFFFFFFFFFFFFFFFFFFFFFFFFFFFFFFFFFFFFFFFFFFFFFFFFFFFFFFFC CALLDATASIZE ADD SLT PUSH2 0xFA JUMPI PUSH2 0x1126 PUSH2 0x17C1 JUMP JUMPDEST PUSH1 0x0 PUSH20 0xFFFFFFFFFFFFFFFFFFFFFFFFFFFFFFFFFFFFFFFF PUSH32 0x9016D09D72D40FDAE2FD8CEAC6B6234C7706214FD39C1CD1E609A0528C199300 DUP1 SLOAD SWAP1 PUSH32 0xFFFFFFFFFFFFFFFFFFFFFFFF0000000000000000000000000000000000000000 DUP3 AND SWAP1 SSTORE AND PUSH32 0x8BE0079C531659141344CD1FD0A4F28419497F9722A3DAAFE3B4186F6B6457E0 DUP3 DUP1 LOG3 STOP JUMPDEST CALLVALUE PUSH2 0xFA JUMPI PUSH1 0x20 PUSH32 0xFFFFFFFFFFFFFFFFFFFFFFFFFFFFFFFFFFFFFFFFFFFFFFFFFFFFFFFFFFFFFFFC CALLDATASIZE ADD SLT PUSH2 0xFA JUMPI PUSH1 0x4 CALLDATALOAD PUSH8 0xFFFFFFFFFFFFFFFF DUP2 GT PUSH2 0xFA JUMPI PUSH2 0x1215 PUSH1 0x20 PUSH2 0x1203 PUSH1 0x40 SWAP4 CALLDATASIZE SWAP1 PUSH1 0x4 ADD PUSH2 0x14DF JUMP JUMPDEST DUP2 DUP5 MLOAD SWAP4 DUP3 DUP6 DUP1 SWAP5 MLOAD SWAP4 DUP5 SWAP3 ADD PUSH2 0x139B JUMP JUMPDEST DUP2 ADD PUSH1 0x0 DUP2 MSTORE SUB ADD SWAP1 KECCAK256 PUSH1 0x1 DUP2 SLOAD SWAP2 ADD SLOAD DUP3 MLOAD SWAP2 DUP3 MSTORE PUSH1 0x20 DUP3 ADD MSTORE RETURN JUMPDEST CALLVALUE PUSH2 0xFA JUMPI PUSH1 0x20 SWAP1 DUP2 PUSH32 0xFFFFFFFFFFFFFFFFFFFFFFFFFFFFFFFFFFFFFFFFFFFFFFFFFFFFFFFFFFFFFFFC CALLDATASIZE ADD SLT PUSH2 0xFA JUMPI PUSH8 0xFFFFFFFFFFFFFFFF SWAP1 PUSH1 0x4 CALLDATALOAD DUP3 DUP2 GT PUSH2 0xFA JUMPI DUP2 PUSH2 0x1287 DUP6 SWAP3 CALLDATASIZE SWAP1 PUSH1 0x4 ADD PUSH2 0x136D JUMP JUMPDEST DUP1 SWAP2 DUP4 CALLDATACOPY DUP2 ADD PUSH1 0x2 DUP2 MSTORE SUB ADD SWAP1 KECCAK256 DUP1 SLOAD SWAP2 DUP3 GT PUSH2 0x5D7 JUMPI DUP3 SWAP1 PUSH1 0x40 MLOAD SWAP3 PUSH2 0x12B3 DUP4 DUP3 PUSH1 0x5 SHL ADD DUP6 PUSH2 0x1439 JUMP JUMPDEST DUP1 DUP5 MSTORE DUP3 DUP5 ADD DUP1 SWAP3 PUSH1 0x0 MSTORE DUP4 PUSH1 0x0 KECCAK256 PUSH1 0x0 SWAP2 JUMPDEST DUP4 DUP4 LT PUSH2 0x134B JUMPI POP POP POP POP PUSH1 0x40 MLOAD SWAP2 DUP1 DUP4 ADD SWAP4 DUP2 DUP5 MSTORE MLOAD DUP1 SWAP5 MSTORE PUSH1 0x40 DUP4 ADD SWAP4 PUSH1 0x40 DUP2 PUSH1 0x5 SHL DUP6 ADD ADD SWAP3 SWAP2 PUSH1 0x0 SWAP6 JUMPDEST DUP3 DUP8 LT PUSH2 0x1301 JUMPI DUP6 DUP6 SUB DUP7 RETURN JUMPDEST SWAP1 SWAP2 SWAP3 SWAP4 DUP3 DUP1 PUSH2 0x133B DUP4 PUSH32 0xFFFFFFFFFFFFFFFFFFFFFFFFFFFFFFFFFFFFFFFFFFFFFFFFFFFFFFFFFFFFFFC0 DUP11 PUSH1 0x1 SWAP7 SUB ADD DUP7 MSTORE DUP9 MLOAD PUSH2 0x13BE JUMP JUMPDEST SWAP7 ADD SWAP3 ADD SWAP7 ADD SWAP6 SWAP3 SWAP2 SWAP1 SWAP3 PUSH2 0x12F4 JUMP JUMPDEST PUSH1 0x1 DUP7 DUP2 SWAP3 PUSH2 0x135C DUP6 SWAP11 SWAP10 SWAP11 PUSH2 0x1550 JUMP JUMPDEST DUP2 MSTORE ADD SWAP3 ADD SWAP3 ADD SWAP2 SWAP1 SWAP6 SWAP5 SWAP6 PUSH2 0x12C6 JUMP JUMPDEST SWAP2 DUP2 PUSH1 0x1F DUP5 ADD SLT ISZERO PUSH2 0xFA JUMPI DUP3 CALLDATALOAD SWAP2 PUSH8 0xFFFFFFFFFFFFFFFF DUP4 GT PUSH2 0xFA JUMPI PUSH1 0x20 DUP4 DUP2 DUP7 ADD SWAP6 ADD ADD GT PUSH2 0xFA JUMPI JUMP JUMPDEST PUSH1 0x0 JUMPDEST DUP4 DUP2 LT PUSH2 0x13AE JUMPI POP POP PUSH1 0x0 SWAP2 ADD MSTORE JUMP JUMPDEST DUP2 DUP2 ADD MLOAD DUP4 DUP3 ADD MSTORE PUSH1 0x20 ADD PUSH2 0x139E JUMP JUMPDEST SWAP1 PUSH32 0xFFFFFFFFFFFFFFFFFFFFFFFFFFFFFFFFFFFFFFFFFFFFFFFFFFFFFFFFFFFFFFE0 PUSH1 0x1F PUSH1 0x20 SWAP4 PUSH2 0x13FA DUP2 MLOAD DUP1 SWAP3 DUP2 DUP8 MSTORE DUP8 DUP1 DUP9 ADD SWAP2 ADD PUSH2 0x139B JUMP JUMPDEST ADD AND ADD ADD SWAP1 JUMP JUMPDEST PUSH1 0x40 DUP2 ADD SWAP1 DUP2 LT PUSH8 0xFFFFFFFFFFFFFFFF DUP3 GT OR PUSH2 0x5D7 JUMPI PUSH1 0x40 MSTORE JUMP JUMPDEST PUSH1 0x60 DUP2 ADD SWAP1 DUP2 LT PUSH8 0xFFFFFFFFFFFFFFFF DUP3 GT OR PUSH2 0x5D7 JUMPI PUSH1 0x40 MSTORE JUMP JUMPDEST SWAP1 PUSH1 0x1F PUSH32 0xFFFFFFFFFFFFFFFFFFFFFFFFFFFFFFFFFFFFFFFFFFFFFFFFFFFFFFFFFFFFFFE0 SWAP2 ADD AND DUP2 ADD SWAP1 DUP2 LT PUSH8 0xFFFFFFFFFFFFFFFF DUP3 GT OR PUSH2 0x5D7 JUMPI PUSH1 0x40 MSTORE JUMP JUMPDEST SWAP3 SWAP2 SWAP3 PUSH8 0xFFFFFFFFFFFFFFFF DUP3 GT PUSH2 0x5D7 JUMPI PUSH1 0x40 MLOAD SWAP2 PUSH2 0x14C2 PUSH1 0x20 PUSH32 0xFFFFFFFFFFFFFFFFFFFFFFFFFFFFFFFFFFFFFFFFFFFFFFFFFFFFFFFFFFFFFFE0 PUSH1 0x1F DUP5 ADD AND ADD DUP5 PUSH2 0x1439 JUMP JUMPDEST DUP3 SWAP5 DUP2 DUP5 MSTORE DUP2 DUP4 ADD GT PUSH2 0xFA JUMPI DUP3 DUP2 PUSH1 0x20 SWAP4 DUP5 PUSH1 0x0 SWAP7 ADD CALLDATACOPY ADD ADD MSTORE JUMP JUMPDEST SWAP1 DUP1 PUSH1 0x1F DUP4 ADD SLT ISZERO PUSH2 0xFA JUMPI DUP2 PUSH1 0x20 PUSH2 0x14FA SWAP4 CALLDATALOAD SWAP2 ADD PUSH2 0x147A JUMP JUMPDEST SWAP1 JUMP JUMPDEST SWAP1 PUSH1 0x1 DUP3 DUP2 SHR SWAP3 AND DUP1 ISZERO PUSH2 0x1546 JUMPI JUMPDEST PUSH1 0x20 DUP4 LT EQ PUSH2 0x1517 JUMPI JUMP JUMPDEST PUSH32 0x4E487B7100000000000000000000000000000000000000000000000000000000 PUSH1 0x0 MSTORE PUSH1 0x22 PUSH1 0x4 MSTORE PUSH1 0x24 PUSH1 0x0 REVERT JUMPDEST SWAP2 PUSH1 0x7F AND SWAP2 PUSH2 0x150C JUMP JUMPDEST SWAP1 PUSH1 0x40 MLOAD SWAP2 DUP3 PUSH1 0x0 DUP3 SLOAD PUSH2 0x1563 DUP2 PUSH2 0x14FD JUMP JUMPDEST SWAP1 DUP2 DUP5 MSTORE PUSH1 0x20 SWAP5 PUSH1 0x1 SWAP2 PUSH1 0x1 DUP2 AND SWAP1 DUP2 PUSH1 0x0 EQ PUSH2 0x15D3 JUMPI POP PUSH1 0x1 EQ PUSH2 0x1594 JUMPI JUMPDEST POP POP POP PUSH2 0x1592 SWAP3 POP SUB DUP4 PUSH2 0x1439 JUMP JUMPDEST JUMP JUMPDEST PUSH1 0x0 SWAP1 DUP2 MSTORE DUP6 DUP2 KECCAK256 SWAP6 SWAP4 POP SWAP2 SWAP1 JUMPDEST DUP2 DUP4 LT PUSH2 0x15BB JUMPI POP POP PUSH2 0x1592 SWAP4 POP DUP3 ADD ADD CODESIZE DUP1 DUP1 PUSH2 0x1583 JUMP JUMPDEST DUP6 SLOAD DUP9 DUP5 ADD DUP6 ADD MSTORE SWAP5 DUP6 ADD SWAP5 DUP8 SWAP5 POP SWAP2 DUP4 ADD SWAP2 PUSH2 0x15A2 JUMP JUMPDEST SWAP2 POP POP PUSH2 0x1592 SWAP6 SWAP4 POP PUSH32 0xFFFFFFFFFFFFFFFFFFFFFFFFFFFFFFFFFFFFFFFFFFFFFFFFFFFFFFFFFFFFFF00 SWAP2 POP AND DUP3 DUP5 ADD MSTORE ISZERO ISZERO PUSH1 0x5 SHL DUP3 ADD ADD CODESIZE DUP1 DUP1 PUSH2 0x1583 JUMP JUMPDEST PUSH1 0x20 SWAP2 SWAP3 DUP4 PUSH1 0x40 MLOAD SWAP5 DUP6 SWAP4 DUP5 CALLDATACOPY DUP3 ADD SWAP1 DUP2 MSTORE SUB ADD SWAP1 KECCAK256 SWAP1 JUMP JUMPDEST PUSH1 0x1F DUP3 PUSH1 0x20 SWAP5 SWAP4 PUSH32 0xFFFFFFFFFFFFFFFFFFFFFFFFFFFFFFFFFFFFFFFFFFFFFFFFFFFFFFFFFFFFFFE0 SWAP4 DUP2 DUP7 MSTORE DUP7 DUP7 ADD CALLDATACOPY PUSH1 0x0 DUP6 DUP3 DUP7 ADD ADD MSTORE ADD AND ADD ADD SWAP1 JUMP JUMPDEST SWAP2 SWAP1 DUP3 ADD DUP1 SWAP3 GT PUSH2 0x1679 JUMPI JUMP JUMPDEST PUSH32 0x4E487B7100000000000000000000000000000000000000000000000000000000 PUSH1 0x0 MSTORE PUSH1 0x11 PUSH1 0x4 MSTORE PUSH1 0x24 PUSH1 0x0 REVERT JUMPDEST SWAP1 PUSH1 0x1F DUP2 GT PUSH2 0x16B6 JUMPI POP POP POP JUMP JUMPDEST PUSH1 0x0 SWAP2 PUSH1 0x0 MSTORE PUSH1 0x20 PUSH1 0x0 KECCAK256 SWAP1 PUSH1 0x20 PUSH1 0x1F DUP6 ADD PUSH1 0x5 SHR DUP4 ADD SWAP5 LT PUSH2 0x16F4 JUMPI JUMPDEST PUSH1 0x1F ADD PUSH1 0x5 SHR ADD SWAP2 JUMPDEST DUP3 DUP2 LT PUSH2 0x16E9 JUMPI POP POP POP JUMP JUMPDEST DUP2 DUP2 SSTORE PUSH1 0x1 ADD PUSH2 0x16DD JUMP JUMPDEST SWAP1 SWAP3 POP DUP3 SWAP1 PUSH2 0x16D4 JUMP JUMPDEST PUSH20 0xFFFFFFFFFFFFFFFFFFFFFFFFFFFFFFFFFFFFFFFF DUP1 SWAP2 AND SWAP1 DUP2 ISZERO PUSH2 0x1790 JUMPI PUSH32 0x9016D09D72D40FDAE2FD8CEAC6B6234C7706214FD39C1CD1E609A0528C199300 DUP1 SLOAD SWAP1 DUP4 PUSH32 0xFFFFFFFFFFFFFFFFFFFFFFFF0000000000000000000000000000000000000000 DUP4 AND OR SWAP1 SSTORE AND PUSH32 0x8BE0079C531659141344CD1FD0A4F28419497F9722A3DAAFE3B4186F6B6457E0 PUSH1 0x0 DUP1 LOG3 JUMP JUMPDEST PUSH1 0x24 PUSH1 0x40 MLOAD PUSH32 0x1E4FBDF700000000000000000000000000000000000000000000000000000000 DUP2 MSTORE PUSH1 0x0 PUSH1 0x4 DUP3 ADD MSTORE REVERT JUMPDEST PUSH20 0xFFFFFFFFFFFFFFFFFFFFFFFFFFFFFFFFFFFFFFFF PUSH32 0x9016D09D72D40FDAE2FD8CEAC6B6234C7706214FD39C1CD1E609A0528C199300 SLOAD AND CALLER SUB PUSH2 0x1801 JUMPI JUMP JUMPDEST PUSH1 0x24 PUSH1 0x40 MLOAD PUSH32 0x118CDAA700000000000000000000000000000000000000000000000000000000 DUP2 MSTORE CALLER PUSH1 0x4 DUP3 ADD MSTORE REVERT JUMPDEST PUSH1 0xFF PUSH32 0xF0C57E16840DF040F15088DC2F81FE391C3923BEC73E23A9662EFC9C229C6A00 SLOAD PUSH1 0x40 SHR AND ISZERO PUSH2 0x1860 JUMPI JUMP JUMPDEST PUSH1 0x4 PUSH1 0x40 MLOAD PUSH32 0xD7E6BCF800000000000000000000000000000000000000000000000000000000 DUP2 MSTORE REVERT INVALID LOG2 PUSH5 0x6970667358 0x22 SLT KECCAK256 0x26 LOG3 0xD0 MOD ORIGIN OR PUSH26 0x6B315E26240EB1C9B97DB7200376ECD4038931FC3790CD041664 PUSH20 0x6F6C634300081800330000000000000000000000 "},"gasEstimates":{"creation":{"codeDepositCost":"1267200","executionCost":"1324","totalCost":"1268524"},"external":{"encryptedSessionBids(string,string)":"infinite","getAllBidderIds(string)":"infinite","getBid(string,string)":"infinite","initialize()":"infinite","isSessionActive(string)":"infinite","owner()":"2371","renounceOwnership()":"28062","sessions(string)":"infinite","setSessionViewWindow(string,uint256)":"infinite","submitBid(string,string,string,string)":"infinite","transferOwnership(address)":"28330"},"internal":{"__RewardManager_init()":"infinite"}},"methodIdentifiers":{"encryptedSessionBids(string,string)":"f198bb7c","getAllBidderIds(string)":"4f020ec8","getBid(string,string)":"9da68881","initialize()":"8129fc1c","isSessionActive(string)":"9c802980","owner()":"8da5cb5b","renounceOwnership()":"715018a6","sessions(string)":"4f4ba348","setSessionViewWindow(string,uint256)":"851e69af","submitBid(string,string,string,string)":"af868dac","transferOwnership(address)":"f2fde38b"}},"storageLayout":{"storage":[{"astId":662,"contract":"contracts/EncryptedBidContract.sol:EncryptedBidContract","label":"sessions","offset":0,"slot":"0","type":"t_mapping(t_string_memory_ptr,t_struct(Session)657_storage)"},{"astId":669,"contract":"contracts/EncryptedBidContract.sol:EncryptedBidContract","label":"encryptedSessionBids","offset":0,"slot":"1","type":"t_mapping(t_string_memory_ptr,t_mapping(t_string_memory_ptr,t_struct(EncryptedBid)652_storage))"},{"astId":674,"contract":"contracts/EncryptedBidContract.sol:EncryptedBidContract","label":"sessionBidderIds","offset":0,"slot":"2","type":"t_mapping(t_string_memory_ptr,t_array(t_string_storage)dyn_storage)"}],"types":{"t_array(t_string_storage)dyn_storage":{"base":"t_string_storage","encoding":"dynamic_array","label":"string[]","numberOfBytes":"32"},"t_mapping(t_string_memory_ptr,t_array(t_string_storage)dyn_storage)":{"encoding":"mapping","key":"t_string_memory_ptr","label":"mapping(string => string[])","numberOfBytes":"32","value":"t_array(t_string_storage)dyn_storage"},"t_mapping(t_string_memory_ptr,t_mapping(t_string_memory_ptr,t_struct(EncryptedBid)652_storage))":{"encoding":"mapping","key":"t_string_memory_ptr","label":"mapping(string => mapping(string => struct EncryptedBidContract.EncryptedBid))","numberOfBytes":"32","value":"t_mapping(t_string_memory_ptr,t_struct(EncryptedBid)652_storage)"},"t_mapping(t_string_memory_ptr,t_struct(EncryptedBid)652_storage)":{"encoding":"mapping","key":"t_string_memory_ptr","label":"mapping(string => struct EncryptedBidContract.EncryptedBid)","numberOfBytes":"32","value":"t_struct(EncryptedBid)652_storage"},"t_mapping(t_string_memory_ptr,t_struct(Session)657_storage)":{"encoding":"mapping","key":"t_string_memory_ptr","label":"mapping(string => struct EncryptedBidContract.Session)","numberOfBytes":"32","value":"t_struct(Session)657_storage"},"t_string_memory_ptr":{"encoding":"bytes","label":"string","numberOfBytes":"32"},"t_string_storage":{"encoding":"bytes","label":"string","numberOfBytes":"32"},"t_struct(EncryptedBid)652_storage":{"encoding":"inplace","label":"struct EncryptedBidContract.EncryptedBid","members":[{"astId":647,"contract":"contracts/EncryptedBidContract.sol:EncryptedBidContract","label":"encryptedData","offset":0,"slot":"0","type":"t_string_storage"},{"astId":649,"contract":"contracts/EncryptedBidContract.sol:EncryptedBidContract","label":"iv","offset":0,"slot":"1","type":"t_string_storage"},{"astId":651,"contract":"contracts/EncryptedBidContract.sol:EncryptedBidContract","label":"timestamp","offset":0,"slot":"2","type":"t_uint256"}],"numberOfBytes":"96"},"t_struct(Session)657_storage":{"encoding":"inplace","label":"struct EncryptedBidContract.Session","members":[{"astId":654,"contract":"contracts/EncryptedBidContract.sol:EncryptedBidContract","label":"viewWindow","offset":0,"slot":"0","type":"t_uint256"},{"astId":656,"contract":"contracts/EncryptedBidContract.sol:EncryptedBidContract","label":"startTime","offset":0,"slot":"1","type":"t_uint256"}],"numberOfBytes":"64"},"t_uint256":{"encoding":"inplace","label":"uint256","numberOfBytes":"32"}}},"userdoc":{"kind":"user","methods":{"getAllBidderIds(string)":{"notice":"Get all bidderIds for a session"},"getBid(string,string)":{"notice":"Get a bid for a session & bidder (if within session's view window)"},"setSessionViewWindow(string,uint256)":{"notice":"Set the viewing window for a specific session"},"submitBid(string,string,string,string)":{"notice":"Submit a bid for a session"}},"version":1}}}}