{
  "_format": "hh-sol-artifact-1",
  "contractName": "EncryptedBidContract",
  "sourceName": "contracts/EncryptedBidContract.sol",
  "abi": [
    {
      "inputs": [],
      "name": "InvalidInitialization",
      "type": "error"
    },
    {
      "inputs": [],
      "name": "NotInitializing",
      "type": "error"
    },
    {
      "inputs": [
        {
          "internalType": "address",
          "name": "owner",
          "type": "address"
        }
      ],
      "name": "OwnableInvalidOwner",
      "type": "error"
    },
    {
      "inputs": [
        {
          "internalType": "address",
          "name": "account",
          "type": "address"
        }
      ],
      "name": "OwnableUnauthorizedAccount",
      "type": "error"
    },
    {
      "inputs": [],
      "name": "ReentrancyGuardReentrantCall",
      "type": "error"
    },
    {
      "anonymous": false,
      "inputs": [
        {
          "indexed": false,
          "internalType": "string",
          "name": "sessionId",
          "type": "string"
        },
        {
          "indexed": false,
          "internalType": "string",
          "name": "bidderId",
          "type": "string"
        }
      ],
      "name": "BidSubmitted",
      "type": "event"
    },
    {
      "anonymous": false,
      "inputs": [
        {
          "indexed": false,
          "internalType": "uint64",
          "name": "version",
          "type": "uint64"
        }
      ],
      "name": "Initialized",
      "type": "event"
    },
    {
      "anonymous": false,
      "inputs": [
        {
          "indexed": true,
          "internalType": "address",
          "name": "previousOwner",
          "type": "address"
        },
        {
          "indexed": true,
          "internalType": "address",
          "name": "newOwner",
          "type": "address"
        }
      ],
      "name": "OwnershipTransferred",
      "type": "event"
    },
    {
      "anonymous": false,
      "inputs": [
        {
          "indexed": false,
          "internalType": "string",
          "name": "sessionId",
          "type": "string"
        },
        {
          "indexed": false,
          "internalType": "uint256",
          "name": "duration",
          "type": "uint256"
        }
      ],
      "name": "SessionViewWindowSet",
      "type": "event"
    },
    {
      "inputs": [
        {
          "internalType": "string",
          "name": "",
          "type": "string"
        },
        {
          "internalType": "string",
          "name": "",
          "type": "string"
        }
      ],
      "name": "encryptedSessionBids",
      "outputs": [
        {
          "internalType": "string",
          "name": "encryptedData",
          "type": "string"
        },
        {
          "internalType": "string",
          "name": "iv",
          "type": "string"
        },
        {
          "internalType": "uint256",
          "name": "timestamp",
          "type": "uint256"
        }
      ],
      "stateMutability": "view",
      "type": "function"
    },
    {
      "inputs": [
        {
          "internalType": "string",
          "name": "sessionId",
          "type": "string"
        }
      ],
      "name": "getAllBidderIds",
      "outputs": [
        {
          "internalType": "string[]",
          "name": "",
          "type": "string[]"
        }
      ],
      "stateMutability": "view",
      "type": "function"
    },
    {
      "inputs": [
        {
          "internalType": "string",
          "name": "sessionId",
          "type": "string"
        },
        {
          "internalType": "string",
          "name": "bidderId",
          "type": "string"
        }
      ],
      "name": "getBid",
      "outputs": [
        {
          "components": [
            {
              "internalType": "string",
              "name": "encryptedData",
              "type": "string"
            },
            {
              "internalType": "string",
              "name": "iv",
              "type": "string"
            },
            {
              "internalType": "uint256",
              "name": "timestamp",
              "type": "uint256"
            }
          ],
          "internalType": "struct EncryptedBidContract.EncryptedBid",
          "name": "",
          "type": "tuple"
        }
      ],
      "stateMutability": "view",
      "type": "function"
    },
    {
      "inputs": [],
      "name": "initialize",
      "outputs": [],
      "stateMutability": "nonpayable",
      "type": "function"
    },
    {
      "inputs": [
        {
          "internalType": "string",
          "name": "sessionId",
          "type": "string"
        }
      ],
      "name": "isSessionActive",
      "outputs": [
        {
          "internalType": "bool",
          "name": "",
          "type": "bool"
        }
      ],
      "stateMutability": "view",
      "type": "function"
    },
    {
      "inputs": [],
      "name": "owner",
      "outputs": [
        {
          "internalType": "address",
          "name": "",
          "type": "address"
        }
      ],
      "stateMutability": "view",
      "type": "function"
    },
    {
      "inputs": [],
      "name": "renounceOwnership",
      "outputs": [],
      "stateMutability": "nonpayable",
      "type": "function"
    },
    {
      "inputs": [
        {
          "internalType": "string",
          "name": "",
          "type": "string"
        }
      ],
      "name": "sessions",
      "outputs": [
        {
          "internalType": "uint256",
          "name": "viewWindow",
          "type": "uint256"
        },
        {
          "internalType": "uint256",
          "name": "startTime",
          "type": "uint256"
        }
      ],
      "stateMutability": "view",
      "type": "function"
    },
    {
      "inputs": [
        {
          "internalType": "string",
          "name": "sessionId",
          "type": "string"
        },
        {
          "internalType": "uint256",
          "name": "duration",
          "type": "uint256"
        }
      ],
      "name": "setSessionViewWindow",
      "outputs": [],
      "stateMutability": "nonpayable",
      "type": "function"
    },
    {
      "inputs": [
        {
          "internalType": "string",
          "name": "sessionId",
          "type": "string"
        },
        {
          "internalType": "string",
          "name": "bidderId",
          "type": "string"
        },
        {
          "internalType": "string",
          "name": "encryptedData",
          "type": "string"
        },
        {
          "internalType": "string",
          "name": "iv",
          "type": "string"
        }
      ],
      "name": "submitBid",
      "outputs": [],
      "stateMutability": "nonpayable",
      "type": "function"
    },
    {
      "inputs": [
        {
          "internalType": "address",
          "name": "newOwner",
          "type": "address"
        }
      ],
      "name": "transferOwnership",
      "outputs": [],
      "stateMutability": "nonpayable",
      "type": "function"
    }
  ],
  "bytecode": "0x60808060405234610016576118c0908161001c8239f35b600080fdfe608080604052600436101561001357600080fd5b60003560e01c9081634f020ec814611232575080634f4ba348146111ad578063715018a6146110ef5780638129fc1c14610e3b578063851e69af14610d025780638da5cb5b14610c915780639c80298014610be45780639da688811461093d578063af868dac146101f9578063f198bb7c146100ff5763f2fde38b1461009857600080fd5b346100fa5760207ffffffffffffffffffffffffffffffffffffffffffffffffffffffffffffffffc3601126100fa5760043573ffffffffffffffffffffffffffffffffffffffff811681036100fa576100f8906100f36117c1565b6116fe565b005b600080fd5b346100fa5760407ffffffffffffffffffffffffffffffffffffffffffffffffffffffffffffffffc3601126100fa5767ffffffffffffffff6004358181116100fa5761014f9036906004016114df565b6024359182116100fa5760206101a591610188826101746101e19636906004016114df565b92816040519382858094519384920161139b565b81016001815203019020826040519483868095519384920161139b565b8201908152030190206101b781611550565b906101ef60026101c960018401611550565b920154916040519485946060865260608601906113be565b9084820360208601526113be565b9060408301520390f35b346100fa5760807ffffffffffffffffffffffffffffffffffffffffffffffffffffffffffffffffc3601126100fa5760043567ffffffffffffffff81116100fa5761024890369060040161136d565b9060243567ffffffffffffffff81116100fa5761026990369060040161136d565b929060443567ffffffffffffffff81116100fa5761028b90369060040161136d565b949060643567ffffffffffffffff81116100fa576102ad90369060040161136d565b90916102b76117c1565b6040518688823760208188810160008152030190206040516102d881611401565b600182549283835201549160208201928352156108df576102fc915190519061166c565b42116108815761032a610324604051888a82376020818a810160018152030190208688611614565b546114fd565b156106b5575b9061034d6103569392604051996103468b61141d565b369161147a565b8852369161147a565b602086019081524260408701526103826040518587823760208187810160018152030190208385611614565b90865180519067ffffffffffffffff82116105d7576103ab826103a586546114fd565b866116a8565b602090601f8311600114610611576103f9929160009183610606575b50507fffffffffffffffffffffffffffffffffffffffffffffffffffffffffffffffff8260011b9260031b1c19161790565b82555b5195865167ffffffffffffffff81116105d7576104298161042060018601546114fd565b600186016116a8565b6020601f82116001146104e2576104d2959493926104a2836002946040947f8ca29c64697f1118d070b0a2b93f2f864a0f71398ac22ddd7d39dea7938049459d6000926104d75750507fffffffffffffffffffffffffffffffffffffffffffffffffffffffffffffffff8260011b9260031b1c19161790565b60018501555b01519101556104c460405195869560408752604087019161162d565b91848303602086015261162d565b0390a1005b015190508d806103c7565b6001840160005260206000209860005b7fffffffffffffffffffffffffffffffffffffffffffffffffffffffffffffffe0841681106105bf5750926001837f8ca29c64697f1118d070b0a2b93f2f864a0f71398ac22ddd7d39dea7938049459b6040946104d29a999897837fffffffffffffffffffffffffffffffffffffffffffffffffffffffffffffffe06002991610610588575b505050811b0160018501556104a8565b01517fffffffffffffffffffffffffffffffffffffffffffffffffffffffffffffffff60f88460031b161c191690558c8080610578565b828201518b556001909a0199602092830192016104f2565b7f4e487b7100000000000000000000000000000000000000000000000000000000600052604160045260246000fd5b015190508a806103c7565b907fffffffffffffffffffffffffffffffffffffffffffffffffffffffffffffffe08316918560005260206000209260005b81811061069d5750908460019594939210610666575b505050811b0182556103fc565b01517fffffffffffffffffffffffffffffffffffffffffffffffffffffffffffffffff60f88460031b161c19169055898080610659565b92936020600181928786015181550195019301610643565b604051868882376020818881016002815203019020805490680100000000000000008210156105d757600182018082558210156108525760005260206000200167ffffffffffffffff85116105d7576107188561071283546114fd565b836116a8565b846000601f8211600114610787579161076f826103569796959361034d9560009161077c575b507fffffffffffffffffffffffffffffffffffffffffffffffffffffffffffffffff8260011b9260031b1c19161790565b90555b9192935050610330565b90508a01358e61073e565b60008381526020812092505b7fffffffffffffffffffffffffffffffffffffffffffffffffffffffffffffffe08816811061083a5750916103569594939161034d93887fffffffffffffffffffffffffffffffffffffffffffffffffffffffffffffffe0811610610802575b5050600187811b019055610772565b7fffffffffffffffffffffffffffffffffffffffffffffffffffffffffffffffff60f88a60031b161c19908a01351690558b806107f3565b9091602060018192858c013581550193019101610793565b7f4e487b7100000000000000000000000000000000000000000000000000000000600052603260045260246000fd5b60646040517f08c379a000000000000000000000000000000000000000000000000000000000815260206004820152600f60248201527f53657373696f6e206578706972656400000000000000000000000000000000006044820152fd5b60646040517f08c379a000000000000000000000000000000000000000000000000000000000815260206004820152601760248201527f53657373696f6e206e6f7420696e697469616c697a65640000000000000000006044820152fd5b346100fa5760407ffffffffffffffffffffffffffffffffffffffffffffffffffffffffffffffffc3601126100fa5767ffffffffffffffff6004358181116100fa5761098d90369060040161136d565b906024359283116100fa576109a96109e593369060040161136d565b9390604051946109b88661141d565b60608652600060406020976060898201520152604051858582378681878101600181520301902091611614565b604051926109f28461141d565b6109fb82611550565b84526002610a0b60018401611550565b92868601938452015492604085019380855215610b865785908260405193849283378101600081520301902060405190610a4482611401565b600181549182845201549086830191825215610b2857519051610a669161166c565b4211610aca57610abf90610a8e606095604051968796828852519187015260808601906113be565b90517fffffffffffffffffffffffffffffffffffffffffffffffffffffffffffffffe08583030160408601526113be565b905160608301520390f35b606484604051907f08c379a00000000000000000000000000000000000000000000000000000000082526004820152600b60248201527f42696420657870697265640000000000000000000000000000000000000000006044820152fd5b606486604051907f08c379a00000000000000000000000000000000000000000000000000000000082526004820152600f60248201527f53657373696f6e206e6f742073657400000000000000000000000000000000006044820152fd5b606486604051907f08c379a00000000000000000000000000000000000000000000000000000000082526004820152601260248201527f42696420646f6573206e6f7420657869737400000000000000000000000000006044820152fd5b346100fa5760207ffffffffffffffffffffffffffffffffffffffffffffffffffffffffffffffffc3601126100fa5760043567ffffffffffffffff81116100fa57602080610c378193369060040161136d565b919082604051938492833781016000815203019020604051610c5881611401565b6001825492838352015492839101528015159182610c7d575b50506040519015158152f35b610c87925061166c565b4211158280610c71565b346100fa5760007ffffffffffffffffffffffffffffffffffffffffffffffffffffffffffffffffc3601126100fa57602073ffffffffffffffffffffffffffffffffffffffff7f9016d09d72d40fdae2fd8ceac6b6234c7706214fd39c1cd1e609a0528c1993005416604051908152f35b346100fa5760407ffffffffffffffffffffffffffffffffffffffffffffffffffffffffffffffffc3601126100fa5760043567ffffffffffffffff81116100fa57610d5190369060040161136d565b9060243591610d5e6117c1565b8215610ddd577fea426717d80d84d12bd275c2d5c8dbe1a35b413bddba1584b3cbbda080f7817792604051610d9281611401565b8181526001602082014281526040518587823760208187810160008152030190209251835551910155610dd260405193849360408552604085019161162d565b9060208301520390a1005b60646040517f08c379a000000000000000000000000000000000000000000000000000000000815260206004820152601960248201527f4475726174696f6e206d75737420626520706f736974697665000000000000006044820152fd5b346100fa5760007ffffffffffffffffffffffffffffffffffffffffffffffffffffffffffffffffc3601126100fa577ff0c57e16840df040f15088dc2f81fe391c3923bec73e23a9662efc9c229c6a0080549060ff8260401c161567ffffffffffffffff808416938415806110e8575b600180961490816110de575b1590816110d5575b5061105b577fffffffffffffffffffffffffffffffffffffffffffffffff00000000000000009083868383161786556110a0575b5083549060ff8260401c16159282168681159182611098575b14908161108e575b159081611085575b5061105b5781168517845581611026575b50610f36611831565b610f3e611831565b610f47336116fe565b610f4f611831565b837f9b779b17422d0df92223018b32b4d1fa46e071723d6817e2486d003becc55f0055610fd1575b610f7d57005b7fc7f505b2f371ae2175ee4913f4499e1f2633a7b5936321eed1cdaeb6115181d291817fffffffffffffffffffffffffffffffffffffffffffffff00ffffffffffffffff60209354169055604051908152a1005b7fffffffffffffffffffffffffffffffffffffffffffffff00ffffffffffffffff82541682557fc7f505b2f371ae2175ee4913f4499e1f2633a7b5936321eed1cdaeb6115181d26020604051858152a1610f77565b7fffffffffffffffffffffffffffffffffffffffffffffff000000000000000000166801000000000000000117835584610f2d565b60046040517ff92ee8a9000000000000000000000000000000000000000000000000000000008152fd5b90501587610f1c565b303b159150610f14565b859250610f0c565b7fffffffffffffffffffffffffffffffffffffffffffffff000000000000000000166801000000000000000117845585610ef3565b90501586610ebf565b303b159150610eb7565b5082610eab565b346100fa5760007ffffffffffffffffffffffffffffffffffffffffffffffffffffffffffffffffc3601126100fa576111266117c1565b600073ffffffffffffffffffffffffffffffffffffffff7f9016d09d72d40fdae2fd8ceac6b6234c7706214fd39c1cd1e609a0528c1993008054907fffffffffffffffffffffffff000000000000000000000000000000000000000082169055167f8be0079c531659141344cd1fd0a4f28419497f9722a3daafe3b4186f6b6457e08280a3005b346100fa5760207ffffffffffffffffffffffffffffffffffffffffffffffffffffffffffffffffc3601126100fa5760043567ffffffffffffffff81116100fa57611215602061120360409336906004016114df565b8184519382858094519384920161139b565b810160008152030190206001815491015482519182526020820152f35b346100fa57602090817ffffffffffffffffffffffffffffffffffffffffffffffffffffffffffffffffc3601126100fa5767ffffffffffffffff906004358281116100fa57816112878592369060040161136d565b809183378101600281520301902080549182116105d7578290604051926112b3838260051b0185611439565b8084528284018092600052836000206000915b83831061134b5750505050604051918083019381845251809452604083019360408160051b85010192916000955b8287106113015785850386f35b90919293828061133b837fffffffffffffffffffffffffffffffffffffffffffffffffffffffffffffffc08a6001960301865288516113be565b96019201960195929190926112f4565b600186819261135c859a999a611550565b8152019201920191909594956112c6565b9181601f840112156100fa5782359167ffffffffffffffff83116100fa57602083818601950101116100fa57565b60005b8381106113ae5750506000910152565b818101518382015260200161139e565b907fffffffffffffffffffffffffffffffffffffffffffffffffffffffffffffffe0601f6020936113fa8151809281875287808801910161139b565b0116010190565b6040810190811067ffffffffffffffff8211176105d757604052565b6060810190811067ffffffffffffffff8211176105d757604052565b90601f7fffffffffffffffffffffffffffffffffffffffffffffffffffffffffffffffe0910116810190811067ffffffffffffffff8211176105d757604052565b92919267ffffffffffffffff82116105d757604051916114c260207fffffffffffffffffffffffffffffffffffffffffffffffffffffffffffffffe0601f8401160184611439565b8294818452818301116100fa578281602093846000960137010152565b9080601f830112156100fa578160206114fa9335910161147a565b90565b90600182811c92168015611546575b602083101461151757565b7f4e487b7100000000000000000000000000000000000000000000000000000000600052602260045260246000fd5b91607f169161150c565b90604051918260008254611563816114fd565b908184526020946001916001811690816000146115d35750600114611594575b50505061159292500383611439565b565b600090815285812095935091905b8183106115bb5750506115929350820101388080611583565b855488840185015294850194879450918301916115a2565b9150506115929593507fffffffffffffffffffffffffffffffffffffffffffffffffffffffffffffff0091501682840152151560051b820101388080611583565b6020919283604051948593843782019081520301902090565b601f82602094937fffffffffffffffffffffffffffffffffffffffffffffffffffffffffffffffe0938186528686013760008582860101520116010190565b9190820180921161167957565b7f4e487b7100000000000000000000000000000000000000000000000000000000600052601160045260246000fd5b90601f81116116b657505050565b6000916000526020600020906020601f850160051c830194106116f4575b601f0160051c01915b8281106116e957505050565b8181556001016116dd565b90925082906116d4565b73ffffffffffffffffffffffffffffffffffffffff809116908115611790577f9016d09d72d40fdae2fd8ceac6b6234c7706214fd39c1cd1e609a0528c199300805490837fffffffffffffffffffffffff00000000000000000000000000000000000000008316179055167f8be0079c531659141344cd1fd0a4f28419497f9722a3daafe3b4186f6b6457e0600080a3565b60246040517f1e4fbdf700000000000000000000000000000000000000000000000000000000815260006004820152fd5b73ffffffffffffffffffffffffffffffffffffffff7f9016d09d72d40fdae2fd8ceac6b6234c7706214fd39c1cd1e609a0528c1993005416330361180157565b60246040517f118cdaa7000000000000000000000000000000000000000000000000000000008152336004820152fd5b60ff7ff0c57e16840df040f15088dc2f81fe391c3923bec73e23a9662efc9c229c6a005460401c161561186057565b60046040517fd7e6bcf8000000000000000000000000000000000000000000000000000000008152fdfea264697066735822122026a3d0063217796b315e26240eb1c9b97db7200376ecd4038931fc3790cd041664736f6c63430008180033",
  "linkReferences": {},
  "deployedLinkReferences": {}
}