{
  "_format": "hh-sol-artifact-1",
  "contractName": "EncryptedBidContract",
  "sourceName": "contracts/EncryptedBidContract.sol",
  "abi": [
    {
      "inputs": [],
      "name": "InvalidInitialization",
      "type": "error"
    },
    {
      "inputs": [],
      "name": "NotInitializing",
      "type": "error"
    },
    {
      "inputs": [
        {
          "internalType": "address",
          "name": "owner",
          "type": "address"
        }
      ],
      "name": "OwnableInvalidOwner",
      "type": "error"
    },
    {
      "inputs": [
        {
          "internalType": "address",
          "name": "account",
          "type": "address"
        }
      ],
      "name": "OwnableUnauthorizedAccount",
      "type": "error"
    },
    {
      "inputs": [],
      "name": "ReentrancyGuardReentrantCall",
      "type": "error"
    },
    {
      "anonymous": false,
      "inputs": [
        {
          "indexed": false,
          "internalType": "string",
          "name": "sessionId",
          "type": "string"
        },
        {
          "indexed": false,
          "internalType": "string",
          "name": "bidderId",
          "type": "string"
        }
      ],
      "name": "BidSubmitted",
      "type": "event"
    },
    {
      "anonymous": false,
      "inputs": [
        {
          "indexed": false,
          "internalType": "uint64",
          "name": "version",
          "type": "uint64"
        }
      ],
      "name": "Initialized",
      "type": "event"
    },
    {
      "anonymous": false,
      "inputs": [
        {
          "indexed": true,
          "internalType": "address",
          "name": "previousOwner",
          "type": "address"
        },
        {
          "indexed": true,
          "internalType": "address",
          "name": "newOwner",
          "type": "address"
        }
      ],
      "name": "OwnershipTransferred",
      "type": "event"
    },
    {
      "anonymous": false,
      "inputs": [
        {
          "indexed": false,
          "internalType": "string",
          "name": "sessionId",
          "type": "string"
        },
        {
          "indexed": false,
          "internalType": "uint256",
          "name": "duration",
          "type": "uint256"
        }
      ],
      "name": "SessionViewWindowSet",
      "type": "event"
    },
    {
      "inputs": [
        {
          "internalType": "string",
          "name": "",
          "type": "string"
        },
        {
          "internalType": "string",
          "name": "",
          "type": "string"
        }
      ],
      "name": "encryptedSessionBids",
      "outputs": [
        {
          "internalType": "string",
          "name": "encryptedData",
          "type": "string"
        },
        {
          "internalType": "string",
          "name": "iv",
          "type": "string"
        },
        {
          "internalType": "uint256",
          "name": "timestamp",
          "type": "uint256"
        }
      ],
      "stateMutability": "view",
      "type": "function"
    },
    {
      "inputs": [
        {
          "internalType": "string",
          "name": "sessionId",
          "type": "string"
        }
      ],
      "name": "getAllBidderIds",
      "outputs": [
        {
          "internalType": "string[]",
          "name": "",
          "type": "string[]"
        }
      ],
      "stateMutability": "view",
      "type": "function"
    },
    {
      "inputs": [
        {
          "internalType": "string",
          "name": "sessionId",
          "type": "string"
        },
        {
          "internalType": "string",
          "name": "bidderId",
          "type": "string"
        }
      ],
      "name": "getBid",
      "outputs": [
        {
          "components": [
            {
              "internalType": "string",
              "name": "encryptedData",
              "type": "string"
            },
            {
              "internalType": "string",
              "name": "iv",
              "type": "string"
            },
            {
              "internalType": "uint256",
              "name": "timestamp",
              "type": "uint256"
            }
          ],
          "internalType": "struct EncryptedBidContract.EncryptedBid",
          "name": "",
          "type": "tuple"
        }
      ],
      "stateMutability": "view",
      "type": "function"
    },
    {
      "inputs": [],
      "name": "initialize",
      "outputs": [],
      "stateMutability": "nonpayable",
      "type": "function"
    },
    {
      "inputs": [],
      "name": "owner",
      "outputs": [
        {
          "internalType": "address",
          "name": "",
          "type": "address"
        }
      ],
      "stateMutability": "view",
      "type": "function"
    },
    {
      "inputs": [],
      "name": "renounceOwnership",
      "outputs": [],
      "stateMutability": "nonpayable",
      "type": "function"
    },
    {
      "inputs": [
        {
          "internalType": "string",
          "name": "",
          "type": "string"
        }
      ],
      "name": "sessionViewWindows",
      "outputs": [
        {
          "internalType": "uint256",
          "name": "",
          "type": "uint256"
        }
      ],
      "stateMutability": "view",
      "type": "function"
    },
    {
      "inputs": [
        {
          "internalType": "string",
          "name": "sessionId",
          "type": "string"
        },
        {
          "internalType": "uint256",
          "name": "duration",
          "type": "uint256"
        }
      ],
      "name": "setSessionViewWindow",
      "outputs": [],
      "stateMutability": "nonpayable",
      "type": "function"
    },
    {
      "inputs": [
        {
          "internalType": "string",
          "name": "sessionId",
          "type": "string"
        },
        {
          "internalType": "string",
          "name": "bidderId",
          "type": "string"
        },
        {
          "internalType": "string",
          "name": "encryptedData",
          "type": "string"
        },
        {
          "internalType": "string",
          "name": "iv",
          "type": "string"
        }
      ],
      "name": "submitBid",
      "outputs": [],
      "stateMutability": "nonpayable",
      "type": "function"
    },
    {
      "inputs": [
        {
          "internalType": "address",
          "name": "newOwner",
          "type": "address"
        }
      ],
      "name": "transferOwnership",
      "outputs": [],
      "stateMutability": "nonpayable",
      "type": "function"
    }
  ],
  "bytecode": "0x608080604052346100165761169f908161001c8239f35b600080fdfe608080604052600436101561001357600080fd5b60003560e01c9081634f020ec81461105e57508063715018a614610fa05780638129fc1c14610cec578063851e69af14610bd15780638da5cb5b14610b605780639da68881146108a6578063af868dac14610269578063e5c2905e146101ee578063f198bb7c146100f45763f2fde38b1461008d57600080fd5b346100ef5760207ffffffffffffffffffffffffffffffffffffffffffffffffffffffffffffffffc3601126100ef5760043573ffffffffffffffffffffffffffffffffffffffff811681036100ef576100ed906100e86115a0565b6114dd565b005b600080fd5b346100ef5760407ffffffffffffffffffffffffffffffffffffffffffffffffffffffffffffffffc3601126100ef5767ffffffffffffffff6004358181116100ef576101449036906004016112fa565b6024359182116100ef57602061019a9161017d826101696101d69636906004016112fa565b9281604051938285809451938492016111d2565b8101600081520301902082604051948386809551938492016111d2565b8201908152030190206101ac8161136b565b906101e460026101be6001840161136b565b920154916040519485946060865260608601906111f5565b9084820360208601526111f5565b9060408301520390f35b346100ef5760207ffffffffffffffffffffffffffffffffffffffffffffffffffffffffffffffffc3601126100ef5760043567ffffffffffffffff81116100ef576102566020610243819336906004016112fa565b81604051938285809451938492016111d2565b8101600281520301902054604051908152f35b346100ef5760807ffffffffffffffffffffffffffffffffffffffffffffffffffffffffffffffffc3601126100ef5760043567ffffffffffffffff81116100ef576102b89036906004016111a4565b9060243567ffffffffffffffff81116100ef576102d99036906004016111a4565b929060443567ffffffffffffffff81116100ef576102fb9036906004016111a4565b949060643567ffffffffffffffff81116100ef5761031d9036906004016111a4565b90916103276115a0565b61034f610349604051888a82376020818a81016000815203019020868861142f565b54611318565b156106da575b9061037261037b93926040519961036b8b611238565b3691611295565b88523691611295565b602086019081524260408701526103a7604051858782376020818781016000815203019020838561142f565b90865180519067ffffffffffffffff82116105fc576103d0826103ca8654611318565b86611487565b602090601f83116001146106365761041e92916000918361062b575b50507fffffffffffffffffffffffffffffffffffffffffffffffffffffffffffffffff8260011b9260031b1c19161790565b82555b5195865167ffffffffffffffff81116105fc5761044e816104456001860154611318565b60018601611487565b6020601f8211600114610507576104f7959493926104c7836002946040947f8ca29c64697f1118d070b0a2b93f2f864a0f71398ac22ddd7d39dea7938049459d6000926104fc5750507fffffffffffffffffffffffffffffffffffffffffffffffffffffffffffffffff8260011b9260031b1c19161790565b60018501555b01519101556104e9604051958695604087526040870191611448565b918483036020860152611448565b0390a1005b015190508d806103ec565b6001840160005260206000209860005b7fffffffffffffffffffffffffffffffffffffffffffffffffffffffffffffffe0841681106105e45750926001837f8ca29c64697f1118d070b0a2b93f2f864a0f71398ac22ddd7d39dea7938049459b6040946104f79a999897837fffffffffffffffffffffffffffffffffffffffffffffffffffffffffffffffe060029916106105ad575b505050811b0160018501556104cd565b01517fffffffffffffffffffffffffffffffffffffffffffffffffffffffffffffffff60f88460031b161c191690558c808061059d565b828201518b556001909a019960209283019201610517565b7f4e487b7100000000000000000000000000000000000000000000000000000000600052604160045260246000fd5b015190508a806103ec565b907fffffffffffffffffffffffffffffffffffffffffffffffffffffffffffffffe08316918560005260206000209260005b8181106106c2575090846001959493921061068b575b505050811b018255610421565b01517fffffffffffffffffffffffffffffffffffffffffffffffffffffffffffffffff60f88460031b161c1916905589808061067e565b92936020600181928786015181550195019301610668565b604051868882376020818881016001815203019020805490680100000000000000008210156105fc57600182018082558210156108775760005260206000200167ffffffffffffffff85116105fc5761073d856107378354611318565b83611487565b846000601f82116001146107ac57916107948261037b97969593610372956000916107a1575b507fffffffffffffffffffffffffffffffffffffffffffffffffffffffffffffffff8260011b9260031b1c19161790565b90555b9192935050610355565b90508a01358e610763565b60008381526020812092505b7fffffffffffffffffffffffffffffffffffffffffffffffffffffffffffffffe08816811061085f57509161037b9594939161037293887fffffffffffffffffffffffffffffffffffffffffffffffffffffffffffffffe0811610610827575b5050600187811b019055610797565b7fffffffffffffffffffffffffffffffffffffffffffffffffffffffffffffffff60f88a60031b161c19908a01351690558b80610818565b9091602060018192858c0135815501930191016107b8565b7f4e487b7100000000000000000000000000000000000000000000000000000000600052603260045260246000fd5b346100ef5760407ffffffffffffffffffffffffffffffffffffffffffffffffffffffffffffffffc3601126100ef5767ffffffffffffffff6004358181116100ef576108f69036906004016111a4565b906024359283116100ef5761091261094e9336906004016111a4565b93906040519461092186611238565b6060865260006040602097606089820152015260405185858237868187810160008152030190209161142f565b6040519261095b84611238565b6109648261136b565b845260026109746001840161136b565b92868601938452015492604085019380855215610b0257859082604051938492833781016002815203019020548015610aa4578251908101809111610a75574211610a1757610a0c906109db606095604051968796828852519187015260808601906111f5565b90517fffffffffffffffffffffffffffffffffffffffffffffffffffffffffffffffe08583030160408601526111f5565b905160608301520390f35b606484604051907f08c379a00000000000000000000000000000000000000000000000000000000082526004820152600b60248201527f42696420657870697265640000000000000000000000000000000000000000006044820152fd5b7f4e487b7100000000000000000000000000000000000000000000000000000000600052601160045260246000fd5b606485604051907f08c379a00000000000000000000000000000000000000000000000000000000082526004820152601660248201527f53657373696f6e2077696e646f77206e6f7420736574000000000000000000006044820152fd5b606486604051907f08c379a00000000000000000000000000000000000000000000000000000000082526004820152601260248201527f42696420646f6573206e6f7420657869737400000000000000000000000000006044820152fd5b346100ef5760007ffffffffffffffffffffffffffffffffffffffffffffffffffffffffffffffffc3601126100ef57602073ffffffffffffffffffffffffffffffffffffffff7f9016d09d72d40fdae2fd8ceac6b6234c7706214fd39c1cd1e609a0528c1993005416604051908152f35b346100ef5760407ffffffffffffffffffffffffffffffffffffffffffffffffffffffffffffffffc3601126100ef5760043567ffffffffffffffff81116100ef57610c209036906004016111a4565b9060243591610c2d6115a0565b8215610c8e57827fea426717d80d84d12bd275c2d5c8dbe1a35b413bddba1584b3cbbda080f781779360405183858237602081858101600281520301902055610c83604051938493604085526040850191611448565b9060208301520390a1005b60646040517f08c379a000000000000000000000000000000000000000000000000000000000815260206004820152601960248201527f4475726174696f6e206d75737420626520706f736974697665000000000000006044820152fd5b346100ef5760007ffffffffffffffffffffffffffffffffffffffffffffffffffffffffffffffffc3601126100ef577ff0c57e16840df040f15088dc2f81fe391c3923bec73e23a9662efc9c229c6a0080549060ff8260401c161567ffffffffffffffff80841693841580610f99575b60018096149081610f8f575b159081610f86575b50610f0c577fffffffffffffffffffffffffffffffffffffffffffffffff0000000000000000908386838316178655610f51575b5083549060ff8260401c16159282168681159182610f49575b149081610f3f575b159081610f36575b50610f0c5781168517845581610ed7575b50610de7611610565b610def611610565b610df8336114dd565b610e00611610565b837f9b779b17422d0df92223018b32b4d1fa46e071723d6817e2486d003becc55f0055610e82575b610e2e57005b7fc7f505b2f371ae2175ee4913f4499e1f2633a7b5936321eed1cdaeb6115181d291817fffffffffffffffffffffffffffffffffffffffffffffff00ffffffffffffffff60209354169055604051908152a1005b7fffffffffffffffffffffffffffffffffffffffffffffff00ffffffffffffffff82541682557fc7f505b2f371ae2175ee4913f4499e1f2633a7b5936321eed1cdaeb6115181d26020604051858152a1610e28565b7fffffffffffffffffffffffffffffffffffffffffffffff000000000000000000166801000000000000000117835584610dde565b60046040517ff92ee8a9000000000000000000000000000000000000000000000000000000008152fd5b90501587610dcd565b303b159150610dc5565b859250610dbd565b7fffffffffffffffffffffffffffffffffffffffffffffff000000000000000000166801000000000000000117845585610da4565b90501586610d70565b303b159150610d68565b5082610d5c565b346100ef5760007ffffffffffffffffffffffffffffffffffffffffffffffffffffffffffffffffc3601126100ef57610fd76115a0565b600073ffffffffffffffffffffffffffffffffffffffff7f9016d09d72d40fdae2fd8ceac6b6234c7706214fd39c1cd1e609a0528c1993008054907fffffffffffffffffffffffff000000000000000000000000000000000000000082169055167f8be0079c531659141344cd1fd0a4f28419497f9722a3daafe3b4186f6b6457e08280a3005b346100ef576020807ffffffffffffffffffffffffffffffffffffffffffffffffffffffffffffffffc3601126100ef5767ffffffffffffffff6004358181116100ef576110af9036906004016111a4565b80918537830192828160019560018152030190209081549081116105fc578383604051926110e2828260051b0185611254565b8084528184018095600052826000206000915b83831061117b5750505050604051928184019082855251809152604084019160408260051b86010195926000905b8382106111305786880387f35b9091929394838061116a8a7fffffffffffffffffffffffffffffffffffffffffffffffffffffffffffffffc08b869d0301865289516111f5565b999701959493919091019101611123565b90858086819a989594611190859b999b61136b565b8152019201920192509694969593956110f5565b9181601f840112156100ef5782359167ffffffffffffffff83116100ef57602083818601950101116100ef57565b60005b8381106111e55750506000910152565b81810151838201526020016111d5565b907fffffffffffffffffffffffffffffffffffffffffffffffffffffffffffffffe0601f602093611231815180928187528780880191016111d2565b0116010190565b6060810190811067ffffffffffffffff8211176105fc57604052565b90601f7fffffffffffffffffffffffffffffffffffffffffffffffffffffffffffffffe0910116810190811067ffffffffffffffff8211176105fc57604052565b92919267ffffffffffffffff82116105fc57604051916112dd60207fffffffffffffffffffffffffffffffffffffffffffffffffffffffffffffffe0601f8401160184611254565b8294818452818301116100ef578281602093846000960137010152565b9080601f830112156100ef5781602061131593359101611295565b90565b90600182811c92168015611361575b602083101461133257565b7f4e487b7100000000000000000000000000000000000000000000000000000000600052602260045260246000fd5b91607f1691611327565b9060405191826000825461137e81611318565b908184526020946001916001811690816000146113ee57506001146113af575b5050506113ad92500383611254565b565b600090815285812095935091905b8183106113d65750506113ad935082010138808061139e565b855488840185015294850194879450918301916113bd565b9150506113ad9593507fffffffffffffffffffffffffffffffffffffffffffffffffffffffffffffff0091501682840152151560051b82010138808061139e565b6020919283604051948593843782019081520301902090565b601f82602094937fffffffffffffffffffffffffffffffffffffffffffffffffffffffffffffffe0938186528686013760008582860101520116010190565b90601f811161149557505050565b6000916000526020600020906020601f850160051c830194106114d3575b601f0160051c01915b8281106114c857505050565b8181556001016114bc565b90925082906114b3565b73ffffffffffffffffffffffffffffffffffffffff80911690811561156f577f9016d09d72d40fdae2fd8ceac6b6234c7706214fd39c1cd1e609a0528c199300805490837fffffffffffffffffffffffff00000000000000000000000000000000000000008316179055167f8be0079c531659141344cd1fd0a4f28419497f9722a3daafe3b4186f6b6457e0600080a3565b60246040517f1e4fbdf700000000000000000000000000000000000000000000000000000000815260006004820152fd5b73ffffffffffffffffffffffffffffffffffffffff7f9016d09d72d40fdae2fd8ceac6b6234c7706214fd39c1cd1e609a0528c199300541633036115e057565b60246040517f118cdaa7000000000000000000000000000000000000000000000000000000008152336004820152fd5b60ff7ff0c57e16840df040f15088dc2f81fe391c3923bec73e23a9662efc9c229c6a005460401c161561163f57565b60046040517fd7e6bcf8000000000000000000000000000000000000000000000000000000008152fdfea26469706673582212208a8451ee183acee9465b9499b6daef093926ac066d1e7bf5370950a5451bc1e964736f6c63430008180033",
  "linkReferences": {},
  "deployedLinkReferences": {}
}