{
  "_format": "hh-sol-artifact-1",
  "contractName": "EncryptedBidContract",
  "sourceName": "contracts/EncryptedBidContract.sol",
  "abi": [
    {
      "anonymous": false,
      "inputs": [
        {
          "indexed": false,
          "internalType": "string",
          "name": "sessionId",
          "type": "string"
        },
        {
          "indexed": false,
          "internalType": "string",
          "name": "bidderId",
          "type": "string"
        }
      ],
      "name": "BidSubmitted",
      "type": "event"
    },
    {
      "inputs": [
        {
          "internalType": "string",
          "name": "sessionId",
          "type": "string"
        }
      ],
      "name": "getAllBidderIds",
      "outputs": [
        {
          "internalType": "string[]",
          "name": "",
          "type": "string[]"
        }
      ],
      "stateMutability": "view",
      "type": "function"
    },
    {
      "inputs": [
        {
          "internalType": "string",
          "name": "sessionId",
          "type": "string"
        },
        {
          "internalType": "string",
          "name": "bidderId",
          "type": "string"
        }
      ],
      "name": "getBid",
      "outputs": [
        {
          "components": [
            {
              "internalType": "string",
              "name": "encryptedData",
              "type": "string"
            },
            {
              "internalType": "string",
              "name": "iv",
              "type": "string"
            }
          ],
          "internalType": "struct EncryptedBidContract.EncryptedBid",
          "name": "",
          "type": "tuple"
        }
      ],
      "stateMutability": "view",
      "type": "function"
    },
    {
      "inputs": [
        {
          "internalType": "string",
          "name": "",
          "type": "string"
        },
        {
          "internalType": "string",
          "name": "",
          "type": "string"
        }
      ],
      "name": "sessionBids",
      "outputs": [
        {
          "internalType": "string",
          "name": "encryptedData",
          "type": "string"
        },
        {
          "internalType": "string",
          "name": "iv",
          "type": "string"
        }
      ],
      "stateMutability": "view",
      "type": "function"
    },
    {
      "inputs": [
        {
          "internalType": "string",
          "name": "sessionId",
          "type": "string"
        },
        {
          "internalType": "string",
          "name": "bidderId",
          "type": "string"
        },
        {
          "internalType": "string",
          "name": "encryptedData",
          "type": "string"
        },
        {
          "internalType": "string",
          "name": "iv",
          "type": "string"
        }
      ],
      "name": "submitBid",
      "outputs": [],
      "stateMutability": "nonpayable",
      "type": "function"
    }
  ],
  "bytecode": "0x6080806040523461001657610d0a908161001c8239f35b600080fdfe608080604052600436101561001357600080fd5b60003560e01c9081634f020ec814610855575080639da6888114610739578063af868dac1461013d5763b6584cd11461004b57600080fd5b346101385760407ffffffffffffffffffffffffffffffffffffffffffffffffffffffffffffffffc3601126101385767ffffffffffffffff6004358181116101385761009b903690600401610af1565b6024359182116101385760206100f1916100d4826100c0610126963690600401610af1565b9281604051938285809451938492016109c9565b8101600081520301902082604051948386809551938492016109c9565b820190815203019020610134610112600161010b84610b62565b9301610b62565b6040519384936040855260408501906109ec565b9083820360208501526109ec565b0390f35b600080fd5b346101385760807ffffffffffffffffffffffffffffffffffffffffffffffffffffffffffffffffc3601126101385760043567ffffffffffffffff81116101385761018c90369060040161099b565b9060243567ffffffffffffffff8111610138576101ad90369060040161099b565b929060443567ffffffffffffffff8111610138576101cf90369060040161099b565b949060643567ffffffffffffffff8111610138576101f190369060040161099b565b909161021b610215604051888a82376020818a810160008152030190208688610c26565b54610b0f565b1561056d575b9061023e6102479392604051996102378b610a2f565b3691610a8c565b88523691610a8c565b6020860190815261026d6040518587823760208187810160008152030190208385610c26565b955180519067ffffffffffffffff821161048f576102958261028f8a54610b0f565b8a610c3f565b602090601f83116001146104c9576102e39291600091836104be575b50507fffffffffffffffffffffffffffffffffffffffffffffffffffffffffffffffff8260011b9260031b1c19161790565b86555b600180960190519586519067ffffffffffffffff821161048f576103148261030e8554610b0f565b85610c3f565b602090601f83116001146103c25750816103b29594939261038a927f8ca29c64697f1118d070b0a2b93f2f864a0f71398ac22ddd7d39dea7938049459a6000926103b75750507fffffffffffffffffffffffffffffffffffffffffffffffffffffffffffffffff8260011b9260031b1c19161790565b90555b6103a4604051958695604087526040870191610c95565b918483036020860152610c95565b0390a1005b015190508a806102b1565b977fffffffffffffffffffffffffffffffffffffffffffffffffffffffffffffffe08316846000526020600020996000905b8282106104765750509860019284926103b2989796957f8ca29c64697f1118d070b0a2b93f2f864a0f71398ac22ddd7d39dea7938049459c1061043f575b505050811b01905561038d565b01517fffffffffffffffffffffffffffffffffffffffffffffffffffffffffffffffff60f88460031b161c19169055898080610432565b848401518c559a8b019a602094850194909101906103f4565b7f4e487b7100000000000000000000000000000000000000000000000000000000600052604160045260246000fd5b0151905089806102b1565b907fffffffffffffffffffffffffffffffffffffffffffffffffffffffffffffffe08316918960005260206000209260005b818110610555575090846001959493921061051e575b505050811b0186556102e6565b01517fffffffffffffffffffffffffffffffffffffffffffffffffffffffffffffffff60f88460031b161c19169055888080610511565b929360206001819287860151815501950193016104fb565b6040518688823760208188810160018152030190208054906801000000000000000082101561048f576001820180825582101561070a5760005260206000200167ffffffffffffffff851161048f576105d0856105ca8354610b0f565b83610c3f565b846000601f821160011461063f5791610627826102479796959361023e95600091610634575b507fffffffffffffffffffffffffffffffffffffffffffffffffffffffffffffffff8260011b9260031b1c19161790565b90555b9192935050610221565b90508a01358e6105f6565b60008381526020812092505b7fffffffffffffffffffffffffffffffffffffffffffffffffffffffffffffffe0881681106106f25750916102479594939161023e93887fffffffffffffffffffffffffffffffffffffffffffffffffffffffffffffffe08116106106ba575b5050600187811b01905561062a565b7fffffffffffffffffffffffffffffffffffffffffffffffffffffffffffffffff60f88a60031b161c19908a01351690558b806106ab565b9091602060018192858c01358155019301910161064b565b7f4e487b7100000000000000000000000000000000000000000000000000000000600052603260045260246000fd5b346101385760407ffffffffffffffffffffffffffffffffffffffffffffffffffffffffffffffffc3601126101385767ffffffffffffffff6004358181116101385761078990369060040161099b565b906024359283116101385760206107db926107ab61082495369060040161099b565b9290936060826040516107bd81610a2f565b82815201528260405193849283378101600081520301902091610c26565b6101346108016001604051936107f085610a2f565b6107f981610b62565b855201610b62565b6020830190815260405193849360208552516040602086015260608501906109ec565b90517fffffffffffffffffffffffffffffffffffffffffffffffffffffffffffffffe08483030160408501526109ec565b34610138576020807ffffffffffffffffffffffffffffffffffffffffffffffffffffffffffffffffc3601126101385767ffffffffffffffff600435818111610138576108a690369060040161099b565b809185378301928281600195600181520301902090815490811161048f578383604051926108d9828260051b0185610a4b565b8084528184018095600052826000206000915b8383106109725750505050604051928184019082855251809152604084019160408260051b86010195926000905b8382106109275786880387f35b909192939483806109618a7fffffffffffffffffffffffffffffffffffffffffffffffffffffffffffffffc08b869d0301865289516109ec565b99970195949391909101910161091a565b90858086819a989594610987859b999b610b62565b8152019201920192509694969593956108ec565b9181601f840112156101385782359167ffffffffffffffff8311610138576020838186019501011161013857565b60005b8381106109dc5750506000910152565b81810151838201526020016109cc565b907fffffffffffffffffffffffffffffffffffffffffffffffffffffffffffffffe0601f602093610a28815180928187528780880191016109c9565b0116010190565b6040810190811067ffffffffffffffff82111761048f57604052565b90601f7fffffffffffffffffffffffffffffffffffffffffffffffffffffffffffffffe0910116810190811067ffffffffffffffff82111761048f57604052565b92919267ffffffffffffffff821161048f5760405191610ad460207fffffffffffffffffffffffffffffffffffffffffffffffffffffffffffffffe0601f8401160184610a4b565b829481845281830111610138578281602093846000960137010152565b9080601f8301121561013857816020610b0c93359101610a8c565b90565b90600182811c92168015610b58575b6020831014610b2957565b7f4e487b7100000000000000000000000000000000000000000000000000000000600052602260045260246000fd5b91607f1691610b1e565b90604051918260008254610b7581610b0f565b90818452602094600191600181169081600014610be55750600114610ba6575b505050610ba492500383610a4b565b565b600090815285812095935091905b818310610bcd575050610ba49350820101388080610b95565b85548884018501529485019487945091830191610bb4565b915050610ba49593507fffffffffffffffffffffffffffffffffffffffffffffffffffffffffffffff0091501682840152151560051b820101388080610b95565b6020919283604051948593843782019081520301902090565b90601f8111610c4d57505050565b6000916000526020600020906020601f850160051c83019410610c8b575b601f0160051c01915b828110610c8057505050565b818155600101610c74565b9092508290610c6b565b601f82602094937fffffffffffffffffffffffffffffffffffffffffffffffffffffffffffffffe093818652868601376000858286010152011601019056fea26469706673582212202adeff3b719a00a9d0a36f8754532acfdb6538dbe6b75cd4639b7b0f9710e0c864736f6c63430008180033",
  "linkReferences": {},
  "deployedLinkReferences": {}
}